:020000040800F2
:100000000030002091580008D9580008D95800083D
:10001000D9580008D9580008D95800080000000035
:10002000000000000000000000000000D958000897
:10003000D958000800000000D9580008D958000815
:1000400000000000000000000000000000000000B0
:1000500000000000000000000000000000000000A0
:100060000000000000000000000000000000000090
:100070000000000000000000000000000000000080
:100080000000000000000000000000000000000070
:100090000000000000000000000000000000000060
:1000A0000000000000000000000000000000000050
:1000B0000000000000000000000000000000000040
:1000C0000000000000000000000000000000000030
:1000D0000000000000000000000000000000000020
:1000E0000000000000000000000000000000000010
:1000F0000000000000000000000000000000000000
:1001000000000000000000000000000000000000EF
:1001100000000000000000000000000000000000DF
:1001200000000000000000000000000000000000CF
:1001300000000000000000000000000000000000BF
:1001400000000000000000000000000000000000AF
:10015000000000000000000000000000000000009F
:10016000000000000000000000000000000000008F
:10017000000000000000000000000000000000007F
:08018000000000000000000077
:1001880010B5054C237833B9044B13B10448AFF3C9
:1001980000800123237010BD6404002000000000CB
:1001A800D45A000808B5034B1BB103490348AFF301
:1001B800008008BD0000000068040020D45A000830
:1001C80081F0004102E000BF83F0004330B54FEA00
:1001D80041044FEA430594EA050F08BF90EA020F6D
:1001E8001FBF54EA000C55EA020C7FEA645C7FEA00
:1001F800655C00F0E2804FEA5454D4EB5555B8BF23
:100208006D420CDD2C4480EA020281EA030382EA93
:10021800000083EA010180EA020281EA0303362D25
:1002280088BF30BD11F0004F4FEA01314FF4801CF8
:100238004CEA113102D0404261EB410113F0004F0A
:100248004FEA03334CEA133302D0524263EB4303C1
:1002580094EA050F00F0A780A4F10104D5F1200E5F
:100268000DDB02FA0EFC22FA05F2801841F10001BA
:1002780003FA0EF2801843FA05F359410EE0A5F18E
:1002880020050EF1200E012A03FA0EFC28BF4CF0BF
:10029800020C43FA05F3C01851EBE37101F0004575
:1002A80007D54FF0000EDCF1000C7EEB00006EEB82
:1002B8000101B1F5801F1BD3B1F5001F0CD349080C
:1002C8005FEA30004FEA3C0C04F101044FEA445263
:1002D80012F5800F80F09A80BCF1004F08BF5FEAEA
:1002E800500C50F1000041EB045141EA050130BDCA
:1002F8005FEA4C0C404141EB010111F4801FA4F16D
:100308000104E9D191F0000F04BF01460020B1FAC1
:1003180081F308BF2033A3F10B03B3F120020CDAF9
:100328000C3208DD02F1140CC2F10C0201FA0CF0D7
:1003380021FA02F10CE002F11402D8BFC2F1200C3C
:1003480001FA02F120FA0CFCDCBF41EA0C019040F2
:10035800E41AA2BF01EB0451294330BD6FEA04043B
:100368001F3C1CDA0C340EDC04F11404C4F1200226
:1003780020FA04F001FA02F340EA030021FA04F338
:1003880045EA030130BDC4F10C04C4F1200220FA8F
:1003980002F001FA04F340EA0300294630BD21FACD
:1003A80004F0294630BD94F0000F83F4801306BF93
:1003B80081F480110134013D4EE77FEA645C18BF87
:1003C8007FEA655C29D094EA050F08BF90EA020F1E
:1003D80005D054EA000C04BF1946104630BD91EA16
:1003E800030F1EBF0021002030BD5FEA545C05D119
:1003F8004000494128BF41F0004130BD14F5800458
:100408003CBF01F5801130BD01F0004545F0FE41CB
:1004180041F470014FF0000030BD7FEA645C1ABF00
:10042800194610467FEA655C1CBF0B46024650EA37
:10043800013406BF52EA033591EA030F41F4002163
:1004480030BD00BF90F0000F04BF0021704730B5E9
:100458004FF4806404F132044FF000054FF00001BE
:1004680050E700BF90F0000F04BF0021704730B57F
:100478004FF4806404F1320410F0004548BF404254
:100488004FF000013EE700BF42004FEAE2014FEAA9
:1004980031014FEA02701FBF12F07F4393F07F4F84
:1004A80081F06051704732F07F4208BF704793F087
:1004B8007F4F04BF41F40021704730B54FF460749A
:1004C80001F0004521F000411CE700BF50EA01029D
:1004D80008BF704730B54FF000050AE050EA010246
:1004E80008BF704730B511F0004502D5404261EBB6
:1004F80041014FF4806404F132045FEA915C3FF4F7
:10050800D8AE4FF003025FEADC0C18BF03325FEA93
:10051800DC0C18BF033202EBDC02C2F1200300FA44
:1005280003FC20FA02F001FA03FE40EA0E0021FA69
:1005380002F11444BDE600BF70B54FF0FF0C4CF457
:10054800E06C1CEA11541DBF1CEA135594EA0C0F09
:1005580095EA0C0F00F0DEF82C4481EA030621EA44
:100568004C5123EA4C5350EA013518BF52EA03357F
:1005780041F4801143F4801338D0A0FB02CE4FF031
:100588000005E1FB02E506F00042E0FB03E54FF061
:100598000006E1FB03569CF0000F18BF4EF0010E59
:1005A800A4F1FF04B6F5007F64F5407404D25FEA55
:1005B8004E0E6D4146EB060642EAC62141EA555108
:1005C8004FEAC52040EA5E504FEACE2EB4F1FD0C4A
:1005D80088BFBCF5E06F1ED8BEF1004F08BF5FEAC8
:1005E800500E50F1000041EB045170BD06F000467A
:1005F80046EA010140EA020081EA0301B4EB5C0427
:10060800C2BFD4EB0C0541EA045170BD41F480111E
:100618004FF0000E013C00F3AB8014F1360FDEBF43
:10062800002001F0004170BDC4F10004203C35DA1F
:100638000C341BDC04F11404C4F1200500FA05F3A2
:1006480020FA04F001FA05F240EA020001F0004243
:1006580021F0004110EBD37021FA04F642EB0601B9
:100668005EEA430E08BF20EAD37070BDC4F10C04E3
:10067800C4F1200500FA04F320FA05F001FA04F2A7
:1006880040EA020001F0004110EBD37041F1000193
:100698005EEA430E08BF20EAD37070BDC4F120059E
:1006A80000FA05F24EEA020E20FA04F301FA05F206
:1006B80043EA020321FA04F001F0004121FA04F2AE
:1006C80020EA020000EBD3705EEA430E08BF20EA7E
:1006D800D37070BD94F0000F0FD101F000464000B8
:1006E80041EB010111F4801F08BF013CF7D041EA3A
:1006F800060195F0000F18BF704703F0004652003E
:1007080043EB030313F4801F08BF013DF7D043EA0E
:100718000603704794EA0C0F0CEA135518BF95EAC4
:100728000C0F0CD050EA410618BF52EA4306D1D14B
:1007380081EA030101F000414FF0000070BD50EA6A
:10074800410606BF1046194652EA430619D094EAF4
:100758000C0F02D150EA013613D195EA0C0F05D1DE
:1007680052EA03361CBF104619460AD181EA030132
:1007780001F0004141F0FE4141F470014FF00000EA
:1007880070BD41F0FE4141F4780170BD70B54FF085
:10079800FF0C4CF4E06C1CEA11541DBF1CEA135505
:1007A80094EA0C0F95EA0C0F00F0A7F8A4EB0504E7
:1007B80081EA030E52EA03354FEA013100F08880DE
:1007C8004FEA03334FF0805545EA131343EA1263A7
:1007D8004FEA022245EA111545EA10654FEA00265C
:1007E8000EF000419D4208BF964244F1FD0404F515
:1007F800407402D25B084FEA3202B61A65EB030571
:100808005B084FEA32024FF480104FF4002CB6EB2D
:10081800020E75EB030E22BFB61A754640EA0C00AD
:100828005B084FEA3202B6EB020E75EB030E22BFED
:10083800B61A754640EA5C005B084FEA3202B6EB2E
:10084800020E75EB030E22BFB61A754640EA9C00ED
:100858005B084FEA3202B6EB020E75EB030E22BFBD
:10086800B61A754640EADC0055EA060E18D04FEA7B
:10087800051545EA16754FEA06164FEAC30343EA1B
:1008880052734FEAC2025FEA1C1CC0D111F4801FE8
:100898000BD141EA00014FF000004FF0004CB6E7E1
:1008A80011F4801F04BF01430020B4F1FD0C88BF80
:1008B800BCF5E06F3FF6AFAEB5EB030C04BFB6EB8B
:1008C800020C5FEA500C50F1000041EB045170BD7E
:1008D8000EF0004E4EEA113114EB5C04C2BFD4EBAB
:1008E8000C0541EA045170BD41F480114FF0000E2F
:1008F800013C90E645EA060E8DE60CEA135594EAAB
:100908000C0F08BF95EA0C0F3FF43BAF94EA0C0FAD
:100918000AD150EA01347FF434AF95EA0C0F7FF422
:1009280025AF104619462CE795EA0C0F06D152EA76
:1009380003353FF4FDAE1046194622E750EA41065A
:1009480018BF52EA43067FF4C5AE50EA41047FF46B
:100958000DAF52EA43057FF4EBAE12E74FF0FF3CD0
:1009680006E000BF4FF0010C02E000BF4FF0010CA1
:100978004DF804CD4FEA410C7FEA6C5C4FEA430C1A
:1009880018BF7FEA6C5C1BD001B050EA410C0CBF69
:1009980052EA430C91EA030F02BF90EA020F0020CB
:1009A800704710F1000F91EA030F58BF994208BF32
:1009B80090422CBFD8176FEAE37040F001007047EF
:1009C8004FEA410C7FEA6C5C02D150EA013C07D146
:1009D8004FEA430C7FEA6C5CD6D152EA033CD3D091
:1009E8005DF8040B704700BF8446104662468C468B
:1009F8001946634600E000BF01B5FFF7B7FF0028BE
:100A080048BF10F1000F01BD4DF808EDFFF7F4FFE6
:100A18000CBF012000205DF808FB00BF4DF808ED71
:100A2800FFF7EAFF34BF012000205DF808FB00BF94
:100A38004DF808EDFFF7E0FF94BF012000205DF8B6
:100A480008FB00BF4DF808EDFFF7CEFF94BF01206B
:100A580000205DF808FB00BF4DF808EDFFF7C4FF64
:100A680034BF012000205DF808FB00BF4A0011D206
:100A780012F5001211D20DD56FF47873B3EB6252F0
:100A88000ED44FEAC12343F0004343EA505323FAFC
:100A980002F070474FF00000704750EA013002D171
:100AA8004FF0FF3070474FF000007047844641EA2E
:100AB800000313F003036DD1403A41D351F8043BCE
:100AC80040F8043B51F8043B40F8043B51F8043B20
:100AD80040F8043B51F8043B40F8043B51F8043B10
:100AE80040F8043B51F8043B40F8043B51F8043B00
:100AF80040F8043B51F8043B40F8043B51F8043BF0
:100B080040F8043B51F8043B40F8043B51F8043BDF
:100B180040F8043B51F8043B40F8043B51F8043BCF
:100B280040F8043B51F8043B40F8043B51F8043BBF
:100B380040F8043B51F8043B40F8043B403ABDD22E
:100B4800303211D351F8043B40F8043B51F8043BD0
:100B580040F8043B51F8043B40F8043B51F8043B8F
:100B680040F8043B103AEDD20C3205D351F8043B5F
:100B780040F8043B043AF9D2043208D0D2071CBF2B
:100B880011F8013B00F8013B01D30B880380604654
:100B9800704700BF082A13D38B078DD010F00303CA
:100BA8008AD0C3F10403D21ADB071CBF11F8013B3A
:100BB80000F8013B80D331F8023B20F8023B7BE789
:100BC800043AD9D3013A11F8013B00F8013BF9D2B4
:100BD8000B7803704B7843708B788370604670474E
:100BE80080B584B000AF78600023FB607B6818682C
:100BF8007B6804330822194602F026F8F86000BF23
:100C08001037BD4680BD80B500AF00F07DF900F01B
:100C1800A1F901F075FF00F0EDF903F087FC02F08F
:100C280081F800BF80BD000090B58BB000AF484A86
:100C380007F1180307CA83E8070000237B8107F13F
:100C48000A03184602F0FEF878627B6A002BF4D19A
:100C580000237B6002E07B6801337B607B6841F2A4
:100C680087329342F7D97B891846FFF7FBFB32A3FB
:100C7800D3E90023FFF7D2FE0346002B02D04FF43E
:100C88001B737B817B891846FFF7ECFB2CA3D3E908
:100C98000023FFF7E1FE0346002B02D040F69253F3
:100CA8007B817B891846FFF7DDFB23A3D3E900236B
:100CB800FFF78AFA03460C461846214622A3D3E9D1
:100CC8000023FFF763FD03460C46184621464FF004
:100CD8000002204BFFF730FC03460C46184621461D
:100CE800FFF7C4FE03469BB27B817B89B3F5805F27
:100CF80002D340F6FF737B817B89DBB287F8203013
:100D08007B891B0A9BB2DBB287F8213007F11802F6
:100D180007F10C031146184600F028F807F10C03F8
:100D28001846FFF75DFFBB690133BB61BB69C3F3BD
:100D38001103BB6181E700BF8C2EBAE8A263834030
:100D48005D74D1451725AB4000000000007CA5402C
:100D5800EC5A00080000B04080B500AFFFF753FF21
:100D6800FFF762FF0023184680BD000080B58CB0F5
:100D780000AF7860396007F11C0300221A605A60DE
:100D88009A60DA6007F10C0300221A605A609A60D0
:100D9800DA603B681B681B0CDBB23B773B681B685F
:100DA8001B0ADBB27B773B681B68DBB2BB773B680F
:100DB8005B681B0ADBB2FB773B685B68DBB287F8D2
:100DC800203007F11C0107F10C0305221846FFF734
:100DD8006DFE07F10C030C333A68083212681A608A
:100DE8000023FB620023FB6213E007F10C02FB6A9D
:100DF80013441A784049FB6A0B441B785340D9B214
:100E080007F10C02FB6A13440A461A70FB6A0133A5
:100E1800FB62FB6A0F2BE8DD00F018F9374803F096
:100E28008FFB07F11C03184603F09AFB344803F0C4
:100E380087FB07F10C03184603F092FB00F011F949
:100E48000823FB6214E007F11C02FB6A13441A78BA
:100E5800FB6A083B39680B441B7A5340D9B207F147
:100E68001C02FB6A13440A461A70FB6A0133FB62D0
:100E7800FB6A0B2BE7DD0023FB6217E0FB6A0C33F0
:100E880007F13002134413F8141C07F10C02FB6A33
:100E980013441A78FB6A0C334A40D2B207F1300186
:100EA8000B4403F8142CFB6A0133FB62FB6A032B27
:100EB800E4DD3B685B68C3F30A027B681A607B6801
:100EC8001A683B681B68D9020E4B0B401A437B68B3
:100ED8001A607B681B6823F060427B681A607B6835
:100EE800181D07F11C03083308221946FFF7DEFD19
:100EF80000BF3037BD4680BD200000200000002024
:100F08001000002000F8FF1F80B590B000AF032349
:100F18007B614FF4A023BB6100237B6200237B63CA
:100F280007F11403184600F0CDF80F233B600123A6
:100F38007B600023BB600023FB6000233B6105232B
:100F4800FB633B46F96B184600F0A6FF00BF40372D
:100F5800BD4680BD80B588B000AF4FF4C063FB606C
:100F680002233B6101237B610323BB610723FB61F0
:100F78001D4B5B691C4A43F4003353611A4B5B6990
:100F880003F40033BB60BB6807F10C0319464FF04C
:100F9800904001F027F9154B154A1A60134B4FF48E
:100FA80016425A60114B00229A60104B0022DA60F8
:100FB8000E4B00221A610D4B00229A610B4B0C223A
:100FC8005A61094B9B69084A43F480439361064B75
:100FD8009B6903F480437B607B68044801F0DFFC75
:100FE80000BF2037BD4680BD00100240E427002026
:100FF8000038014080B586B000AF134B5B69124AD8
:1010080043F400335361104B5B6903F400333B60D6
:101018003B684FF480537B600123BB600023FB6077
:1010280003233B613B1D19464FF0904001F0DAF86D
:1010380000224FF480514FF0904001F051FA00BF68
:101048001837BD4680BD00BF0010024080B500AF14
:1010580001224FF480514FF0904001F041FA00BF57
:1010680080BD80B500AF00224FF480514FF0904012
:1010780001F036FA00BF80BD80B400AF044B1B6896
:101088005A1C03490A601846BD465DF8047B704740
:101098008004002080B400AF034B1B681846BD468F
:1010A8005DF8047B704700BF3000002080B400AFBB
:1010B800034B1B681846BD465DF8047B704700BFAC
:1010C8003000002080B5ADF5007D00AF3B1D1860F5
:1010D8000023C7F8F8313B1D1B681B6803F00103A8
:1010E800002B00F06E81B54B5B6803F00C03042BFA
:1010F8000CD0B24B5B6803F00C03082B5AD1AF4BF2
:101108005B6803F48033B3F5803F53D14FF4003369
:10111800C7F8F431D7F8F43193FAA3F3C7F8F031EC
:10112800D7F8F031B3FA83F3DBB25B09DBB243F0F3
:101138000103DBB2012B02D1A04B1B6815E04FF471
:101148000033C7F8EC31D7F8EC3193FAA3F3C7F8BA
:10115800E8314FF40033C7F8E431D7F8E43193FAB3
:10116800A3F3C7F8E031954B5B6A4FF40032C7F838
:10117800DC21D7F8DC2192FAA2F2C7F8D821D7F8F7
:10118800D821B2FA82F252B242F0200252B2D2B25E
:1011980002F01F02012101FA02F21340002B00F0B5
:1011A8000F813B1D1B685B68002B40F00981012300
:1011B80000F06BBE3B1D1B685B68B3F5803F06D132
:1011C8007E4B1B687D4A43F48033136030E03B1D3F
:1011D8001B685B68002B0CD1784B1B68774A23F49B
:1011E80080331360754B1B68744A23F480231360A3
:1011F8001EE03B1D1B685B68B3F5A02F0CD16F4B3D
:101208001B686E4A43F4802313606C4B1B686B4A5F
:1012180043F4803313600BE0684B1B68674A23F480
:1012280080331360654B1B68644A23F48023136082
:10123800624BDB6A23F00F023B1D1B689B685F490A
:101248001343CB623B1D1B685B68002B5AD0FFF72A
:1012580013FFC7F8F8010AE0FFF70EFF0246D7F8B8
:10126800F831D31A642B02D9032300F00EBE4FF4D1
:101278000033C7F8D431D7F8D43193FAA3F3C7F8B9
:10128800D031D7F8D031B3FA83F3DBB25B09DBB2E4
:1012980043F00103DBB2012B02D1484B1B6815E078
:1012A8004FF40033C7F8CC31D7F8CC3193FAA3F315
:1012B800C7F8C8314FF40033C7F8C431D7F8C43180
:1012C80093FAA3F3C7F8C0313C4B5B6A4FF4003282
:1012D800C7F8BC21D7F8BC2192FAA2F2C7F8B82106
:1012E800D7F8B821B2FA82F252B242F0200252B2D2
:1012F800D2B202F01F02012101FA02F21340002BC0
:10130800AAD05EE0FFF7B8FEC7F8F8010AE0FFF7D9
:10131800B3FE0246D7F8F831D31A642B02D9032357
:1013280000F0B3BD4FF40033C7F8B431D7F8B43187
:1013380093FAA3F3C7F8B031D7F8B031B3FA83F30F
:10134800DBB25B09DBB243F00103DBB2012B02D154
:101358001A4B1B6815E04FF40033C7F8AC31D7F8C7
:10136800AC3193FAA3F3C7F8A8314FF40033C7F8A8
:10137800A431D7F8A43193FAA3F3C7F8A0310F4BDF
:101388005B6A4FF40032C7F89C21D7F89C2192FA87
:10139800A2F2C7F89821D7F89821B2FA82F252B28D
:1013A80042F0200252B2D2B202F01F02012101FA29
:1013B80002F21340002BAAD103E000BF0010024044
:1013C80000BF3B1D1B681B6803F00203002B00F0E5
:1013D8007081D04B5B6803F00C03002B0BD0CD4B16
:1013E8005B6803F00C03082B6DD1CA4B5B6803F4F0
:1013F8008033002B67D10223C7F89431D7F8943192
:1014080093FAA3F3C7F89031D7F89031B3FA83F37E
:10141800DBB25B09DBB243F00103DBB2012B02D183
:10142800BC4B1B6813E00223C7F88C31D7F88C310A
:1014380093FAA3F3C7F888310223C7F88431D7F8A1
:10144800843193FAA3F3C7F88031B24B5B6A022266
:10145800C7F87C21D7F87C2192FAA2F2C7F8782144
:10146800D7F87821B2FA82F252B242F0200252B290
:10147800D2B202F01F02012101FA02F21340002B3E
:1014880007D03B1D1B681B69012B02D0012300F00C
:10149800FCBCA04B1B6823F0F8023B1D1B68596974
:1014A800F823C7F87431D7F8743193FAA3F3C7F85F
:1014B8007031D7F87031B3FA83F301FA03F3954921
:1014C80013430B60F5E03B1D1B681B69002B00F004
:1014D80085800123C7F86C31D7F86C3193FAA3F3F0
:1014E800C7F86831D7F86831B3FA83F303F1845346
:1014F80003F584139B001A4601231360FFF7BCFD14
:10150800C7F8F8010AE0FFF7B7FD0246D7F8F83147
:10151800D31A022B02D9032300F0B7BC0223C7F861
:101528006431D7F8643193FAA3F3C7F86031D7F878
:101538006031B3FA83F3DBB25B09DBB243F001033A
:10154800DBB2012B02D1734B1B6813E00223C7F8EF
:101558005C31D7F85C3193FAA3F3C7F8583102230A
:10156800C7F85431D7F8543193FAA3F3C7F8503178
:10157800684B5B6A0222C7F84C21D7F84C2192FAD3
:10158800A2F2C7F84821D7F84821B2FA82F252B23B
:1015980042F0200252B2D2B202F01F02012101FA37
:1015A80002F21340002BAED05A4B1B6823F0F8020E
:1015B8003B1D1B685969F823C7F84431D7F84431F3
:1015C80093FAA3F3C7F84031D7F84031B3FA83F35D
:1015D80001FA03F34F4913430B606AE00123C7F88C
:1015E8003C31D7F83C3193FAA3F3C7F83831D7F830
:1015F8003831B3FA83F303F1845303F584139B0062
:101608001A4600231360FFF737FDC7F8F8010AE010
:10161800FFF732FD0246D7F8F831D31A022B02D968
:10162800032300F032BC0223C7F83431D7F8343131
:1016380093FAA3F3C7F83031D7F83031B3FA83F30C
:10164800DBB25B09DBB243F00103DBB2012B02D151
:10165800304B1B6813E00223C7F82C31D7F82C3124
:1016680093FAA3F3C7F828310223C7F82431D7F82F
:10167800243193FAA3F3C7F82031264B5B6A022280
:10168800C7F81C21D7F81C2192FAA2F2C7F8182132
:10169800D7F81821B2FA82F252B242F0200252B2BE
:1016A800D2B202F01F02012101FA02F21340002B0C
:1016B800AED13B1D1B681B6803F00803002B00F02C
:1016C800D8803B1D1B689B69002B67D00123C7F896
:1016D8001431D7F8143193FAA3F3C7F81031D7F8B7
:1016E8001031B3FA83F31A460B4B13449B001A4686
:1016F80001231360FFF7C0FCC7F8F8010EE0FFF7FD
:10170800BBFC0246D7F8F831D31A022B06D90323BB
:10171800BBE300BF00100240208190100223C7F8ED
:101728000C31D7F80C3193FAA3F3C7F80831022328
:10173800C7F80431D7F8043193FAA3F207F5807398
:101748001A6007F1FC0302221A6007F1FC031B6808
:1017580093FAA3F207F1F8031A60A54B5A6A07F146
:10176800F4030221196007F1F4031B6893FAA3F14B
:1017780007F1F003196007F1F0031B68B3FA83F36C
:101788005BB243F060035BB2DBB203F01F030121DD
:1017980001FA03F31340002BB1D06AE007F1EC0320
:1017A80001221A6007F1EC031B6893FAA3F207F110
:1017B800E8031A6007F1E8031B68B3FA83F31A46D3
:1017C8008C4B13449B001A4600231360FFF754FC0C
:1017D800C7F8F80109E0FFF74FFC0246D7F8F831DF
:1017E800D31A022B01D903234FE307F1E4030222A2
:1017F8001A6007F1E4031B6893FAA3F207F1E00308
:101808001A6007F1DC0302221A6007F1DC031B6887
:1018180093FAA3F207F1D8031A6007F1D40302225E
:101828001A6007F1D4031B6893FAA3F207F1D003F7
:101838001A606F4B5A6A07F1CC030221196007F14D
:10184800CC031B6893FAA3F107F1C803196007F1E9
:10185800C8031B68B3FA83F35BB243F060035BB25F
:10186800DBB203F01F03012101FA03F31340002B3D
:10187800B1D13B1D1B681B6803F00403002B00F06B
:101888005981002387F8FF31594BDB6903F08053F6
:10189800002B12D1564BDB69554A43F08053D36174
:1018A800534BDB6903F0805207F10C031A6007F110
:1018B8000C031B68012387F8FF314F4B1B6803F4A7
:1018C8008073002B1AD14C4B1B684B4A43F480732E
:1018D8001360FFF7D1FBC7F8F80109E0FFF7CCFB6D
:1018E8000246D7F8F831D31A642B01D90323CCE286
:1018F800414B1B6803F48073002BEFD03B1D1B6822
:10190800DB68012B06D13A4B1B6A394A43F00103C5
:1019180013622FE03B1D1B68DB68002B0CD1344B96
:101928001B6A334A23F001031362314B1B6A304AA6
:1019380023F0040313621DE03B1D1B68DB68052BC5
:101948000CD12B4B1B6A2A4A43F004031362284B21
:101958001B6A274A43F0010313620BE0244B1B6AFE
:10196800234A23F001031362214B1B6A204A23F008
:10197800040313623B1D1B68DB68002B6BD0FFF769
:101988007BFBC7F8F8010BE0FFF776FB0246D7F8B8
:10199800F831D31A41F28832934201D9032374E211
:1019A80007F1C40302221A6007F1C4031B6893FA03
:1019B800A3F207F1C0031A6007F1BC0302221A6000
:1019C80007F1BC031B6893FAA3F207F1B8031A6086
:1019D80007F1B8031B68B3FA83F3DBB25B09DBB228
:1019E80043F00203DBB2022B08D1014B1B6A13E060
:1019F80000100240208190100070004007F1B403ED
:101A080002221A6007F1B4031B6893FAA3F207F1E4
:101A1800B0031A60BB4B5B6A07F1AC02022111608C
:101A280007F1AC02126892FAA2F107F1A80211605C
:101A380007F1A8021268B2FA82F252B242F04002EA
:101A480052B2D2B202F01F02012101FA02F213408F
:101A5800002B99D064E0FFF70FFBC7F8F8010BE003
:101A6800FFF70AFB0246D7F8F831D31A41F2883259
:101A7800934201D9032308E207F1A40302221A6062
:101A880007F1A4031B6893FAA3F207F1A0031A60F5
:101A980007F19C0302221A6007F19C031B6893FA62
:101AA800A3F207F198031A6007F198031B68B3FAC9
:101AB80083F3DBB25B09DBB243F00203DBB2022B38
:101AC80002D1904B1B6A0DE007F1940302221A60C1
:101AD80007F194031B6893FAA3F207F190031A60C5
:101AE800884B5B6A07F18C020221116007F18C02B6
:101AF800126892FAA2F107F18802116007F18802D0
:101B08001268B2FA82F252B242F0400252B2D2B233
:101B180002F01F02012101FA02F21340002B9FD1AB
:101B280097F8FF31012B05D1764BDB69754A23F015
:101B38008053D3613B1D1B68DB69002B00F0A48137
:101B4800704B5B6803F00C03082B00F09B813B1D76
:101B58001B68DB69022B40F0138107F184034FF007
:101B680080721A6007F184031B6893FAA3F207F1E5
:101B780080031A6007F180031B68B3FA83F303F14B
:101B8800845303F584139B001A4600231360FFF760
:101B980073FAC7F8F80109E0FFF76EFA0246D7F8BA
:101BA800F831D31A022B01D903236EE107F17C0324
:101BB8004FF000721A6007F17C031B6893FAA3F2D6
:101BC80007F178031A6007F178031B68B3FA83F307
:101BD800DBB25B09DBB243F00103DBB2012B02D1BC
:101BE800484B1B681BE007F174034FF000721A6042
:101BF80007F174031B6893FAA3F207F170031A60E4
:101C080007F16C034FF000721A6007F16C031B6850
:101C180093FAA3F207F168031A603A4B5B6A07F17B
:101C280064024FF00071116007F16402126892FAC1
:101C3800A2F107F16002116007F160021268B2FABE
:101C480082F252B242F0200252B2D2B202F01F0225
:101C5800012101FA02F21340002B9DD1294B5B6848
:101C680023F474123B1D1B68596A3B1D1B681B6AD1
:101C78000B43244913434B6007F15C034FF0807218
:101C88001A6007F15C031B6893FAA3F207F1580383
:101C98001A6007F158031B68B3FA83F303F18453FE
:101CA80003F584139B001A4601231360FFF7E4F938
:101CB800C7F8F80109E0FFF7DFF90246D7F8F8316D
:101CC800D31A022B01D90323DFE007F154034FF0A5
:101CD80000721A6007F154031B6893FAA3F207F124
:101CE80050031A6007F150031B68B3FA83F3DBB2A1
:101CF8005B09DBB243F00103DBB2012B04D1014BDA
:101D08001B681DE00010024007F14C034FF0007201
:101D18001A6007F14C031B6893FAA3F207F1480312
:101D28001A6007F144034FF000721A6007F1440388
:101D38001B6893FAA3F207F140031A60554B5B6ADC
:101D480007F13C024FF00071116007F13C02126884
:101D580092FAA2F107F13802116007F1380212680D
:101D6800B2FA82F252B242F0200252B2D2B202F079
:101D78001F02012101FA02F21340002B9BD083E0DD
:101D880007F134034FF080721A6007F134031B68BF
:101D980093FAA3F207F130031A6007F130031B68C6
:101DA800B3FA83F303F1845303F584139B001A46B3
:101DB80000231360FFF760F9C7F8F80109E0FFF79F
:101DC8005BF90246D7F8F831D31A022B01D903235D
:101DD8005BE007F12C034FF000721A6007F12C0347
:101DE8001B6893FAA3F207F128031A6007F1280386
:101DF8001B68B3FA83F3DBB25B09DBB243F0010380
:101E0800DBB2012B02D1234B1B681BE007F1240333
:101E18004FF000721A6007F124031B6893FAA3F2CB
:101E280007F120031A6007F11C034FF000721A60D3
:101E380007F11C031B6893FAA3F207F118031A6051
:101E4800144B5B6A07F114024FF00071116007F13F
:101E58001402126892FAA2F107F11002116007F158
:101E680010021268B2FA82F252B242F0200252B262
:101E7800D2B202F01F02012101FA02F21340002B34
:101E88009DD101E0012300E00023184607F5007703
:101E9800BD4680BD0010024080B59EB000AF78609E
:101EA800396000237B67A74B1B6803F007033A6878
:101EB8009A4210D9A34B1B6823F00702A1493B683B
:101EC80013430B609F4B1B6803F007033A689A4261
:101ED80001D0012372E17B681B6803F00203002B29
:101EE80008D0994B5B6823F0F0027B689B689649A1
:101EF80013434B607B681B6803F00103002B00F061
:101F080009817B685B68012B3DD14FF400333B6747
:101F18003B6F93FAA3F3FB66FB6EB3FA83F3DBB272
:101F28005B09DBB243F00103DBB2012B02D1864B24
:101F38001B680FE04FF40033BB66BB6E93FAA3F344
:101F48007B664FF400333B663B6E93FAA3F3FB6565
:101F58007D4B5B6A4FF40032BA65BA6D92FAA2F211
:101F68007A657A6DB2FA82F252B242F0200252B227
:101F7800D2B202F01F02012101FA02F21340002B33
:101F88007DD101231AE17B685B68022B3DD14FF0BC
:101F980000733B653B6D93FAA3F3FB64FB6CB3FAE8
:101FA80083F3DBB25B09DBB243F00103DBB2012B45
:101FB80002D1654B1B680FE04FF00073BB64BB6C2C
:101FC80093FAA3F37B644FF000733B643B6C93FA82
:101FD800A3F3FB635C4B5B6A4FF00072BA63BA6BA6
:101FE80092FAA2F27A637A6BB2FA82F252B242F0B1
:101FF800200252B2D2B202F01F02012101FA02F20B
:102008001340002B3BD10123D8E002233B633B6BF9
:1020180093FAA3F3FB62FB6AB3FA83F3DBB25B09BF
:10202800DBB243F00103DBB2012B02D1464B1B6844
:102038000DE00223BB62BB6A93FAA3F37B6202231F
:102048003B623B6A93FAA3F3FB613F4B5B6A022254
:10205800BA61BA6992FAA2F27A617A69B2FA82F23C
:1020680052B242F0200252B2D2B202F01F02012153
:1020780001FA02F21340002B01D101239EE0324BFA
:102088005B6823F003027B685B682F4913434B604E
:10209800FEF7F2FF78677B685B68012B12D10AE0D4
:1020A800FEF7EAFF02467B6FD31A41F28832934269
:1020B80001D9032382E0244B5B6803F00C03042B53
:1020C800EED127E07B685B68022B1DD10AE0FEF7A2
:1020D800D3FF02467B6FD31A41F28832934201D96B
:1020E80003236BE0184B5B6803F00C03082BEED15D
:1020F80010E0FEF7C1FF02467B6FD31A41F2883227
:10210800934201D9032359E00F4B5B6803F00C039A
:10211800002BEED10B4B1B6803F007033A689A4279
:1021280014D2084B1B6823F0070206493B68134387
:102138000B60044B1B6803F007033A689A4205D00A
:1021480001233BE000200240001002407B681B682E
:1021580003F00403002B08D01A4B5B6823F4E062F9
:102168007B68DB68174913434B607B681B6803F087
:102178000803002B09D0134B5B6823F460527B687B
:102188001B69DB000F4913434B60FEF783FF0146D1
:102198000C4B5B6803F0F002F0233B613B6993FA58
:1021A800A3F3FB60FB68B3FA83F322FA03F3064A4E
:1021B800D35C21FA03F3054A1360002318467837E5
:1021C800BD4680BD00100240F85A000830000020CB
:1021D80080B400AF4FF4E1031846BD465DF8047BB8
:1021E8007047000080B487B000AF78603960002382
:1021F8007B610023FB6000233B6154E13B681A6864
:1022080001217B6901FA03F31340FB60FB68002B93
:1022180000F046813B685B68022B03D03B685B6833
:10222800122B23D17B69DA087B68083253F82230F5
:102238003B617B6903F007039B000F2202FA03F35B
:10224800DB433A6913403B613B681A697B6903F0D9
:1022580007039B0002FA03F33A6913433B617B6966
:10226800DA087B680832396943F822107B681B68F2
:102278003B617B695B00032202FA03F3DB433A69A3
:1022880013403B613B685B6803F003027B695B00BA
:1022980002FA03F33A6913433B617B683A691A60AF
:1022A8003B685B68012B0BD03B685B68022B07D04F
:1022B8003B685B68112B03D03B685B68122B30D1FD
:1022C8007B689B683B617B695B00032202FA03F32E
:1022D800DB433A6913403B613B68DA687B695B0022
:1022E80002FA03F33A6913433B617B683A699A60DF
:1022F8007B685B683B6101227B6902FA03F3DB437D
:102308003A6913403B613B685B681B0903F00102B3
:102318007B6902FA03F33A6913433B617B683A69C4
:102328005A607B68DB683B617B695B00032202FAC9
:1023380003F3DB433A6913403B613B689A687B6966
:102348005B0002FA03F33A6913433B617B683A691D
:10235800DA603B685B6803F08053002B00F0A080D4
:10236800584B9B69574A43F001039361554B9B694E
:1023780003F00103BB60BB68534A7B699B080233C7
:1023880052F823303B617B6903F003039B000F2263
:1023980002FA03F3DB433A6913403B617B68B3F10C
:1023A800904F19D07B68494A934213D07B68484ABA
:1023B80093420DD07B68474A934207D07B68464AD0
:1023C800934201D1042308E0052306E0032304E037
:1023D800022302E0012300E000237A6902F00302ED
:1023E800920093403A6913433B6137497B699B08E4
:1023F80002333A6941F82320384B1B683B61FB687C
:10240800DB433A6913403B613B685B6803F4803304
:10241800002B03D03A69FB6813433B612F4A3B69A1
:1024280013602E4B5B683B61FB68DB433A691340E2
:102438003B613B685B6803F40033002B03D03A69C7
:10244800FB6813433B61254A3B695360234B9B68F8
:102458003B61FB68DB433A6913403B613B685B685F
:1024680003F48013002B03D03A69FB6813433B61E4
:102478001A4A3B699360194BDB683B61FB68DB4395
:102488003A6913403B613B685B6803F40013002B17
:1024980003D03A69FB6813433B61104A3B69D36038
:1024A8007B6901337B613B681A687B6922FA03F315
:1024B800002B7FF4A3AE00BF1C37BD465DF8047B3C
:1024C800704700BF001002400000014000040048AF
:1024D80000080048000C00480010004800040140B3
:1024E80080B483B000AF78600B467B8013467B7066
:1024F8007B78002B03D07A887B689A6102E07A881F
:102508007B689A6200BF0C37BD465DF8047B704754
:1025180080B586B000AF78600023FB601023FB75A0
:1025280000237B810023BB820023FB747B689A68AD
:102538007B681B691A437B685B691A437B68DB69A4
:102548001343FB607B681B681B6823F4164323F066
:102558000C037A681268F9680B4313607B681B6880
:102568005B6823F440517B68DA687B681B680A4320
:102578005A607B689A697B681B6A1343FB607B68B7
:102588001B689B6823F430617B681B68FA680A4300
:102598009A607B681B68B44A934221D1B34B1B6B8A
:1025A80003F00303032B17D801A252F823F000BF4E
:1025B800C9250008D5250008DB250008CF25000817
:1025C8000123FB75B2E00223FB75AFE00423FB7522
:1025D800ACE00823FB75A9E01023FB7500BFA5E05C
:1025E8007B681B68A24A934223D1A04B1B6B03F460
:1025F8004033B3F5803F12D0B3F5803F02D8002BAB
:1026080007D012E0B3F5003F0CD0B3F5403F03D03C
:102618000BE00023FB7589E00223FB7586E00423A9
:10262800FB7583E00823FB7580E01023FB7500BF72
:102638007CE07B681B688F4A934223D18B4B1B6BD2
:1026480003F44023B3F5802F12D0B3F5802F02D8BE
:10265800002B07D012E0B3F5002F0CD0B3F5402FB4
:1026680003D00BE00023FB7560E00223FB755DE0FF
:102678000423FB755AE00823FB7557E01023FB750C
:1026880000BF53E07B681B687B4A934223D1774B9A
:102698001B6B03F44013B3F5801F12D0B3F5801FF2
:1026A80002D8002B07D012E0B3F5001F0CD0B3F509
:1026B800401F03D00BE00023FB7537E00223FB75B6
:1026C80034E00423FB7531E00823FB752EE010236A
:1026D800FB7500BF2AE07B681B68684A934223D1D8
:1026E800624B1B6B03F44003B3F5800F12D0B3F5B4
:1026F800800F02D8002B07D012E0B3F5000F0CD0E2
:10270800B3F5400F03D00BE00023FB750EE0022366
:10271800FB750BE00423FB7508E00823FB7505E057
:102728001023FB7500BF01E01023FB757B68DB6994
:10273800B3F5004F6FD1FB7D082B57D801A252F893
:1027480023F000BF712700088D270008A92700087B
:10275800F5270008C3270008F5270008F527000813
:10276800F5270008DF270008FEF7A0FC03465A00FB
:102778007B685B685B081A447B685B68B2FBF3F3B1
:10278800BB8236E0FFF724FD03465A007B685B688E
:102798005B081A447B685B68B2FBF3F3BB8228E0F2
:1027A8007B685B685B0803F1F47303F590437A6810
:1027B8005268B3FBF2F3BB821BE0FEF76BFC0346E7
:1027C8005A007B685B685B081A447B685B68B2FBED
:1027D800F3F3BB820DE07B685B685B0803F580322E
:1027E8007B685B68B2FBF3F3BB8202E00123FB74F6
:1027F80000BFBB8A23F00F037B81BB8A5B109BB2AF
:1028080003F007039AB27B8913437B817B681B68BB
:102818007A89DA6075E0FB7D082B6FD801A252F83F
:1028280023F000BF5128000889280008A9280008BB
:1028380005290008C92800080529000805290008F5
:1028480005290008E9280008FEF730FC02467B68E5
:102858005B685B081A447B685B68B2FBF3F39AB267
:102868007B681B68DA604CE00038014000100240C9
:102878000044004000480040004C00400050004028
:10288800FFF7A6FC02467B685B685B081A447B6816
:102898005B68B2FBF3F39AB27B681B68DA6030E0DE
:1028A8007B685B685B0803F5740303F510537A686B
:1028B8005268B3FBF2F39AB27B681B68DA6020E0D7
:1028C800FEF7E8FB02467B685B685B081A447B6896
:1028D8005B68B2FBF3F39AB27B681B68DA6010E0BE
:1028E8007B685B685B0803F500427B685B68B2FB4A
:1028F800F3F39AB27B681B68DA6002E00123FB7489
:1029080000BFFB7C18461837BD4680BD80B586B031
:1029180002AF78600023FB607B680022DA66FEF76E
:10292800ABFBF8607B681B681B6803F00803082B87
:102938000ED16FF07E430093FB6800224FF4001124
:10294800786800F073F80346002B01D0032322E0D7
:102958007B681B681B6803F00403042B0ED16FF01F
:102968007E430093FB6800224FF48001786800F0F2
:102978005DF80346002B01D003230CE07B6820227E
:1029880083F869207B68202283F86A207B6800220C
:1029980083F86820002318461037BD4680BD80B5EF
:1029A80082B000AF78607B68002B01D1012339E049
:1029B8007B6893F86930DBB2002B03D17B68002277
:1029C80083F868207B68242283F869207B681B6869
:1029D8001A687B681B6822F001021A607868FFF7A2
:1029E80097FD0346012B01D101231BE07B681B687F
:1029F8005A687B681B6822F490425A607B681B689F
:102A08009A687B681B6822F02A029A607B681B68B8
:102A18001A687B681B6842F001021A607868FFF741
:102A280075FF034618460837BD4680BD80B584B09B
:102A380000AFF860B9603B601346FB712CE0BB69DE
:102A4800B3F1FF3F28D0BB69002B07D0FEF714FB7A
:102A580002463B68D31ABA699A421DD2FB681B68C2
:102A68001A68FB681B6822F4D0721A60FB681B683E
:102A78009A68FB681B6822F001029A60FB682022B2
:102A880083F86920FB68202283F86A20FB6800220B
:102A980083F8682003230FE0FB681B68DA69BB68CA
:102AA8001340BA689A420CBF01230023DBB21A46CE
:102AB800FB799A42C3D0002318461037BD4680BD23
:102AC80080B485B000AF0346FB71FB79022B07D0B9
:102AD800032B02D0012B06D008E0FD23FB7307E08F
:102AE800FC23FB7304E0FB23FB7301E0FA23FB7375
:102AF80097F90F3018461437BD465DF8047B7047C8
:102B080080B592B000AF494B494A1A60474B08223A
:102B18005A60464B00229A60444B0022DA60434BCD
:102B28004FF480321A61414B00225A613F4B002218
:102B38009A613E4B0022DA613C4B00221A623B4B01
:102B480000225A62394B00229A62384B0022DA621C
:102B5800384BDB69374A43F00073D361354BDB6987
:102B680003F000737B607B68324B5B69314A43F446
:102B7800802353612F4B5B6903F480233B603B68E0
:102B88004FF44073BB600223FB6000233B610323C7
:102B98007B610923BB6107F1080319462648FFF743
:102BA80021FB224801F011F9034687F8473097F8CE
:102BB8004730002B02D04FF0FF3333E000233B6354
:102BC80000237B630123BB630023FB6100233B627B
:102BD80000237B620023BB620023FB620123FB63AB
:102BE8000E233B6407F11C031946104801F002FA52
:102BF8000346002B02D04FF0FF3313E00F4B4FF486
:102C080092721A600D4B0E4A5A600C4B04229A605D
:102C18000A4B0022DA60054B084A1A63034B094A3B
:102C28005A63002318464837BD4680BD88040020F3
:102C3800006400400010024000040048C80400205E
:102C4800BA5A3412E404002080B586B000AFF860A8
:102C5800B9607A607B68082B02DD6FF001034FE0F2
:102C68007B68294A136100237B610FE07B69072B8E
:102C780011DCBB685A1CBA601978234A7B69134473
:102C880014330A461A707B6901337B617A697B6861
:102C98009A42EBDD00E000BFFB68B3F5006F06D297
:102CA800194AFB681360184B00229A600DE0FB6814
:102CB800B3F1005F06D2144AFB685360124B04223A
:102CC8009A6002E04FF0FF331AE064210F4801F0E8
:102CD80091FA0346FB740D4B93F83930DBB2032BA2
:102CE80004D10A4801F055FAFFF70AFFFB7C002BD4
:102CF80001D17B6904E0FB7C1846FFF7E1FE03463F
:102D080018461837BD4680BDC80400208804002036
:102D180080B483B000AF786000BF0C37BD465DF863
:102D2800047B704780B58EB000AF4FF480437B6260
:102D38000323BB620023FB6203233B6307F12403E5
:102D480019463C48FFF74EFA3B4B5B693A4A43F059
:102D580000535361384B5B6903F00053BB60BB6899
:102D6800354B5B69344A43F480235361324B5B69CA
:102D780003F480237B607B68304B314A1A602F4B09
:102D88004FF440325A602D4B00229A602B4B0022A0
:102D9800DA602A4B01221A61284B00225A61274B1C
:102DA80000229A61254B0122DA61244B01221A6222
:102DB800224B00225A62214B01229A621F4B0122A8
:102DC800DA621E4B00221A631C4B00225A631B4B0B
:102DD80000229A63194800F053F80346002B02D0EA
:102DE8004FF0FF3321E00423FB6001233B61042300
:102DF8007B610023BB610023FB6100233B6207F179
:102E08000C0319460D4800F037FC0346002B02D08E
:102E18006FF0010309E0094800F010FA0346002B9F
:102E280002D06FF0020300E0002318463837BD4691
:102E380080BD00BF000400480010024008050020C3
:102E48000005005080B582B000AF78604FF4FA7189
:102E58000A4800F009FB0346002B08D1074800F098
:102E6800FDFB03469AB27B681A80002301E06FF0ED
:102E7800030318460837BD4680BD00BF080500207B
:102E880080B59CB000AF7860002387F86F300023CE
:102E9800BB660023FB607B68002B01D10123C6E1E0
:102EA8007B681B69002B7B685B6C03F01003002BAD
:102EB80075D17B685B6C002B52D17B6800229A64C9
:102EC8007B6800221A657B680022DA647B6800222E
:102ED80083F840207868FFF71BFF7B681B689B68B6
:102EE80003F08053002B3BD1786800F00FFF0346B6
:102EF80087F86F307B685B6C03F01003002B2FD1D1
:102F080097F86F30002B2BD17B685B6C23F48853C8
:102F180023F0020343F002027B685A647B681B6853
:102F28009A687B681B6822F040529A607B681B682D
:102F38009A687B681B6842F080529A60854B1B68D0
:102F4800854AA2FB03239A0C13469B0013445B009B
:102F5800FB6002E0FB68013BFB60FB68002BF9D1DA
:102F68007B681B689B6803F08053002B06D07B6846
:102F78001B689B6803F00053002B10D07B685B6CC8
:102F880023F0120343F010027B685A647B689B6C41
:102F980043F001027B689A64012387F86F307B68ED
:102FA8005B6C03F01003002B40F0348197F86F300E
:102FB800002B40F02F817B681B689B6803F004039B
:102FC800002B40F027817B685B6C23F4817343F00E
:102FD80002027B685A647B681B68B3F1A04F04D077
:102FE8007B681B685D4A934201D15D4B00E05D4BF5
:102FF8007B667B681B68B3F1A04F02D1574B3B61DE
:103008001AE07B681B68554A934203D14FF0A043EE
:103018003B6111E07B681B68534A934202D1534BD2
:103028003B6109E07B681B68504A934202D14E4BD2
:103038003B6101E000233B617B681B689B6803F0F0
:103048000303012B08D17B681B681B6803F001038D
:10305800012B01D1012300E00023002B1CD13B6987
:10306800002B10D03B699B6803F00303012B07D1A9
:103078003B691B6803F00103012B01D1012300E028
:103088000023002B08D17B6E9B6823F440327B68B9
:103098005B681A437B6E9A607B68DB695B037A68BE
:1030A800926B012A02D04FF4805200E000221A43AA
:1030B8007B68DB681A437B689B681343BA6E1343CB
:1030C800BB667B685B6A012B1BD17B68DB69002BC5
:1030D80009D17B689B6A013B5A04BB6E134343F4D6
:1030E8008033BB660DE07B685B6C23F0220343F002
:1030F80020027B685A647B689B6C43F001027B6802
:103108009A647B68DB6A012B3AD07B681B68164A95
:10311800934204D07B681B68144A934228D17B6889
:10312800DB6AB3F5307F12D07B68DB6AB3F5807F4A
:103138000AD07B68DB6AB3F5E07F02D07B68DB6A84
:1031480018E04FF4807315E04FF4307312E04FF439
:10315800E0730FE03000002083DE1B4300010050C5
:103168000003005000070050000400500005005004
:103178007B68DB6A7A68126B1343BA6E1343BB66CB
:103188007B681B689B6803F00C03002B13D17B68DA
:103198001B68DB687A68126823F4804323F0020313
:1031A800D3607B689B699A037B685B6B5B00134306
:1031B800BA6E1343BB667B681B68DA681E4B134004
:1031C8007A681268B96E0B43D3607B681B69012B60
:1031D8000CD17B681B681B6B23F00F017B681B6A93
:1031E8005A1E7B681B680A431A6307E07B681B68E2
:1031F8001A6B7B681B6822F00F021A637B68002237
:103208009A647B685B6C23F0030343F001027B68DC
:103218005A640AE07B685B6C23F0120343F01002E7
:103228007B685A64012387F86F3097F86F30184627
:103238007037BD4680BD00BF07C0F0FF80B584B0C1
:1032480000AF78600023FB737B681B689B6803F002
:103258000403002B40F0F8807B6893F84030012B82
:1032680001D10223F3E07B68012283F840207868CB
:1032780000F0EEFC0346FB73FB7B002B40F0DF8085
:103288007B685B6C23F4706323F0010343F4807262
:103298007B685A647B681B68B3F1A04F04D07B68D5
:1032A8001B686D4A934206D16C4B9B6803F01F0361
:1032B800002B10D005E06A4B9B6803F01F03002B1E
:1032C80009D07B681B68B3F1A04F04D07B681B68EA
:1032D800644A934215D17B685B6C23F480127B6847
:1032E8005A647B681B68DB6803F00073002B36D0D8
:1032F8007B685B6C23F4405343F480527B685A64C8
:103308002DE07B685B6C43F480127B685A647B68B1
:103318001B68B3F1A04F04D07B681B684E4A9342E8
:103328000AD14FF0A043DB6803F00073002B14BFF1
:1033380001230023DBB208E04A4BDB6803F000738B
:10334800002B14BF01230023DBB2002B07D07B68BE
:103358005B6C23F4405343F480527B685A647B6867
:103368005B6C03F48053002B06D07B689B6C23F0C6
:1033780006027B689A6402E07B6800229A647B6894
:10338800002283F840207B681B681C221A607B6837
:103398001B68B3F1A04F04D07B681B682E4A934288
:1033A80006D12E4B9B6803F01F03002B3ED005E08F
:1033B8002B4B9B6803F01F03002B37D07B681B68DF
:1033C800B3F1A04F04D07B681B68234A934206D10F
:1033D800224B9B6803F01F03052B27D005E0204BE9
:1033E8009B6803F01F03052B20D07B681B68B3F193
:1033F800A04F04D07B681B68174A934206D1174B2D
:103408009B6803F01F03092B10D005E0144B9B6841
:1034180003F01F03092B09D07B681B68B3F1A04F89
:1034280004D07B681B680F4A93420FD17B681B68E6
:103438009A687B681B6842F004029A6006E07B6821
:10344800002283F8402001E00223FB73FB7B18462F
:103458001037BD4680BD00BF00010050000300507A
:10346800000700500004005080B586B000AF7860B7
:10347800396000233B617B685B69082B02D1082314
:103488007B613AE07B681B68B3F1A04F04D07B688E
:103498001B686E4A934201D16D4B00E06D4BFB6097
:1034A800FB689B6803F01F03002B12D17B681B6825
:1034B800DB6803F00103002B1DD07B685B6C43F0D5
:1034C80020027B685A647B68002283F8402001232D
:1034D800B8E0FB689B6803F44043002B0BD07B6883
:1034E8005B6C43F020027B685A647B68002283F897
:1034F80040200123A6E00C237B617B681B68B3F1A5
:10350800A04F04D07B681B68504A934206D1504BA9
:103518009B6803F01F03002B10D005E04D4B9B6800
:1035280003F01F03002B09D07B681B68B3F1A04F81
:1035380004D07B681B68484A934204D17B681B68A7
:10354800DB683B610FE07B681B68B3F1A04F04D0D8
:103558007B681B683D4A934202D14FF0A04300E0CC
:103568003D4BDB683B61FDF787FDB8601AE03B68BF
:10357800B3F1FF3F16D03B68002B07D0FDF77CFD69
:103588000246BB68D31A3A689A420BD27B685B6CD6
:1035980043F004027B685A647B68002283F8402069
:1035A80003234FE07B681B681A687B691340002B74
:1035B800DDD07B685B6C43F400727B685A647B687F
:1035C8001B68DB6803F44063002B31D13B6903F4CB
:1035D8000053002B2CD17B681B681B6803F0080381
:1035E800082B25D17B681B689B6803F00403002B1C
:1035F80012D17B685B6C23F480727B685A647B68A9
:103608005B6C03F48053002B12D17B685B6C43F036
:1036180001027B685A640BE07B685B6C43F0200214
:103628007B685A647B689B6C43F001027B689A64F0
:103638003B6903F48043002B03D17B681B687A69DC
:103648001A60002318461837BD4680BD0001005097
:1036580000030050000700500004005080B483B0FD
:1036680000AF78607B681B681B6C18460C37BD463A
:103678005DF8047B7047000080B49DB000AF7860AF
:103688003960002387F86F300023FB607B6893F86C
:103698004030012B01D10223CBE27B68012283F861
:1036A80040207B681B689B6803F00403002B40F0F4
:1036B800AF823B685B68042B1CD87B681B68196B5E
:1036C8003B685A6813465B0013445B001A461F2385
:1036D8009340DB4319403B6818683B685A681346B7
:1036E8005B0013445B0000FA03F27B681B680A4323
:1036F8001A6363E03B685B68092B1ED87B681B680C
:10370800596B3B685A6813465B0013445B001E3BC9
:103718001F2202FA03F3DB4319403B6818683B6831
:103728005A6813465B0013445B001E3B00FA03F221
:103738007B681B680A435A6340E03B685B680E2B52
:103748001ED87B681B68996B3B685A6813465B00F8
:1037580013445B003C3B1F2202FA03F3DB4319408E
:103768003B6818683B685A6813465B0013445B0063
:103778003C3B00FA03F27B681B680A439A631DE02E
:103788007B681B68D96B3B685A6813465B00134417
:103798005B005A3B1F2202FA03F3DB4319403B68E4
:1037A80018683B685A6813465B0013445B005A3B31
:1037B80000FA03F27B681B680A43DA637B681B68BC
:1037C8009B6803F00C03002B40F0E5803B681B6806
:1037D800092B1CD97B681B6899693B681A681346D2
:1037E8005B0013441E3B072202FA03F3DB43194034
:1037F8003B6898683B681A6813465B0013441E3B95
:1038080000FA03F27B681B680A439A6119E07B6837
:103818001B6859693B681A6813465B001344072202
:1038280002FA03F3DB4319403B6898683B681A685F
:1038380013465B00134400FA03F27B681B680A43D3
:103848005A613B685A697B681B68DB68DB0803F0D0
:1038580003035B0002FA03F3BB663B681B69013B89
:10386800032B4FD801A252F823F000BF8538000877
:10387800A7380008C9380008EB3800087B681B68BF
:103888001A6E9F4B13403A6812689106BA6E0A4343
:103898001A437B681B6842F000421A667EE07B6828
:1038A8001B685A6E964B13403A6812689106BA6EB6
:1038B8000A431A437B681B6842F000425A666DE06F
:1038C8007B681B689A6E8E4B13403A6812689106A3
:1038D800BA6E0A431A437B681B6842F000429A6634
:1038E8005CE07B681B68DA6E854B13403A681268A7
:1038F8009106BA6E0A431A437B681B6842F000427D
:10390800DA664BE07B681B681B6E03F0F8423B6885
:103918001B689B069A4207D17B681B681A6E7B68F6
:103928001B6822F000421A667B681B685B6E03F016
:10393800F8423B681B689B069A4207D17B681B6864
:103948005A6E7B681B6822F000425A667B681B68C7
:103958009B6E03F0F8423B681B689B069A4207D1AE
:103968007B681B689A6E7B681B6822F000429A6627
:103978007B681B68DB6E03F0F8423B681B689B069C
:103988009A420AD17B681B68DA6E7B681B6822F052
:103998000042DA6601E000BF00E000BF7B681B68F8
:1039A8009B6803F00303012B08D17B681B681B6825
:1039B80003F00103012B01D1012300E00023002BB8
:1039C80040F031813B68DB68012B0FD07B681B68B6
:1039D800D3F8B0103B681B68012202FA03F3DA43FC
:1039E8007B681B680A40C3F8B02049E07B681B6805
:1039F800D3F8B0103B681B6801229A407B681B68AB
:103A08000A43C3F8B0203B681B68092B1CD97B68A4
:103A18001B6899693B681A6813465B0013441B3B93
:103A2800072202FA03F3DB4319403B6898683B68B6
:103A38001A6813465B0013441B3B00FA03F27B68C9
:103A48001B680A439A611BE07B681B6859693B68DD
:103A58001B685A1C13465B001344072202FA03F33F
:103A6800DB4319403B6898683B681B685A1C13463F
:103A78005B00134400FA03F27B681B680A435A612F
:103A88007B681B68B3F1A04F04D07B681B681D4A94
:103A9800934201D11C4B00E01C4B7B663B681B68C2
:103AA800102B05D17B6E9B6803F40003002B15D007
:103AB8003B681B68112B05D17B6E9B6803F08073F4
:103AC800002B0BD03B681B68122B40F0AC807B6E40
:103AD8009B6803F48003002B40F0A5807B681B687B
:103AE800B3F1A04F02D1074B3B6123E07B681B6811
:103AF800044A93420CD14FF0A0433B611AE000BF47
:103B080000F0FF8300010050000300500007005040
:103B18007B681B684A4A934202D14A4B3B6109E0E1
:103B28007B681B68474A934202D1454B3B6101E0E1
:103B380000233B617B681B689B6803F00303012B30
:103B480008D17B681B681B6803F00103012B01D1B6
:103B5800012300E00023002B50D13B69002B10D03B
:103B68003B699B6803F00303012B07D13B691B6882
:103B780003F00103012B01D1012300E00023002BF6
:103B88003CD13B681B68102B1DD17B681B68B3F1C7
:103B9800A04F18D17B6E9B6843F400027B6E9A603D
:103BA800294B1B68294AA2FB03239A0C13469B0046
:103BB80013445B00FB6002E0FB68013BFB60FB68B1
:103BC800002BF9D12EE03B681B68112B0BD17B68C9
:103BD8001B68B3F1A04F06D17B6E9B6843F08072DF
:103BE8007B6E9A601EE03B681B68122B1AD17B6EB5
:103BF8009B6843F480027B6E9A6013E07B685B6C81
:103C080043F020027B685A64012387F86F300AE08A
:103C18007B685B6C43F020027B685A64012387F859
:103C28006F3000E000BF7B68002283F8402097F8DF
:103C38006F3018467437BD465DF8047B704700BF87
:103C480000040050000500503000002083DE1B43B4
:103C580080B584B000AF78600023FB607B681B6888
:103C68009B6803F00303012B08D17B681B681B6862
:103C780003F00103012B01D1012300E00023002BF5
:103C88003CD17B681B689A681F4B1340002B0DD0F2
:103C98007B685B6C43F010027B685A647B689B6CA2
:103CA80043F001027B689A64012328E07B681B6863
:103CB8009A687B681B6842F001029A60FDF7DCF99C
:103CC800F86014E0FDF7D8F90246FB68D31A022B16
:103CD8000DD97B685B6C43F010027B685A647B6883
:103CE8009B6C43F001027B689A64012307E07B68C0
:103CF8001B681B6803F00103012BE3D1002318465E
:103D08001037BD4680BD00BF3F00008080B584B03D
:103D180000AF78600023FB607B681B689B6803F03A
:103D28000303012B08D17B681B681B6803F00103A0
:103D3800012B01D1012300E00023002B40D07B6838
:103D48001B689B6803F00D03012B0FD17B681B6870
:103D58009A687B681B6842F002029A607B681B685D
:103D680003221A60FDF788F9F86022E07B685B6C33
:103D780043F010027B685A647B689B6C43F0010235
:103D88007B689A6401231CE0FDF776F90246FB681C
:103D9800D31A022B0DD97B685B6C43F010027B6849
:103DA8005A647B689B6C43F001027B689A64012328
:103DB80007E07B681B689B6803F00103002BE3D1D5
:103DC800002318461037BD4680BD80B584B000AFCB
:103DD80078600023FB600023BB607B68002B01D167
:103DE800012303E17B6893F83930DBB2002B06D15D
:103DF8007B68002283F83820786800F0E7F97B6850
:103E0800022283F839207B681B681A687B681B6864
:103E180022F002021A607B681B681A687B681B68BC
:103E280042F001021A60FDF727F9B86011E0FDF7CA
:103E380023F90246BB68D31AB3F57A7F09D97B68A0
:103E4800032283F839207B68002283F83820032373
:103E5800CCE07B681B685B6803F00103012BE6D1AB
:103E68007B681B685B6803F00103012B40F0AD80A1
:103E78007B689B69012B08D17B681B681A687B6883
:103E88001B6842F080021A6007E07B681B681A68AA
:103E98007B681B6822F080021A607B68DB69012B53
:103EA80008D17B681B681A687B681B6842F040026F
:103EB8001A6007E07B681B681A687B681B6822F039
:103EC80040021A607B681B6A012B08D17B681B685B
:103ED8001A687B681B6842F020021A6007E07B685A
:103EE8001B681A687B681B6822F020021A607B68CE
:103EF8005B6A012B08D17B681B681A687B681B68A2
:103F080042F010021A6007E07B681B681A687B6839
:103F18001B6822F010021A607B689B6A012B08D18B
:103F28007B681B681A687B681B6842F008021A6085
:103F380007E07B681B681A687B681B6822F0080228
:103F48001A607B68DB6A012B08D17B681B681A68DA
:103F58007B681B6842F004021A6007E07B681B68F4
:103F68001A687B681B6822F004021A607B689A68EA
:103F78007B68DB681A437B681B691A437B685B694B
:103F880042EA03017B685B685A1E7B681B680A4328
:103F9800DA617B681B681A687B681B6822F001027B
:103FA8001A60FDF769F8B86000BF7B681B685B683A
:103FB80003F00103012BF8D07B681B685B6803F0F2
:103FC8000103012B01D00123FB60FB68012B08D101
:103FD8007B680022DA637B68012283F8392000239A
:103FE80004E07B68042283F839200123184610373F
:103FF800BD4680BD80B485B000AF786039600023CD
:10400800FB603B685B69012202FA03F3FB607B6893
:104018001B68D3F800227B681B6842F00102C3F8D2
:1040280000227B681B68D3F81C12FB68DA437B68A4
:104038001B680A40C3F81C223B68DB69002B27D1A8
:104048007B681B68D3F80C12FB68DA437B681B6833
:104058000A40C3F80C223B68DB6818043B685B68BD
:1040680099B27B681B683A6852690143483243F841
:1040780032103B689B6818043B681B689AB27B68DF
:1040880019683B685B6902434833DB000B445A609C
:104098003B68DB69012B26D17B681B68D3F80C12BF
:1040A8007B681B68FA680A43C3F80C223B681B68E4
:1040B80018043B685B6899B27B681B683A68526968
:1040C8000143483243F832103B689B6818043B6848
:1040D800DB689AB27B6819683B685B6902434833BE
:1040E800DB000B445A603B689B69002B0BD17B6853
:1040F8001B68D3F80412FB68DA437B681B680A4024
:10410800C3F8042209E07B681B68D3F804127B68B3
:104118001B68FA680A43C3F804223B681B69002B32
:104128000AD17B681B68D3F81412FB68DA437B68F2
:104138001B680A40C3F814223B681B69012B09D18C
:104148007B681B68D3F814127B681B68FA680A43FB
:10415800C3F814223B681B6A012B09D17B681B68D2
:10416800D3F81C127B681B68FA680A43C3F81C2240
:104178007B681B68D3F800227B681B6822F0010269
:10418800C3F80022002318461437BD465DF8047BA7
:10419800704780B582B000AF78607B68002B01D192
:1041A80001230FE07B68022283F83920786800F049
:1041B80017F87B68002283F839207B68002283F88F
:1041C8003820002318460837BD4680BD80B483B028
:1041D80000AF786000BF0C37BD465DF8047B7047C0
:1041E80080B483B000AF786000BF0C37BD465DF87F
:1041F800047B704780B584B000AF786039600423D1
:10420800FB600023BB607B681B689B6803F08063CE
:10421800B3F1806F10D07B681B689B6803F0006364
:10422800B3F1006F08D07B681B689B6803F080536C
:10423800B3F1805F40F06B817B6893F83830012BD5
:1042480001D1022368E17B68012283F838207B686A
:1042580093F83930DBB2222B04D17B68322283F801
:10426800392003E07B68122283F839207B681B68B9
:104278009B6803F08063002B02D00023FB600BE0F7
:104288007B681B689B6803F00063002B02D0012346
:10429800FB6001E00223FB607B681A68FB68183347
:1042A8001B0113441B687A68116803F00102FB685C
:1042B80018331B010B441A607B681B6B9B68002B2F
:1042C80017D17B681A68FB6818331B0113441A68F6
:1042D8007B681B6B1B6859057B681B6BDB680B4392
:1042E800796809681A43FB6818331B010B441A6084
:1042F8001AE07B681A68FB6818331B0113441A68B4
:104308007B681B6B5B68D9007B681B6B9B681943D8
:104318007B681B6BDB680B43796809681A43FB6889
:1043280018331B010B441A607B681B6B1A697B6886
:104338001B6B02F00F021A617B681A68FB6818335E
:104348001B01134404331B687A68116823F00F02B9
:10435800FB6818331B010B4404331A607B681A6826
:10436800FB6818331B01134404331A687B681B6B02
:104378001B69796809681A43FB6818331B010B44E9
:1043880004331A607B681B6BDB7D1A067B681B6B2A
:104398009B7D1B041A437B681B6B5B7D1B021343CD
:1043A8007A68126B127D10467A68116843EA000237
:1043B800FB681B010B4403F5C4731A607B681B6B15
:1043C800DB7E1A067B681B6B9B7E1B041A437B688B
:1043D8001B6B5B7E1B0213437A68126B127E1046BE
:1043E8007A68116843EA0002FB681B010B4403F575
:1043F800C6731A607B681A68FB6818331B0113447C
:104408001B687A68116843F00102FB6818331B01C6
:104418000B441A60FCF730FEB86038E03B68B3F133
:10442800FF3F34D03B68002B07D0FCF725FE02463F
:10443800BB68D31A3A689A4229D27B68032283F868
:104448003920FB68002B08D17B681B689A687B6859
:104458001B6842F080029A6013E0FB68012B08D1C8
:104468007B681B689A687B681B6842F400429A6004
:1044780007E07B681B689A687B681B6842F4000247
:104488009A607B68002283F83820032344E0FB68A5
:10449800002B0BD17B681B689A68214B1340204A7C
:1044A800934214BF01230023DBB219E0FB68012B00
:1044B8000BD17B681B689A681A4B1340194A9342C0
:1044C80014BF01230023DBB20AE07B681B689A68EB
:1044D800154B1340144A934214BF01230023DBB247
:1044E800002B9BD17B6893F83930DBB2322B04D197
:1044F8007B68222283F8392003E07B68012283F855
:1045080039207B68002283F83820002304E07B6888
:10451800042283F83920012318461037BD4680BD90
:1045280003000004000300080000031080B500AF7A
:10453800024800F0E1F900BF80BD00BF5428002008
:1045480080B582B000AF786080227968034800F0B7
:10455800E1F900BF0837BD4680BD00BF54280020E0
:1045680080B582B000AF78607B687A680121034823
:1045780001F06EF900BF0837BD4680BD5428002001
:1045880080B487B000AFA44BFB60A44BBB60002392
:104598007B6101233B611DE07B699B00FA68134442
:1045A8003A691A603B699B00BA6813447A691A60D1
:1045B8003B695B003A6902F08002002A01D01B22A5
:1045C80000E000225A403B695340DBB23B617B6903
:1045D80001337B617B69FF2BDEDD00237B610123D7
:1045E8003B6114E03A698E497B6941F823203B69B5
:1045F8005B003A6902F08002002A01D01B2200E029
:1046080000225340DBB23B617B6901337B617B69EC
:10461800092BE7DD834B63221A70834B002283F852
:10462800632001237B614CE07B699B00BA681344DB
:104638001B68C3F1FF039B00FA6813441B683B61C6
:104648003B697B607B685A007B68DB111343DBB2F4
:104658007B603A697B6853403B617B685A007B68A2
:10466800DB111343DBB27B603A697B6853403B61E3
:104678007B685A007B68DB111343DBB27B603A69C5
:104688007B6853403B617B685A007B68DB111343AE
:10469800DBB27B607B6883F063033A6953403B611C
:1046A8003B69D9B25F4A7B6913440A461A707B6931
:1046B800D9B25D4A3B6913440A461A707B690133D3
:1046C8007B617B69FF2BAFDD00237B6100E1554AED
:1046D8007B6913441B783B613B695B003A6902F0D4
:1046E8008002002A01D01B2200E000225340DBB2E6
:1046F8007B607A683B695340DBB23B603B691A02D6
:104708007B685A403B691B045A403B681B065A4069
:1047180046497B6941F82320444A7B6952F8233093
:104728004FEA336242497B6941F82320404A7B695A
:1047380052F823304FEA33623E497B6941F823201F
:104748003C4A7B6952F823304FEA33623A497B6925
:1047580041F82320344A7B6913441B783B613B6949
:10476800002B1AD0BB6838331A683B699B00B968BC
:104778000B441B681A44314B83FB02131344D911B1
:10478800D317C91A0B461B025B1AD11A0B469B009A
:10479800FA6813441B68184600E000203B69002BA8
:1047A8001AD0BB6824331A683B699B00B9680B446C
:1047B8001B681A44214B83FB02131344D911D317E6
:1047C800C91A0B461B025B1AD11A0B469B00FA68E2
:1047D80013441B681B0200E0002358403B69002B70
:1047E8002ED0BB6834331A683B699B00B9680B4408
:1047F8001B681A44114B83FB02131344D911D317B6
:10480800C91A0B461B025B1AD11A0B469B00FA68A1
:1048180013441B681B0414E0B81F0020B8230020B1
:10482800B8270020B8050020B8160020B8060020D8
:10483800B80A0020B80E0020B812002081808080BD
:10484800002358403B69002B1AD0BB682C331A68E8
:104858003B699B00B9680B441B681A44214B83FBD6
:1048680002131344D911D317C91A0B461B025B1A3A
:10487800D11A0B469B00FA6813441B681B0600E01C
:10488800002383EA000218497B6941F82320164A6D
:104898007B6952F823304FEA336214497B6941F847
:1048A8002320124A7B6952F823304FEA33621049B9
:1048B8007B6941F823200E4A7B6952F823304FEA7E
:1048C80033620C497B6941F823207B6901337B61A2
:1048D8007B69FF2B7FF7FBAE00BF1C37BD465DF839
:1048E800047B704781808080B8170020B81B0020A7
:1048F800B81F0020B823002080B582B000AF7860D0
:104908004FF48C720021786801F008F800BF08376E
:10491800BD4680BD80B586B000AFF860B9607A60EA
:10492800924B1B68002B04D1FFF72AFE8F4B012204
:104938001A607B68C02B08D0B3F5807F09D0802B24
:104948000BD1FB680A221A600AE0FB680C221A6085
:1049580006E0FB680E221A6002E06FF01F03A7E171
:10496800FB6808333B61FB683A695A6000237B6146
:1049780027E07B699B00BA6813441B7819467B695A
:104988009B000133BA6813441B781B0241EA0302F7
:104998007B699B000233B9680B441B781B0442EA0D
:1049A80003017B699B000333BA6813441B781A061A
:1049B8007B699B00386903440A431A607B690133A9
:1049C8007B617B685B097A699A42D2D3FB681B6872
:1049D8000C2B5CD00E2B00F0C5800A2B40F06781B1
:1049E80000237B614FE03B691A6861497B6951F894
:1049F800233053403A690C321268120AD2B25D4928
:104A08008A5C5A403B690C331B681B0CDBB2594962
:104A1800CB5C1B025A403B690C331B681B0E554983
:104A2800CB5C1B0482EA03013B690C331B68DBB2D5
:104A3800504AD35C1A063B6910334A401A603B69F6
:104A4800043319683B6910331A683B6914334A40C8
:104A58001A603B69083319683B6914331A683B6963
:104A680018334A401A603B690C3319683B6918339C
:104A78001A683B691C334A401A607B6901337B61C1
:104A88003B6910333B617B69092BACD90FE10023EB
:104A98007B6163E03B691A6835497B6951F82330CB
:104AA80053403A6914321268120AD2B231498A5C08
:104AB8005A403B6914331B681B0CDBB22D49CB5C95
:104AC8001B025A403B6914331B681B0E2949CB5CF7
:104AD8001B0482EA03013B6914331B68DBB2254AD5
:104AE800D35C1A063B6918334A401A603B690433A1
:104AF80019683B6918331A683B691C334A401A60C5
:104B08003B69083319683B691C331A683B692033D1
:104B18004A401A603B690C3319683B6920331A68AC
:104B28003B6924334A401A603B69103319683B6972
:104B380024331A683B6928334A401A603B691433A6
:104B480019683B6928331A683B692C334A401A6054
:104B58007B6901337B613B6918333B617B69072BB8
:104B680098D9A4E000237B619CE000BFE0270020E7
:104B7800B8270020B80500203B691A684E497B69B0
:104B880051F8233053403A691C321268120AD2B2E3
:104B98004A498A5C5A403B691C331B681B0CDBB2D0
:104BA8004649CB5C1B025A403B691C331B681B0EF1
:104BB8004249CB5C1B0482EA03013B691C331B6836
:104BC800DBB23E4AD35C1A063B6920334A401A607E
:104BD8003B69043319683B6920331A683B692433FD
:104BE8004A401A603B69083319683B6924331A68DC
:104BF8003B6928334A401A603B690C3319683B69A2
:104C080028331A683B692C334A401A603B691033D1
:104C18001B683A692C321268D2B228498A5C5A4019
:104C28003B692C331B681B0ADBB22449CB5C1B0293
:104C38005A403B692C331B681B0CDBB21F49CB5C09
:104C48001B0482EA03013B692C331B681B0E1B4AB9
:104C5800D35C1A063B6930334A401A603B69143307
:104C680019683B6930331A683B6934334A401A6023
:104C78003B69183319683B6934331A683B69383320
:104C88004A401A603B691C3319683B6938331A6813
:104C98003B693C334A401A607B6901337B613B695D
:104CA80020333B617B69062B7FF666AF00BF00238C
:104CB80018461837BD4680BDB8270020B805002023
:104CC80080B48FB000AFF860B9607A60FB685B6849
:104CD8003B63BB681B781A46BB6801331B781B0211
:104CE8001A43BB6802331B781B041A43BB6803339F
:104CF8001B781B061343FB623B6B1A1D3A631B6848
:104D0800FA6A5340FB62BB6804331B781A46BB68D7
:104D180005331B781B021A43BB6806331B781B0438
:104D28001A43BB6807331B781B061343BB623B6BF4
:104D38001A1D3A631B68BA6A5340BB62BB680833E2
:104D48001B781A46BB6809331B781B021A43BB68D9
:104D58000A331B781B041A43BB680B331B781B06EA
:104D680013437B623B6B1A1D3A631B687A6A534094
:104D78007B62BB680C331B781A46BB680D331B7803
:104D88001B021A43BB680E331B781B041A43BB680B
:104D98000F331B781B0613433B623B6B1A1D3A63A8
:104DA8001B683A6A53403B62FB681B685B10013B17
:104DB8007B63FAE03B6B1A1D3A631A68FB6ADBB245
:104DC800AC4951F823305A40BB6A1B0ADBB2AA49E6
:104DD80051F823305A407B6A1B0CDBB2A74951F8C3
:104DE80023305A403B6A1B0EA54951F823305340E3
:104DF800FB613B6B1A1D3A631A68BB6ADBB29D49BB
:104E080051F823305A407B6A1B0ADBB29A4951F8A1
:104E180023305A403B6A1B0CDBB2984951F82330C7
:104E28005A40FB6A1B0E964951F823305340BB6128
:104E38003B6B1A1D3A631A687B6ADBB28D4951F8DD
:104E480023305A403B6A1B0ADBB28B4951F82330A6
:104E58005A40FB6A1B0CDBB2884951F823305A4090
:104E6800BB6A1B0E864951F8233053407B613B6B6C
:104E78001A1D3A631A683B6ADBB27E4951F823303F
:104E88005A40FB6A1B0ADBB27B4951F823305A406F
:104E9800BB6A1B0CDBB2794951F823305A407B6A54
:104EA8001B0E774951F8233053403B613B6B1A1D69
:104EB8003A631A68FB69DBB26E4951F823305A40ED
:104EC800BB691B0ADBB26C4951F823305A407B6935
:104ED8001B0CDBB2694951F823305A403B691B0E61
:104EE800674951F823305340FB623B6B1A1D3A6304
:104EF8001A68BB69DBB25F4951F823305A407B69B5
:104F08001B0ADBB25C4951F823305A403B691B0C41
:104F1800DBB25A4951F823305A40FB691B0E5849F5
:104F280051F823305340BB623B6B1A1D3A631A6831
:104F38007B69DBB24F4951F823305A403B691B0A61
:104F4800DBB24D4951F823305A40FB691B0CDBB2E8
:104F58004A4951F823305A40BB691B0E484951F859
:104F6800233053407B623B6B1A1D3A631A683B69D6
:104F7800DBB2404951F823305A40FB691B0ADBB2C7
:104F88003D4951F823305A40BB691B0CDBB23B4901
:104F980051F823305A407B691B0E394951F82330A8
:104FA80053403B627B6B013B7B637B6B002B3FF782
:104FB80001AF3B6B1A1D3A631A68FB6ADBB22D49D5
:104FC80051F823305A40BB6A1B0ADBB22A4951F810
:104FD80023305A407B6A1B0CDBB2284951F8233036
:104FE8005A403B6A1B0E264951F823305340FB6157
:104FF8003B6B1A1D3A631A68BB6ADBB21D4951F84C
:1050080023305A407B6A1B0ADBB21B4951F8233014
:105018005A403B6A1B0CDBB2184951F823305A40FE
:10502800FB6A1B0E164951F823305340BB613B6B9A
:105038001A1D3A631A687B6ADBB20E4951F82330AD
:105048005A403B6A1B0ADBB20B4951F823305A40DD
:10505800FB6A1B0CDBB2094951F823305A40BB6A82
:105068001B0E074951F8233053407B613B6B1A1DD7
:1050780008E000BFB8060020B80A0020B80E0020DB
:10508800B81200203A631A683B6ADBB2794951F8D2
:1050980023305A40FB6A1B0ADBB2774951F82330A8
:1050A8005A40BB6A1B0CDBB2744951F823305A4092
:1050B8007B6A1B0E724951F8233053403B613B6BAE
:1050C8001A1D3A631B68FA69D2B26E498A5C5A4063
:1050D800BB691B0ADBB26B49CB5C1B025A407B697C
:1050E8001B0CDBB26749CB5C1B045A403B691B0EA7
:1050F8006449CB5C1B065340FB623B6B1A1D3A6349
:105108001B68BA69D2B25F498A5C5A407B691B0A3C
:10511800DBB25C49CB5C1B025A403B691B0CDBB21F
:105128005849CB5C1B045A40FB691B0E5549CB5CA4
:105138001B065340BB623B6B1A1D3A631B687A69B6
:10514800D2B250498A5C5A403B691B0ADBB24D49CE
:10515800CB5C1B025A40FB691B0CDBB24949CB5C98
:105168001B045A40BB691B0E4649CB5C1B065340C7
:105178007B623B6B1A1D3A631B683A69D2B241499C
:105188008A5C5A40FB691B0ADBB23E49CB5C1B02B6
:105198005A40BB691B0CDBB23A49CB5C1B045A4032
:1051A8007B691B0E3749CB5C1B0653403B62FB6A8D
:1051B800DAB27B681A70FB6A1A0A7B680133D2B2CA
:1051C8001A70FB6A1A0C7B680233D2B21A70FB6A37
:1051D8001A0E7B680333D2B21A707B680433BA6A3A
:1051E800D2B21A70BB6A1A0A7B680533D2B21A7037
:1051F800BB6A1A0C7B680633D2B21A70BB6A1A0EE5
:105208007B680733D2B21A707B6808337A6AD2B2E5
:105218001A707B6A1A0A7B680933D2B21A707B6AE1
:105228001A0C7B680A33D2B21A707B6A1A0E7B6832
:105238000B33D2B21A707B680C333A6AD2B21A7046
:105248003B6A1A0A7B680D33D2B21A703B6A1A0C91
:105258007B680E33D2B21A703B6A1A0E7B680F3322
:10526800D2B21A70002318463C37BD465DF8047B5D
:10527800704700BFB8060020B80A0020B80E00200A
:10528800B8120020B805002080B48FB000AFF860D5
:10529800B9607A60FB685B683B63BB681B781A4639
:1052A800BB6801331B781B021A43BB6802331B78A7
:1052B8001B041A43BB6803331B781B061343FB62AA
:1052C8003B6B1A1D3A631B68FA6A5340FB62BB6862
:1052D80004331B781A46BB6805331B781B021A4334
:1052E800BB6806331B781B041A43BB6807331B785B
:1052F8001B061343BB623B6B1A1D3A631B68BA6AF1
:105308005340BB62BB6808331B781A46BB68093335
:105318001B781B021A43BB680A331B781B041A4309
:10532800BB680B331B781B0613437B623B6B1A1D50
:105338003A631B687A6A53407B62BB680C331B78FC
:105348001A46BB680D331B781B021A43BB680E3321
:105358001B781B041A43BB680F331B781B061343C7
:105368003B623B6B1A1D3A631B683A6A53403B62C7
:10537800FB681B685B10013B7B63FAE03B6B1A1D03
:105388003A631A68FB6ADBB2AC4951F823305A40D9
:105398003B6A1B0ADBB2AA4951F823305A407B6AA0
:1053A8001B0CDBB2A74951F823305A40BB6A1B0ECD
:1053B800A54951F823305340FB613B6B1A1D3A63F2
:1053C8001A68BB6ADBB29D4951F823305A40FB6A20
:1053D8001B0ADBB29A4951F823305A403B6A1B0C2E
:1053E800DBB2984951F823305A407B6A1B0E964924
:1053F80051F823305340BB613B6B1A1D3A631A685E
:105408007B6ADBB28D4951F823305A40BB6A1B0ACC
:10541800DBB28B4951F823305A40FB6A1B0CDBB2D4
:10542800884951F823305A403B6A1B0E864951F887
:10543800233053407B613B6B1A1D3A631A683B6A01
:10544800DBB27E4951F823305A407B6A1B0ADBB233
:105458007B4951F823305A40BB6A1B0CDBB27949AF
:1054680051F823305A40FB6A1B0E774951F8233014
:1054780053403B613B6B1A1D3A631A68FB69DBB208
:105488006E4951F823305A403B691B0ADBB26C491C
:1054980051F823305A407B691B0CDBB2694951F83B
:1054A80023305A40BB691B0E674951F823305340DB
:1054B800FB623B6B1A1D3A631A68BB69DBB25F4932
:1054C80051F823305A40FB691B0ADBB25C4951F89A
:1054D80023305A403B691B0CDBB25A4951F8233040
:1054E8005A407B691B0E584951F823305340BB6220
:1054F8003B6B1A1D3A631A687B69DBB24F4951F856
:1055080023305A40BB691B0ADBB24D4951F823309E
:105518005A40FB691B0CDBB24A4951F823305A4008
:105528003B691B0E484951F8233053407B623B6B63
:105538001A1D3A631A683B69DBB2404951F82330B7
:105548005A407B691B0ADBB23D4951F823305A4067
:10555800BB691B0CDBB23B4951F823305A40FB694D
:105568001B0E394951F8233053403B627B6B013B9A
:105578007B637B6B002B3FF701AF3B6B1A1D3A63D4
:105588001A68FB6ADBB22D4951F823305A403B6A4E
:105598001B0ADBB22A4951F823305A407B6A1B0C9C
:1055A800DBB2284951F823305A40BB6A1B0E264902
:1055B80051F823305340FB613B6B1A1D3A631A685C
:1055C800BB6ADBB21D4951F823305A40FB6A1B0AFB
:1055D800DBB21B4951F823305A403B6A1B0CDBB243
:1055E800184951F823305A407B6A1B0E164951F866
:1055F80023305340BB613B6B1A1D3A631A687B6AC0
:10560800DBB20E4951F823305A40BB6A1B0ADBB2A1
:105618000B4951F823305A40FB6A1B0CDBB209498D
:1056280051F823305A403B6A1B0E074951F8233082
:1056380053407B613B6B1A1D08E000BFB817002080
:10564800B81B0020B81F0020B82300203A631A684E
:105658003B6ADBB2794951F823305A407B6A1B0A0E
:10566800DBB2774951F823305A40BB6A1B0CDBB2D6
:10567800744951F823305A40FB6A1B0E724951F89D
:10568800233053403B613B6B1A1D3A631B68FA6930
:10569800D2B26E498A5C5A403B691B0ADBB26B493D
:1056A800CB5C1B025A407B691B0CDBB26749CB5CA5
:1056B8001B045A40BB691B0E6449CB5C1B06534054
:1056C800FB623B6B1A1D3A631B68BA69D2B25F4929
:1056D8008A5C5A40FB691B0ADBB25C49CB5C1B0243
:1056E8005A403B691B0CDBB25849CB5C1B045A403F
:1056F8007B691B0E5549CB5C1B065340BB623B6B59
:105708001A1D3A631B687A69D2B250498A5C5A40BA
:10571800BB691B0ADBB24D49CB5C1B025A40FB69D3
:105728001B0CDBB24949CB5C1B045A403B691B0E7E
:105738004649CB5C1B0653407B623B6B1A1D3A63A0
:105748001B683A69D2B241498A5C5A407B691B0A94
:10575800DBB23E49CB5C1B025A40BB691B0CDBB277
:105768003A49CB5C1B045A40FB691B0E3749CB5C9A
:105778001B0653403B62FB6ADAB27B681A70FB6A0D
:105788001A0A7B680133D2B21A70FB6A1A0C7B685A
:105798000233D2B21A70FB6A1A0E7B680333D2B294
:1057A8001A707B680433BA6AD2B21A70BB6A1A0AD2
:1057B8007B680533D2B21A70BB6A1A0C7B68063351
:1057C800D2B21A70BB6A1A0E7B680733D2B21A704B
:1057D8007B6808337A6AD2B21A707B6A1A0A7B68C5
:1057E8000933D2B21A707B6A1A0C7B680A33D2B2B8
:1057F8001A707B6A1A0E7B680B33D2B21A707B68F8
:105808000C333A6AD2B21A703B6A1A0A7B680D33B3
:10581800D2B21A703B6A1A0C7B680E33D2B21A7075
:105828003B6A1A0E7B680F33D2B21A7000231846EF
:105838003C37BD465DF8047B704700BFB8170020B1
:10584800B81B0020B81F0020B8230020B81600207D
:1058580080B584B000AFF860B9607A603B60BB681F
:10586800012B06D13A687968F868FFF729FA0346E8
:1058780005E03A687968F868FFF706FD03461846B8
:105888001037BD4680BD0000002103E00B4B5B587C
:10589800435004310A480B4B42189A42F6D30A4A3D
:1058A80002E0002313600432084B9A42F9D3AFF3A5
:1058B800008000F00FF8FBF74FFAFEE7205B0008C6
:1058C80000000020640400206404002090290020C7
:1058D800FEE7000070B50D4E0D4D761BB61006D0D4
:1058E8000024013455F8043B9847A642F9D1094EE3
:1058F800094D761B00F0EAF8B61006D000240134F2
:1059080055F8043B9847A642F9D170BD145B0008CE
:10591800145B00081C5B0008145B0008F0B48607E1
:1059280043D0541E002A3ED0CAB2034602E014F106
:10593800FF3438D303F8012B9D07F8D1032C2BD95A
:10594800CDB245EA05250F2C45EA054516D9A4F13F
:1059580010073F0903F1200606EB071603F11002B2
:1059680042E9045542E902551032B242F8D104F036
:105978000F040137032C03EB07130DD91E462246EB
:10598800043A032A46F8045BFAD8221F22F00302DD
:105998000432134404F003042CB1C9B21C4403F8C4
:1059A800011B9C42FBD1F0BC704714460346C5E777
:1059B800024B13B1024800F005B870470000000020
:1059C800D9590008002301461A46184600F01EB8A7
:1059D80038B50A4C0A4D641BA4100AD004F1804360
:1059E800013B05EB8305013C55F804399847002C29
:1059F800F9D1BDE8384000F06FB800BF205B00085F
:105A08001C5B0008704700BF704700BF2DE9F843D2
:105A18002B4D0646286898460F469146FFF7F2FF39
:105A2800284B1C68D4F84831002B3DD05A681F2AEF
:105A38000DDC02F1010C16BB0232C3F804C0286861
:105A480043F82270FFF7E0FF0020BDE8F8831E4B03
:105A58007BB34FF4C870AFF30080034648B3D4F863
:105A680048210021C0E900214FF0010CC4F8480189
:105A78000A46C0F88811C0F88C11002EDCD003EB60
:105A880082010124C1F88890D3F88801944020430A
:105A9800022EC3F88801C1F80881CDD1D3F88C1142
:105AA8000C43C3F88C41C7E704F5A673C4F8483122
:105AB800BCE72868FFF7A8FF4FF0FF30C5E700BF35
:105AC80060040020105B000800000000F8B500BF6B
