:020000040800F2
:1000000000300020054000084D4000084D40000829
:100010004D4000084D4000084D4000080000000021
:100020000000000000000000000000004D4000083B
:100030004D400008000000004D4000084D40000801
:1000400000000000000000000000000000000000B0
:1000500000000000000000000000000000000000A0
:100060000000000000000000000000000000000090
:100070000000000000000000000000000000000080
:100080000000000000000000000000000000000070
:100090000000000000000000000000000000000060
:1000A0000000000000000000000000000000000050
:1000B0000000000000000000000000000000000040
:1000C0000000000000000000000000000000000030
:1000D0000000000000000000000000000000000020
:1000E0000000000000000000000000000000000010
:1000F0000000000000000000000000000000000000
:1001000000000000000000000000000000000000EF
:1001100000000000000000000000000000000000DF
:1001200000000000000000000000000000000000CF
:1001300000000000000000000000000000000000BF
:1001400000000000000000000000000000000000AF
:10015000000000000000000000000000000000009F
:10016000000000000000000000000000000000008F
:10017000000000000000000000000000000000007F
:08018000000000000000000077
:1001880010B5054C237833B9044B13B10448AFF3C9
:1001980000800123237010BD6404002000000000CB
:1001A8004842000808B5034B1BB103490348AFF3A5
:1001B800008008BD000000006804002048420008D4
:1001C80081F0004102E000BF83F0004330B54FEA00
:1001D80041044FEA430594EA050F08BF90EA020F6D
:1001E8001FBF54EA000C55EA020C7FEA645C7FEA00
:1001F800655C00F0E2804FEA5454D4EB5555B8BF23
:100208006D420CDD2C4480EA020281EA030382EA93
:10021800000083EA010180EA020281EA0303362D25
:1002280088BF30BD11F0004F4FEA01314FF4801CF8
:100238004CEA113102D0404261EB410113F0004F0A
:100248004FEA03334CEA133302D0524263EB4303C1
:1002580094EA050F00F0A780A4F10104D5F1200E5F
:100268000DDB02FA0EFC22FA05F2801841F10001BA
:1002780003FA0EF2801843FA05F359410EE0A5F18E
:1002880020050EF1200E012A03FA0EFC28BF4CF0BF
:10029800020C43FA05F3C01851EBE37101F0004575
:1002A80007D54FF0000EDCF1000C7EEB00006EEB82
:1002B8000101B1F5801F1BD3B1F5001F0CD349080C
:1002C8005FEA30004FEA3C0C04F101044FEA445263
:1002D80012F5800F80F09A80BCF1004F08BF5FEAEA
:1002E800500C50F1000041EB045141EA050130BDCA
:1002F8005FEA4C0C404141EB010111F4801FA4F16D
:100308000104E9D191F0000F04BF01460020B1FAC1
:1003180081F308BF2033A3F10B03B3F120020CDAF9
:100328000C3208DD02F1140CC2F10C0201FA0CF0D7
:1003380021FA02F10CE002F11402D8BFC2F1200C3C
:1003480001FA02F120FA0CFCDCBF41EA0C019040F2
:10035800E41AA2BF01EB0451294330BD6FEA04043B
:100368001F3C1CDA0C340EDC04F11404C4F1200226
:1003780020FA04F001FA02F340EA030021FA04F338
:1003880045EA030130BDC4F10C04C4F1200220FA8F
:1003980002F001FA04F340EA0300294630BD21FACD
:1003A80004F0294630BD94F0000F83F4801306BF93
:1003B80081F480110134013D4EE77FEA645C18BF87
:1003C8007FEA655C29D094EA050F08BF90EA020F1E
:1003D80005D054EA000C04BF1946104630BD91EA16
:1003E800030F1EBF0021002030BD5FEA545C05D119
:1003F8004000494128BF41F0004130BD14F5800458
:100408003CBF01F5801130BD01F0004545F0FE41CB
:1004180041F470014FF0000030BD7FEA645C1ABF00
:10042800194610467FEA655C1CBF0B46024650EA37
:10043800013406BF52EA033591EA030F41F4002163
:1004480030BD00BF90F0000F04BF0021704730B5E9
:100458004FF4806404F132044FF000054FF00001BE
:1004680050E700BF90F0000F04BF0021704730B57F
:100478004FF4806404F1320410F0004548BF404254
:100488004FF000013EE700BF42004FEAE2014FEAA9
:1004980031014FEA02701FBF12F07F4393F07F4F84
:1004A80081F06051704732F07F4208BF704793F087
:1004B8007F4F04BF41F40021704730B54FF460749A
:1004C80001F0004521F000411CE700BF50EA01029D
:1004D80008BF704730B54FF000050AE050EA010246
:1004E80008BF704730B511F0004502D5404261EBB6
:1004F80041014FF4806404F132045FEA915C3FF4F7
:10050800D8AE4FF003025FEADC0C18BF03325FEA93
:10051800DC0C18BF033202EBDC02C2F1200300FA44
:1005280003FC20FA02F001FA03FE40EA0E0021FA69
:1005380002F11444BDE600BF70B54FF0FF0C4CF457
:10054800E06C1CEA11541DBF1CEA135594EA0C0F09
:1005580095EA0C0F00F0DEF82C4481EA030621EA44
:100568004C5123EA4C5350EA013518BF52EA03357F
:1005780041F4801143F4801338D0A0FB02CE4FF031
:100588000005E1FB02E506F00042E0FB03E54FF061
:100598000006E1FB03569CF0000F18BF4EF0010E59
:1005A800A4F1FF04B6F5007F64F5407404D25FEA55
:1005B8004E0E6D4146EB060642EAC62141EA555108
:1005C8004FEAC52040EA5E504FEACE2EB4F1FD0C4A
:1005D80088BFBCF5E06F1ED8BEF1004F08BF5FEAC8
:1005E800500E50F1000041EB045170BD06F000467A
:1005F80046EA010140EA020081EA0301B4EB5C0427
:10060800C2BFD4EB0C0541EA045170BD41F480111E
:100618004FF0000E013C00F3AB8014F1360FDEBF43
:10062800002001F0004170BDC4F10004203C35DA1F
:100638000C341BDC04F11404C4F1200500FA05F3A2
:1006480020FA04F001FA05F240EA020001F0004243
:1006580021F0004110EBD37021FA04F642EB0601B9
:100668005EEA430E08BF20EAD37070BDC4F10C04E3
:10067800C4F1200500FA04F320FA05F001FA04F2A7
:1006880040EA020001F0004110EBD37041F1000193
:100698005EEA430E08BF20EAD37070BDC4F120059E
:1006A80000FA05F24EEA020E20FA04F301FA05F206
:1006B80043EA020321FA04F001F0004121FA04F2AE
:1006C80020EA020000EBD3705EEA430E08BF20EA7E
:1006D800D37070BD94F0000F0FD101F000464000B8
:1006E80041EB010111F4801F08BF013CF7D041EA3A
:1006F800060195F0000F18BF704703F0004652003E
:1007080043EB030313F4801F08BF013DF7D043EA0E
:100718000603704794EA0C0F0CEA135518BF95EAC4
:100728000C0F0CD050EA410618BF52EA4306D1D14B
:1007380081EA030101F000414FF0000070BD50EA6A
:10074800410606BF1046194652EA430619D094EAF4
:100758000C0F02D150EA013613D195EA0C0F05D1DE
:1007680052EA03361CBF104619460AD181EA030132
:1007780001F0004141F0FE4141F470014FF00000EA
:1007880070BD41F0FE4141F4780170BD70B54FF085
:10079800FF0C4CF4E06C1CEA11541DBF1CEA135505
:1007A80094EA0C0F95EA0C0F00F0A7F8A4EB0504E7
:1007B80081EA030E52EA03354FEA013100F08880DE
:1007C8004FEA03334FF0805545EA131343EA1263A7
:1007D8004FEA022245EA111545EA10654FEA00265C
:1007E8000EF000419D4208BF964244F1FD0404F515
:1007F800407402D25B084FEA3202B61A65EB030571
:100808005B084FEA32024FF480104FF4002CB6EB2D
:10081800020E75EB030E22BFB61A754640EA0C00AD
:100828005B084FEA3202B6EB020E75EB030E22BFED
:10083800B61A754640EA5C005B084FEA3202B6EB2E
:10084800020E75EB030E22BFB61A754640EA9C00ED
:100858005B084FEA3202B6EB020E75EB030E22BFBD
:10086800B61A754640EADC0055EA060E18D04FEA7B
:10087800051545EA16754FEA06164FEAC30343EA1B
:1008880052734FEAC2025FEA1C1CC0D111F4801FE8
:100898000BD141EA00014FF000004FF0004CB6E7E1
:1008A80011F4801F04BF01430020B4F1FD0C88BF80
:1008B800BCF5E06F3FF6AFAEB5EB030C04BFB6EB8B
:1008C800020C5FEA500C50F1000041EB045170BD7E
:1008D8000EF0004E4EEA113114EB5C04C2BFD4EBAB
:1008E8000C0541EA045170BD41F480114FF0000E2F
:1008F800013C90E645EA060E8DE60CEA135594EAAB
:100908000C0F08BF95EA0C0F3FF43BAF94EA0C0FAD
:100918000AD150EA01347FF434AF95EA0C0F7FF422
:1009280025AF104619462CE795EA0C0F06D152EA76
:1009380003353FF4FDAE1046194622E750EA41065A
:1009480018BF52EA43067FF4C5AE50EA41047FF46B
:100958000DAF52EA43057FF4EBAE12E74FF0FF3CD0
:1009680006E000BF4FF0010C02E000BF4FF0010CA1
:100978004DF804CD4FEA410C7FEA6C5C4FEA430C1A
:1009880018BF7FEA6C5C1BD001B050EA410C0CBF69
:1009980052EA430C91EA030F02BF90EA020F0020CB
:1009A800704710F1000F91EA030F58BF994208BF32
:1009B80090422CBFD8176FEAE37040F001007047EF
:1009C8004FEA410C7FEA6C5C02D150EA013C07D146
:1009D8004FEA430C7FEA6C5CD6D152EA033CD3D091
:1009E8005DF8040B704700BF8446104662468C468B
:1009F8001946634600E000BF01B5FFF7B7FF0028BE
:100A080048BF10F1000F01BD4DF808EDFFF7F4FFE6
:100A18000CBF012000205DF808FB00BF4DF808ED71
:100A2800FFF7EAFF34BF012000205DF808FB00BF94
:100A38004DF808EDFFF7E0FF94BF012000205DF8B6
:100A480008FB00BF4DF808EDFFF7CEFF94BF01206B
:100A580000205DF808FB00BF4DF808EDFFF7C4FF64
:100A680034BF012000205DF808FB00BF4A0011D206
:100A780012F5001211D20DD56FF47873B3EB6252F0
:100A88000ED44FEAC12343F0004343EA505323FAFC
:100A980002F070474FF00000704750EA013002D171
:100AA8004FF0FF3070474FF00000704708B500F076
:100AB800DBF800F0F3F801F0BBF800F02DF902F0D4
:100AC80079F8BDE8084001F08BB900BF00000000CC
:100AD8002DE9F047304B93E8070088B00DF1080A7C
:100AE8008AE8070028A5D5E9004529A7D7E90067BE
:100AF80000230DF10200ADF8023001F0D9F9002809
:100B0800F6D10190019B41F28732934205D8019BAF
:100B180001330193019B9342F9D9BDF80200FFF715
:100B2800A1FC22462B4680468946FFF777FF38BB53
:100B380022462B4640464946FFF746FB32463B468F
:100B4800FFF724FE0022154BFFF7F6FCFFF78EFF98
:100B580080B2C2B2030A5146ADF8020005A88DF86A
:100B680011308DF8102000F021F8082206A9059808
:100B780001F0C6F8029B0133C3F311030293B7E7F0
:100B880000231A461846E6E746175D74D19F984039
:100B980000000000007CA540604200080000B04052
:100BA80008B5FFF783FFFFF793FF00BF2DE9F0417A
:100BB8000C46D1E9003188B000228DF802301E0CB5
:100BC8000D0A1B0A01928DF800608DF801308DF82E
:100BD8000350E8468DF80410064698E80300204DB7
:100BE80005928DF81410059B29686F68D4F808C021
:100BF80048407B40E9680593AB68049081EA0C01A2
:100C0800CDE90631CDE9022200F0AAF805F110007D
:100C180001F0D6FF404601F0DBFF05F1200001F0AE
:100C2800CFFF04A801F0D4FF00F0A2F8DDE90272BA
:100C3800D4E90005A168049C0A4B79406240CDE9DB
:100C48000212344602AAC5F30A0503EAC0232B435D
:100C580003CA44F8043B7060616008B0BDE8F081E5
:100C68000000002000F8FF1F10B590B000240322F8
:100C78004FF4A02306A8CDE906230A940E9400F0A9
:100C880087F80F220123052101A8CDE90344059423
:100C9800CDE9012300F04EFC10B010BD30B50322A1
:100CA80089B04FF4C06502200121CDE90350CDE998
:100CB8000512164C07230793636943F400336361F5
:100CC800636903F40033019303A94FF09040019B3B
:100CD80000F02AFD0E4B0F4A1A60A26942F48042C6
:100CE800A261A26902F4804202920C2100224FF410
:100CF80016441846029D5C605961C3E902221A61D4
:100D08009A6100F0F3FD09B030BD00BF0010024049
:100D1800E427002000380140104B70B55A6942F4AE
:100D280000325A615B6986B003F4003300934FF4D4
:100D3800805403230122002501A94FF09040CDE9FA
:100D48000142CDE90353009E00F0EEFC2A462146FD
:100D58004FF0904000F0C4FD06B070BD0010024096
:100D680001224FF480514FF0904000F0B9BD00BF10
:100D780000224FF480514FF0904000F0B1BD00BF09
:100D8800024B1868421C1A60704700BF800400209C
:100D98002DE9F0430368DA0783B04CD59C494A68CB
:100DA80002F00C02042A00F09E814A6802F00C024C
:100DB800082A00F094814468B4F5803F00F0B782B7
:100DC800002C00F0C182924BB4F5A02F1A6800F0F5
:100DD8009B8322F480321A601A6822F480221A60F7
:100DE8008B4E8268F36A8B4923F00F031343F36237
:100DF8000F687A1C0A6066374FF0000E4FF4003413
:100E08004FF0010C05E00132BA424FF0010E00F03C
:100E1800858394FAA4F3356894FAA4F3B3FA83F3B8
:100E280003F01F030CFA03F32B42ECD0BEF1000FC2
:100E380040F07A8303689E075AD5754A516811F0C5
:100E48000C0F00F0F481516801F00C01082900F042
:100E5800EA8103690124002B00F0DB8294FAA4F2F2
:100E6800B2FA82F202F1845202F5841292006949C0
:100E780014600D682B190B60022393FAA3F2644ED9
:100E8800376893FAA3F2B2FA82F202F01F0204FA68
:100E980002F23A421ED1EF1893FAA3F2D6F800C034
:100EA80093FAA3F2B2FA82F202F01F0204FA02F2F3
:100EB80012EA0C0F0DD1EF1C93FAA3F2326893FAE1
:100EC800A3F3B3FA83F303F01F0304FA03F3134203
:100ED8005BD00F604E4CF822216892FAA2F2436967
:100EE800B2FA82F221F0F80193400B4323600368C1
:100EF8001C074FD585690124002D40F0AF8194FA75
:100F0800A4F2454B4349B2FA82F213449A000223F1
:100F180015600D682A190A6093FAA3F293FAA3F2EE
:100F280093FAA3F23A4E776A93FAA3F2B2FA82F2EC
:100F380002F01F0204FA02F23A4200F0D681EF18DA
:100F480093FAA3F293FAA3F293FAA3F2D6F824C081
:100F580093FAA3F2B2FA82F202F01F0204FA02F242
:100F680012EA0C0F14D0EF1C93FAA3F293FAA3F22F
:100F780093FAA3F2726A93FAA3F3B3FA83F303F032
:100F88001F0304FA03F3134202D004350D60A2E0F4
:100F980003680F6059074FD51D4BDA69D20040F13D
:100FA800A9814FF000091D4E1A4934680D6814F4E0
:100FB800807405F1010217D1336843F480733360FC
:100FC80005F1660C0A60134605E0013363454FF0EE
:100FD800010400F0A1823768FF05F6D5002C40F027
:100FE8009F82AB1C15461A46C668012E00F0508237
:100FF800002E00F0DD81064B052E1C6A00F076827B
:1010080024F001041C621C6A24F004041C6244E2FB
:1010180000100240800400202081901000700040E1
:10102800BEF1000F00D00A60B9F1000F04D0C34A26
:10103800D36923F08053D361C369002B00F0EF809C
:10104800BE4C626802F00C02082A00F00381022BF1
:101058004FF080735ED093FAA3F3B3FA83F303F1EE
:10106800845303F584139B00B54900221A6008686D
:10107800431C0B604FF0007393FAA3F2266893FAAF
:10108800A3F2B2FA82F202F01F02012505FA02F277
:10109800324200F0C480861C93FAA3F2276893FAC0
:1010A800A3F2B2FA82F202F01F0205FA02F23A4201
:1010B80000F0B480C61C93FAA3F2226893FAA3F353
:1010C800B3FA83F303F01F0305FA03F3134200F0A6
:1010D800A58004300860032003B0BDE8F0834A68A7
:1010E800D7037FF568AE4FF4003292FAA2F1934924
:1010F8000C6892FAA2F2B2FA82F202F01F020121FF
:1011080001FA02F222423FF496AE4268002A7FF4C6
:1011180092AE9FE093FAA3F3B3FA83F303F18453F7
:1011280003F584139B00864900221A600D686B1C26
:101138000B604FF0007393FAA3F2276893FAA3F2B7
:10114800B2FA82F202F01F02012606FA02F23A42CD
:101158001FD0AF1C93FAA3F2D4F800C093FAA3F2FD
:10116800B2FA82F202F01F0206FA02F212EA0C0F39
:101178000ED0EF1C93FAA3F2226893FAA3F3B3FA02
:1011880083F303F01F0306FA03F313427FF4FDAE63
:101198000F606A4C436A6268006A22F4741203435F
:1011A800134363604FF0807393FAA3F3B3FA83F3A6
:1011B80003F1845303F584139B00012018600D6824
:1011C8002B180B604FF0007393FAA3F2266893FA7A
:1011D800A3F2B2FA82F202F01F0200FA02F23242DD
:1011E8001DD1AE1C93FAA3F2276893FAA3F2B2FAC0
:1011F80082F202F01F0200FA02F23A420ED1EE1C0D
:1012080093FAA3F2226893FAA3F3B3FA83F303F0F1
:101218001F0300FA03F313423FF4B7AE0E60002039
:1012280003B0BDE8F0835268D5033FF512AE022241
:1012380092FAA2F141490C6892FAA2F2B2FA82F249
:1012480002F01F02012101FA02F222425ED0026975
:101258008A425BD0012003B0BDE8F08394FAA4F27F
:10126800384B3749B2FA82F213449A0002231460C9
:101278000D682A190A6093FAA3F293FAA3F293FA73
:10128800A3F22E4E776A93FAA3F2B2FA82F202F030
:101298001F0204FA02F23A4227D1EF1893FAA3F296
:1012A80093FAA3F293FAA3F2D6F824C093FAA3F21E
:1012B800B2FA82F202F01F0204FA02F212EA0C0FEA
:1012C80012D1EF1C93FAA3F293FAA3F293FAA3F2C2
:1012D800726A93FAA3F3B3FA83F303F01F0304FAD1
:1012E80003F313423FF451AE0F60036859077FF5CB
:1012F800A3AE51E6DA6942F08052DA61DB6903F0A5
:1013080080530193019B4FF001094CE60B4DF821E6
:101318002C6891FAA1F14269B1FA81F124F0F8043C
:101328008A4022431C072A607FF534AEE2E5034A6F
:10133800136843F48033136052E500BF0010024085
:101348008004002020819010784F79493A6822F46F
:1013580080323A603A6822F480223A60FA6A8568F4
:1013680022F00F022A43FA620E68721CA4460A6031
:1013780066364FF400344FF0010E05E00132B242F8
:101388004FF0010C00F0CA8094FAA4F33D6894FA77
:10139800A4F3B3FA83F303F01F030EFA03F32B420B
:1013A800ECD10368BCF1000F3FF445AD0A6042E59B
:1013B8005E4F3B6A23F001033B623B6A23F0040360
:1013C8003B62ED430A6002244FF0010E41F2883877
:1013D80016E094FAA4F3D7F824C094FAA4F3B3FA65
:1013E80083F303F01F030EFA03F313EA0C0F00F064
:1013F80085800132AB1843454FF0010600F28E801C
:1014080094FAA4F394FAA4F3002BE2D0D7F820C0FE
:10141800E3E794FAA4F2B2FA82F202F1845202F5F6
:1014280084129200424913600D682B190B60022345
:1014380093FAA3F23D4E376893FAA3F2B2FA82F216
:1014480002F01F0204FA02F23A425BD0EF1893FA54
:10145800A3F2D6F800C093FAA3F2B2FA82F202F02D
:101468001F0204FA02F212EA0C0F0ED0EF1C93FAD4
:10147800A3F2326893FAA3F3B3FA83F303F01F03DA
:1014880004FA03F313427FF480AD03680F602FE57D
:10149800264C236A43F0010323620A60ED434FF0B0
:1014A800000E0224DFF884C0012741F2883814E0D6
:1014B80094FAA4F3DCF8246094FAA4F3B3FA83F35F
:1014C80003F01F0307FA03F333427FF4A9AD013297
:1014D800AB1843454FF0010E20D894FAA4F394FAC0
:1014E800A4F3002BE4D0DCF82060E5E744F0040422
:1014F8001C621C6A44F001041C62CEE7002E3FF413
:1015080093AD90E50368F3E442F480221A601A6808
:1015180042F480321A6063E40B60DCE50A60DAE5C5
:101528000B605A1C1D465FE50A6083E40010024008
:1015380080040020774A136803F007038B420BD21C
:10154800136823F007030B431360136803F00703C2
:101558008B4201D0012070470368F0B49D0706D57F
:101568006D4C8568626822F0F0022A436260DC07ED
:1015780032D54568012D00F09780022D65D00222F2
:1015880092FAA2F4644C276892FAA2F2B2FA82F2B2
:1015980002F01F02012606FA02F23A422CD06268D3
:1015A8005E4E22F003022A43626037687A1C07F510
:1015B8009C5732600A374FF0000C05E00132974221
:1015C8004FF0010C00F0A080656815F00C0FF5D104
:1015D800BCF1000F00D032604E4C226802F00702C6
:1015E8008A420CD9226822F007020A432260226844
:1015F80002F007028A4202D00120F0BC70475A0765
:1016080006D54549C4684A6822F4E06222434A6024
:101618001B0707D5404A0169536823F4605343EA1E
:10162800C10353603C4BF0225B6892FAA2F2B2FA13
:1016380082F203F0F003D34039493A4AC95C13688F
:10164800CB4000201360F0BC70474FF0007292FA54
:10165800A2F4314D2E6892FAA2F2B2FA82F202F0A6
:101668001F02012404FA02F23242C5D06A682B4EE6
:1016780022F0030242F002026A6037687C1C07F518
:101688009C5734600A374FF0000C04E00134A7423D
:101698004FF0010C38D06A6802F00C02082AF5D124
:1016A800BCF1000F98D02DE04FF4003292FAA2F46A
:1016B800194F3C6892FAA2F2B2FA82F202F01F02C3
:1016C80005FA02F2224297D07A68144E22F00302F9
:1016D80042F001027A603268541C02F59C5C3D4677
:1016E80034600CF10A0C002704E00134A4454FF0E3
:1016F80001070CD06A6802F00C02042AF5D1002F09
:101708003FF46AAF346067E73760032075E7C6F8CF
:1017180000C0FAE7002002400010024080040020C8
:101728006C42000830000020D1F800C0BCF1000F66
:1017380000F0C3802DE9F04FDFF8A0E183B08846C0
:1017480000254FF0010909FA05F212EA0C0670D0DB
:10175800D8F8041021F0100ABAF1020F70D06F0007
:101768000323D0F800B0BB40DB4301F0030403EAD5
:101778000B0BBC400AF1FF3A44EA0B04BAF1010F23
:1017880004607ED9C468D8F808202340BA401A43B8
:10179800CF00C2604DD54C4A936943F00103936171
:1017A800936925F0030202F1804203F0010302F578
:1017B8008032019305F00303019C94689B000F2776
:1017C8009F40B0F1904F24EA070410D03F4FB84231
:1017D8006FD03F4FB84267D03E4FB8426ED03E4FB1
:1017E800B8420CBF0427052707FA03F31C4394608B
:1017F800DEF80030F243CC0354BF13403343CEF835
:101808000030DEF804308F0354BF13403343CEF862
:101818000430DEF80830CC0254BF13403343CEF80E
:101828000830DEF80C30890254BF13403343CEF839
:101838000C3001353CFA05F385D103B0BDE8F08FD3
:10184800EF0800EB870705F007043B6AA4004FF098
:101858000F0A0AFA04FB23EA0B0AD8F81030A3404F
:1018680043EA0A033B626F000323D0F800A0BB40A1
:10187800DB4301F0030403EA0A0ABC4044EA0A0411
:101888000460846804EA030AD8F80C40BC4044EABF
:101898000A048460D0F804A0C1F300142AEA020202
:1018A800AC40144344606DE7022707FA03F31C4376
:1018B8009DE709FA03F31C4399E77047032707FAE2
:1018C80003F31C4393E700BF0010024000040048E4
:1018D80000080048000C00480010004800040140BF
:1018E8000AB9816270478161704700BF002800F023
:1018F800288190F86930F0B4024603F0FF01002B0C
:101908003BD01368D469242182F86910186891685B
:10191800D2E9046520F001001860186831432943B2
:1019280020F4164020F00C00214301431960586848
:10193800D5689169166A20F4405028435860986821
:10194800B24D20F4306031430143AB42996017D067
:10195800AF498B4236D0AF498B4200F0B880AE49D0
:101968008B424CD0AD498B4200F00681B4F5004F54
:1019780000F043810120F0BC704780F86810C0E790
:10198800A748A849006B00F003000144B4F5004FD4
:10199800097C00F002810829ECD801A050F821F058
:1019A800C31A0008271A0008351B00087D1900080B
:1019B800C31A00087D1900087D1900087D19000860
:1019C800F71A000801F5E631096B01F44031B1F569
:1019D800803F00F0988040F29380B1F5003F00F01E
:1019E8008280B1F5403FC1D1B4F5004F40F09E80F0
:1019F8005068410801F1F47101F590418CE001F55E
:101A0800E231096B01F44011B1F5801F7BD077D921
:101A1800B1F5001F67D0B1F5401FE5D0A6E75068C3
:101A28007A4C410801F5E101B1FBF0F189B2E160BE
:101A380059687D4F21F49041596099683E6821F0BA
:101A48002A0199601968002541F001011960D566DD
:101A58001968741C08073C6011D506F1007C0CF16C
:101A6800010C204604E0013060454FF001056AD0C2
:101A7800D96911F40011F6D0002D40F0C48019681E
:101A8800490710D5F643002506E001343019B0F1B6
:101A9800007F4FF0010569D2D96911F48001F4D0B3
:101AA800002D40F0AE802023002082F8693082F8B3
:101AB800680082F86A30F0BC70475C495068096871
:101AC80001EB5001B1FBF0F189B2D960B0E701F543
:101AD800E431096B01F44021B1F5802F13D00FD9FF
:101AE800B1F5002F70D1B4F5004F00F08180506837
:101AF800410801F50041B1FBF0F189B2D96097E7DF
:101B080000297FF433AFB4F5004FD6D14749506868
:101B18000C68410801EB4401B1FBF0F121F00F0022
:101B280080B2C1F342010143D96081E7506841089E
:101B380001F5740101F51051B1FBF0F189B2D960DA
:101B480076E7012070471C68386024F4D0741C6064
:101B58009868202420F00100986082F869400320EA
:101B680082F86A4082F86810F0BC704718683C60D8
:101B780020F4D0701860EBE701F5E031096B01F44F
:101B88004001B1F5800FBED0BAD9B1F5000FAAD087
:101B9800B1F5400F3FF428AFE8E608292DD801A099
:101BA80050F821F0151B0008DB1B0008F919000884
:101BB800031C0008151B0008031C0008031C000870
:101BC800031C0008F91B0008B1F5402F3FF40CAFC7
:101BD800CCE650680D4C410801F56101B1FBF0F10C
:101BE80021F00F0080B2C1F342010143E1601FE719
:101BF8005068410801F580318EE70022DA60012043
:101C0800B9E63C604FE73860044638E700380140E1
:101C18000044004000480040004C00400050004094
:101C2800001002406C4200088004002030000020B0
:101C380070B52E4B2E4C2F4A2260DA692E4842F09E
:101C48000072DA61DA6992B002F000720192019AC8
:101C58005A6942F480225A615B6903F48023029333
:101C6800082500234FF480324FF4407165602261EB
:101C7800C4E902330322C4E90533C4E90733C4E9DC
:101C88000933E362059303910923022503A9029E00
:101C98000495CDE90623FFF747FD204600F01AFE1C
:101CA80008BB034601220E2508A92046CDE90D33BD
:101CB800CDE90833CDE90A330C93CDE90F2211950C
:101CC80000F096FD78B94FF492730C4D236404210B
:101CD80004F1400204F15C03C4E91151C4E90C2386
:101CE800E06412B070BD4FF0FF30FAE70010024018
:101CF800880400200064004000040048BA5A3412E6
:101D0800082A70B560DC334C002A22654CDB0B785E
:101D180084F854304AD04B7884F85530012A47D09B
:101D28008B7884F85630022A44D0CB7884F8573020
:101D3800032A41D00B7984F85830042A3ED04B79D5
:101D480084F85930052A3BD08B7984F85A30062A12
:101D580038D0CB7984F85B300826B0F5006F19D3FA
:101D6800B0F1005F33D20423C4E911036421194898
:101D780000F052FE94F83930032B05460ED03DB1E1
:101D8800013DEDB2022D9ABF134B5E576FF0050669
:101D9800304670BD00232064A364E7E70D4800F0D7
:101DA8002BFEFFF745FFEAE70026D6E70126D4E732
:101DB8000226D2E70326D0E70426CEE70526CCE79D
:101DC8000626CAE70726C8E76FF00106E0E74FF0E6
:101DD800FF36DDE78804002088420008704700BF0E
:101DE80070B58EB0002503234FF4804203A92C4818
:101DF8002C4CCDE90323CDE90553FFF795FC2A4B7D
:101E08002A495A69C4F8885042F000525A615A69FE
:101E1800C4F88C5002F000520192019A5A69C4F831
:101E2800945042F480225A615B69C4F8985003F4D4
:101E380080230126029304F180004FF44033029A74
:101E4800C4F8A450C4E92C55C4F8B850C4E9201308
:101E5800C4F89060C4E92766C4E92A6600F03CF833
:101E6800C0B90346042208A904F180000996CDE907
:101E78000B330D9308920A9200F010FB68B904F135
:101E8800800000F0A3F9A84214BF6FF002002846B2
:101E98000EB070BD4FF0FF30FAE76FF00100F7E7C2
:101EA800000400488804002000100240000500508B
:101EB80038B54FF4FA710546064800F04FFA30B9C4
:101EC8000446044800F0E6FA2880204638BD6FF042
:101ED8000304FAE70805002070B582B000230193D7
:101EE800002800F09880436C13F01003044617D1C3
:101EF800456C002D00F0928001688A68D2007ED57A
:101F08008A6896007BD4626CD00640F19580636C39
:101F180023F0120343F010036364012002B070BD84
:101F2800436CDD06F3D401688B6813F00403EED12B
:101F3800626C22F4817242F00202B1F1A04F626435
:101F480000F0DD80994A91427AD09948814200F0A8
:101F5800D980984A914200F0D6808A6802F003023C
:101F6800012A00F01E81944DAA68606822F440326C
:101F78000243AA60D4E90252A66BE0692A43656A63
:101F8800012E18BF4FF4805342EA4032012D43EA34
:101F9800020300F09380E26A012A0BD08448814250
:101FA80000F0A18000F58070814200F09C80206BD9
:101FB800034313438A6812F00C0F0BD1C868626B95
:101FC800A56920F48040520020F0020042EA8532E0
:101FD800C8601343CD68794A20692A401343012811
:101FE800CB6073D00B6B23F00F030B630020A0644E
:101FF800636C23F0030343F0010363648EE7636CAF
:1020080023F0120343F010036364A36C43F001034D
:10201800A364636C7BE7012002B070BD8564C0E9EE
:10202800135580F84050FFF7D9FE21688A6812F0EE
:10203800805216D02B4660E7002B7FF468AF73E719
:102048005F4D4FF0A0408A6802F00302012A45D094
:10205800826802F00302012A86D10268D20789D475
:1020680082E7886800F00300012859D0636CDD0618
:102078006AD4626C534B54481B6822F4885222F08D
:10208800020242F0020262648A6822F040528A60C8
:10209800A0FB03239B0C8A6803EB83035B0042F0DD
:1020A80080528A600193019B002B3FF426AF019B6D
:1020B800013B0193019B002BF9D11EE728BBA26AC3
:1020C800013A43EA424343F4803364E70A6B236AE4
:1020D80022F00F02013B13430B6387E70A68D60718
:1020E8003FF548AFB4E7B2F5307F2FD0B2F5807F27
:1020F80048D0B2F5E07F08BF4FF4807257E72B480D
:102108002F4DA0E72B482C4D9DE7626C22F0220250
:1021180042F020026264A26C42F00102A2643AE733
:102128000B6813F0010328D08B6803F00D03012B13
:102138000FD0636C43F010036364A36C43F0010396
:10214800A364626C0346D8E61346D6E64FF4E07201
:102158002DE78B68032243F002038B600A60FEF7C9
:102168000FFE054604E0FEF70BFE401B02280CD8C4
:1021780021688B6813F00103F5D1626CD0063FF536
:10218800BCAE76E74FF4307211E7636C216843F018
:1021980010036364A36C43F00103A364636C01231D
:1021A800ABE60A68D2073FF5E5AEDCE60001005071
:1021B80000040050000500500007005007C0F0FF61
:1021C800000300503000002083DE1B4338B503684D
:1021D8009A6854071DD490F84020012A19D09A68AB
:1021E800012102F003028A42044680F8401012D00E
:1021F8009968554A114268D0636C43F010036364D0
:10220800A36C43F00103A364002384F84030012049
:1022180038BD022038BD1A68D107E9D5626C22F4AE
:10222800706222F0010242F48072B3F1A04F62643E
:1022380012D0464A934275D0454A9268D1060DD0CD
:1022480044498B420AD0626C42F480126264CA68C4
:10225800C2F340627AB108E03F4A9268626C22F4A5
:1022680080126264DA68920105D5626C22F44052E9
:1022780042F480526264626C12F480521CBFA26CF9
:1022880022F00602A26400201C22B3F1A04F84F8B9
:1022980040001A602BD02D4A934233D02C4A9168C3
:1022A800CC060CD0916801F01F01052907D092686F
:1022B80002F01F02092A02D0264A9342A8D19A683E
:1022C80042F004029A60002038BD9A6842F0010288
:1022D8009A60FEF755FD054604E0FEF751FD401BE8
:1022E800022889D823681A68D207F6D596E71A4AC9
:1022F8009168C906E3D0916801F01F010529DED075
:102308009268DCE702F500729168CD06D7D0916833
:1023180001F01F010529D2D0926802F01F02092A94
:10232800CDD038BD02F500729268D00696D0626CA6
:102338004FF0A04142F480126264CA68C2F340625E
:10234800002A98D091E700BF3F00008000010050AC
:102358000007005000040050000300502DE9F04130
:1023680044690368082C10D0B3F1A04F6ED0454DD6
:10237800454C464AAB4208BF1446A26812F01F02F9
:1023880056D1DC68E60763D40C24B3F1A04F0BD018
:102398003C4A934265D03C4A9268D20606D03C4AF1
:1023A800934203D0D76802E0384A9268DF680D4646
:1023B8000646FEF7E5FC80466B1C326825D113689B
:1023C8002342FCD0736C43F400737364D36813F432
:1023D800406F13D1B80411D4136819070ED5936848
:1023E80013F0040F736C44D123F480737364736C1B
:1023F800DB0403D4736C43F00103736417F4804067
:102408000CBF14600020BDE8F08113682342D9D1C5
:102418002DB1FEF7B5FCA0EB0800A842CCD9736C2F
:10242800002243F00403736486F840200320EAE79F
:10243800A26812F4404FA7D0436C002243F0200357
:10244800436480F840200120BDE8F0810F4C94E7F8
:10245800436C80F8402043F0200343640120BDE82A
:10246800F08102F500729268D5069FD04FF0A04225
:1024780098E743F020037364B36C43F00103B3643B
:10248800BCE700BF000100500007005000030050E7
:10249800000400500368186C704700BFF0B402468F
:1024A80082B092F840300020012B019000F0DE80CD
:1024B8001368CC689D6801206D0782F8400037D406
:1024C800D1E9005606EB4600042E4FEA400000F220
:1024D800A3801E6B1F27874026EA070605FA00F02F
:1024E80030431863986810F00C0F4FD1092D05EB95
:1024F8004506886800F29F805F694FF0070C0CFA68
:1025080006FCB04027EA0C0630435861D1E904675D
:10251800D868C0F3C1004000013E07FA00F0AF06DA
:10252800032E0FD8DFE816F0FD00F200E700DC000C
:10253800536C43F020035364002382F8403002B008
:10254800F0BC7047186E00F0F840B84203D1186E1E
:1025580020F000401866586E00F0F840B84203D1E9
:10256800586E20F000405866986E00F0F840B84267
:1025780003D1986E20F000409866D86E00F0F840BD
:10258800B84203D1D86E20F00040D866986800F0B1
:10259800030001286ED00120012C00FA05F06DD04F
:1025A800D3F8B01021EA0000C3F8B000B3F1A04F8F
:1025B8007DD0874C87498848A34208BF0146102D23
:1025C80071D0112D4ED0122D24D18868400221D40B
:1025D800B3F1A04F00F0E4807D48834200F0EC8026
:1025E8007E4CA34200F0A88000F58060834200F092
:1025F800A480986800F00300012800F0E480102D02
:1026080008D0112D00F0CE80122D03D18B6843F431
:1026180080038B6000208FE7092E18D90E2E54D81E
:102628003C389E6B1F27874026EA070605FA00F00C
:102638003043986356E71E3E9F694FF0070C0CFA2B
:1026480006FCB04027EA0C06304398615EE71E3866
:102658005E6B1F27874026EA070605FA00F030431D
:1026680058633FE78868C401B2D5D3E7022002B0B7
:10267800F0BC70471868C7078DD5CBE7D3F8B040D2
:102688008E682043092DC3F8B00012D905EB450127
:102698001B39986907248C4020EA040006FA01F1E6
:1026A8000143996182E78868060291D5B2E74A49F1
:1026B80085E7681C00EB4000596907248440864080
:1026C80021EA04013143596170E75A38DE6B1F274C
:1026D800874026EA070605FA00F03043D86301E789
:1026E800D3F86CC03E4E0CEA0606374347F0004765
:1026F8003843D8664AE7D3F868C0394E0CEA06066C
:10270800374347F00047384398663FE7D3F864C03B
:10271800334E0CEA0606374347F0004738435866FD
:1027280034E7D3F860C02E4E0CEA0606374347F06C
:1027380000473843186629E72A4C986800F00300D8
:10274800012824D0A06800F00300012837D0102DFC
:102758007FF457AFB3F1A04F7FF45CAF224B234C0B
:102768001B688868A4FB03439B0C03EB83035B0093
:1027780040F4000088600193019B002B3FF44AAFAE
:10278800019B013B0193019B002BF9D142E718689B
:10279800C607D7D5536C43F0200353640120CBE61A
:1027A8000B4CCAE7B3F1A04F7FF434AF8B6843F00A
:1027B80080738B600020BFE64FF0A044BDE720681F
:1027C800C007E7D4C3E71868C707E3D417E700BF13
:1027D80000010050000700500003005000040050A2
:1027E80000F0FF83000500503000002083DE1B430B
:1027F80003684869D3F8002242F001022DE9F0414C
:10280800CE69C3F800220122D3F81C428240D54386
:102818002C40C3F81C42002E41D1D3F80C72CE686C
:10282800B1F804C00C8803EBC00805EA07008F68FC
:10283800C3F80C024CEA064644EA0744C8F840626A
:10284800C8F84442886920BBD3F804022840C3F87A
:1028580004020869A8B9D3F814022840C3F814027E
:10286800096A012904D1D3F81C120A43C3F81C22AF
:10287800D3F8002222F00102C3F800220020BDE8AC
:10288800F0810128ECD1D3F814021043C3F81402E4
:10289800E6E7D3F804021043C3F80402D9E7012E8F
:1028A800D0D1D3F80C620F68B1F804E0B1F80CC0CD
:1028B80003EBC00446EA02008E68C3F80C024EEA35
:1028C80007474CEA0646C4F84072C4F84462B9E7C0
:1028D800704700BF002800F08A8090F8393070B542
:1028E80003F0FF020546002B71D02B68022285F801
:1028F80039201A6822F002021A601A6842F00102AE
:102908001A60FEF73DFA064605E0FEF739FA801B25
:10291800B0F57A7F65D82A68546814F00104F4D0B9
:102928005368D90758D5AB69012B13680CBF43F01E
:10293800800323F080031360EB69012B13680CBF3D
:1029480043F0400323F0400313602B6A012B136804
:102958000CBF43F0200323F0200313606B6A012BA4
:1029680013680CBF43F0100323F010031360AB6A25
:10297800012B13680CBF43F0080323F0080313600E
:10298800EB6A012B13680CBF43F0040323F0040324
:102998001360D5E90231D5E904400B436968234344
:1029A800034301390B43D361136823F00103136018
:1029B800FEF7E6F92A685368DB07FCD4506810F084
:1029C800010009D10123E86385F8393070BD80F82A
:1029D8003820FFF77DFF88E7042385F83930012088
:1029E80070BD032085F8384085F8390070BD012096
:1029F800704700BF704700BF60B110B5022304469E
:102A080080F83930FFF7F6FF002084F8390084F8A1
:102A1800380010BD01207047026893685B0102D43A
:102A280093681B0171D590F83830012B00F0AB800A
:102A380090F83930222B0CBF322312232DE9F047AE
:102A480080F839309368012480F838405C015AD402
:102A5800936813F0006F0CBF022701274FEA071C89
:102A680002EB0C03056BD3F88061D5E9024E06F042
:102A78000106C3F88061002C57D12E68D3F8804135
:102A88004EEA46562643C3F880610E460446D3F8FC
:102A980084112869DFF81891DFF8108100F00F0021
:102AA80021F00F012861C3F88411D3F88411084379
:102AB800C3F8840162446969C2F88811A969C2F837
:102AC8008C11D3F88021384D42F00102C3F88021DF
:102AD800FEF756F982462368FFB1711C59D1012FC0
:102AE8004BD032499A6831EA0202FBD194F8393066
:102AF800322B0CBF22230123002084F8393084F8BC
:102B08003800BDE8F0870027A8E79368DB008AD47F
:102B1800042380F8393001207047721C10D12249F3
:102B28009A6831EA0202FBD1E0E744EA0E0E6C68CB
:102B3800D3F880614EEAC4043443C3F88041A4E763
:102B48009A6835EA0202D1D036B1FEF719F9A0EB3E
:102B58000A00B042BFD92368032284F839209A6852
:102B68009FB1012F0CBF42F4004242F400029A6068
:102B7800002384F838300320C3E70D499A6831EA06
:102B88000202FBD1B2E70220704742F080029A604D
:102B9800EEE7012F9A6803D038EA0202D4D1A5E7FC
:102BA80039EA0202D0D1A1E70300000400000310B3
:102BB80000030008014800F013B800BF54280020A3
:102BC80001468022014800F011B800BF54280020B7
:102BD800034602460121014801F002BA54280020A8
:102BE8004FF48C72002101F053BA00BF2DE9F04F69
:102BF800E94E8DB034680990CDE90A21002C00F027
:102C0800CD810A9BC02B00F0E182B3F5807F00F0F4
:102C1800F382802B04D06FF01F000DB0BDE8F08F59
:102C2800099B0A271F601D4603F108000A9B0B99A0
:102C380045F8040F4FEA531C4FF0000E8B7891F8BB
:102C480001800C78CA781B0443EA082323430EF159
:102C5800010E43EA0263E64545F8043F01F1040129
:102C6800ECD30C2F00F038830E2F00F0C9820A2F06
:102C780040F08E81099AD6F8044453691169D2E963
:102C88000250C3F30722324406EB136792F82C2450
:102C980097F82C746C40624056FA83F5C3F30744E6
:102CA800344495F82C5494F82C4482EA074282EA7A
:102CB800056282EA042282EA000585EA0104099F86
:102CC80083EA040EC7E90625C7E9084ECEF30720B4
:102CD8003044D6F8084490F82C043B46624006EB92
:102CE8001E6756FA8EF45040CEF3074297F82C74BC
:102CF80094F82C44324480EA074092F82C2480EA65
:102D0800046080EA0220414080EA0502C3E90A0221
:102D180081EA0E04C4F30727374419635C63D6F8C5
:102D28000C5497F82C7406EB146C684056FA84F52A
:102D3800C4F30744784034449CF82C7495F82C5418
:102D480080EA074794F82C0487EA056787EA002792
:102D58007A408EEA020ECEF3072082EA010430445C
:102D6800C3E90E72C3F844E01C64D6F8105490F816
:102D78002C04D6F814447D40684006EB1E6756FACA
:102D88008EF597F82CC495F82C74CEF30745354486
:102D980080EA0C4095F82C5480EA076080EA052008
:102DA80081EA000888EA0E054240C3E91328C5F302
:102DB8000727374498645D6597F82C7406EB156C03
:102DC800604087EA000456FA85F7C5F307403044A7
:102DD8009CF82C5497F82CC490F82C7484EA054578
:102DE80085EA0C6080EA072080EA02058EEA050E73
:102DF800C3E91605CEF3072285EA08073244C3F86B
:102E080064E01F66D6F8184492F82C2406EB1E6777
:102E18006040424056FA8EF4CEF3074097F82C747F
:102E280094F82C44304482EA074290F82C0482EA51
:102E3800046282EA002288EA020181EA0E0782EA35
:102E48000504C3E91B41C7F3072030449A665F674E
:102E5800D6F81C5490F82C046A4006EB176556FA0D
:102E680087FC5040C7F3074295F82C549CF82C7403
:102E7800324480EA054092F82C5480EA076282EADC
:102E880005225440099D84EA0E0EC5E91E242846F1
:102E9800CEF3072384EA01073344C5F884E0C0F879
:102EA8008070D6F8205493F82C346A4006EB1E67DD
:102EB80056FA8EF55340CEF3074297F82C7495F8DE
:102EC8002C54324483EA074392F82C2483EA05639E
:102ED80083EA022381EA030888EA0E0783EA0402E8
:102EE800C0E92328C7F307253544C0F88830C0F85F
:102EF8009470D6F8244495F82C54634006EB176474
:102F080056FA87FC5D40C7F3074394F82C449CF8B5
:102F18002CC4334485EA044593F82C74D6F8284425
:102F280085EA0C6383EA072382EA030501468EEAF1
:102F38000500C1E92635C0F3072288EA05073244AF
:102F4800C1F8A400C1F8A07092F82C2406EB106711
:102F58006340534056FA80F4C0F3074297F82C7444
:102F680094F82C44164483EA074396F82C2483EA01
:102F7800046383EA022388EA0301099A48405D4012
:102F8800C2F8B400C2F8B010C2F8AC50C2F8A83009
:102F980000200DB0BDE8F08FB80500200222012303
:102FA8001046B460C6F82C3606F22C652146224637
:102FB80009E006EB830012F0800245F8043F416007
:102FC80018BF1B225800434001315A40B1F5807F99
:102FD800D3B2EED102230422C6F808340823C6F877
:102FE8000C24C6F8103410222023B64FC6F8142437
:102FF800C6F8183440228023C6F81C24C6F82034AA
:103008001B223623012507F58560C6F82424C6F857
:103018002834632200238446C6F8045486F82C24F6
:1030280086F88F3557F8043FC3F1FF0306EB830397
:10303800D3F82C36DA1142EA4302D2B2D41144EA68
:103048004204E4B2E11141EA4401C9B283F06303E6
:103058005340CA11634042EA4102D2B24B40534046
:10306800F2180CF8013F82F82C550135B5F5807F30
:10307800D8D1F36B0593B36A0693B36BDFF850C2EC
:103088000793336B089300F1FF0304930CF58063F7
:10309800019306F6282306F22B47039306F22B53D7
:1030A8000CF5006A0CF5406906F6286B06F5C5684C
:1030B800B64602930097009B019C13F8012F0093DA
:1030C800510010064FEA024348BF81F01B01C9B204
:1030D80043EA02234B404A40029943EA026311F84B
:1030E800012F02914FEA336144F8041F4CF8043F62
:1030F8004FEA33414FEA332306EB820001944AF842
:10310800041F49F8043F002A64D04368079A6E49AF
:10311800981881FB0024069A9D182218C417C4EB3E
:10312800E21481FB0571C4EB04242944001B059AB1
:10313800089FEC17C4EBE111634C1A44C1EB012161
:103148003B4484FB02741444691AD517C5EBE41593
:103158005D4CC5EB052584FB03741C44521BDD172D
:1031680006EB8000C5EBE414C4EB042406EB8101F4
:10317800D0F82C06D1F82C161B1B06EB820206EBA6
:103188008303D2F82C26D3F82C36039C000480EA5B
:103198000121514081EA03614FEA31424FEA31236C
:1031A80048F8042F4EF8043F009A049B44F8041F83
:1031B8004FEA3160934203944BF8040F7FF47BAFDE
:1031C800012333600A9BC02B7FF41FAD099B0C279A
:1031D8001F6028E5039B4BF8042F43F8042F48F899
:1031E800042F03934EF8042F049B009A93427FF414
:1031F80062AF01233360E5E7099B0E271F6012E5E4
:10320800099BDFF8D0905C6AD3E9037CD3E907E82F
:10321800D3E905519B68CDF800C0BC467746C4F396
:10322800072EB64459F804BF9EF82CE4009A06EB22
:10323800146A83EA0B038EEA030356FA84FBC4F389
:10324800074E9AF82CA49BF82CB4B64483EA0A4398
:103258009EF82CE483EA0B6383EA0E238CEA030CC2
:1032680082EA0C025540C0E90A25C0E9083C56FA32
:1032780085FB06EB156A9BF82CB49AF82CA40092EF
:10328800C5F3072E8BEA0101B644C5F3074BB344D7
:103298009EF82CE49BF82CB40C4A81EA0A6181EA76
:1032A8000E2181EA0B414F4088EA070884EA0804A6
:1032B8009145C0E90E84C0E90C1700F12000AED199
:1032C800002066E6BC05002081808080D4090020AB
:1032D800E0170020B8090020099FD6F80444F969CE
:1032E800BB68FA68C1F3072C06EB116EB444C1F34E
:1032F80007499CF82C849EF82CC456FA81FE63403A
:1033080006EB09049EF82CE494F82C4483EA08039D
:1033180083EA0C43D7E9045083EA0E6383EA042363
:103328005A40BF6985EA020E80EA0E0487EA040C57
:1033380081EA0C0B0999C1E90832C1E90CCBCBF33E
:103348000720C1F828E0304406EB1B6CCC62D6F8A5
:10335800081490F82CE49CF82C04CBF3074856FA90
:103368008BFCB0444B408EEA03039CF82CE498F89D
:103378002CC4099983EA004383EA0E6383EA0C2389
:103388005D4087EA050C8BEA0C0082EA030EC0F365
:103398000728C1E90FE5C1E912C006EB080284EA73
:1033A8000508C1F8448006EB10688B6392F82C94EA
:1033B80098F82C84D6F80C2456FA80FA5340C0F3B7
:1033C800074232449AF82C0492F82C2489EA03091B
:1033D80089EA084989EA006080EA02208EEA000248
:1033E80054408BEA040E8CEA040CC1E9174CC1E97D
:1033F800140285EA0203CEF307288B65B044D6F899
:103408001034C1F864E006EB1E6C98F82C849CF824
:103418002CC44340CEF3074956FA8EF0B14488EAEB
:10342800030390F82C8499F82C0483EA0C4383EA6C
:10343800086383EA002387EA030A8EEA0A0C5A40E3
:10344800C1E91A325D40CCF3072084EA050E304406
:10345800C1F87CC00D67C1F874E0C1F878A090F895
:103468002C84D6F8140406EB1C6E56FA8CF9CCF3AF
:10347800074C9EF82CE44340B44488EA030399F8C7
:103488002C849CF82CC483EA0E4383EA086383EAFD
:103498000C235A400F468BEA02015440C7E92032F8
:1034A800C1F3072C85EA0200B4448AEA040806EB53
:1034B800116EC7F88C40C7F89410C7F88800C7F891
:1034C80090809CF82C84D6F818049EF82CC4C1F37C
:1034D800074956FA81FE434006EB090088EA0303D0
:1034E8009EF82C8490F82CE483EA0C4383EA086362
:1034F80083EA0E235D408AEA050081EA000E5A40FD
:10350800C7E92725C7E92A0ECEF3072884EA050963
:10351800B044C7F89830C7F8A490D6F81C7498F847
:103528002C8406EB1E697B4088EA030356FA8EF862
:10353800CEF3074E99F82C9498F82C84099FB6443A
:1035480083EA09439EF82CE483EA086383EA0E239E
:103558005A405440614080EA040CC7E92C32C7E95C
:1035680030C1C1F3072E85EA020006EB1168B644A4
:10357800C7F8BC40C7F8B800D6F820749EF82CC429
:1035880098F82CE4C1F3074956FA81F87B404E4479
:103598008CEA030398F82CC496F82C0483EA0E43AB
:1035A80083EA0C6383EA00235D4009988AEA0307EB
:1035B8006C4079405A40C0F8D440C0F8DC10C0F8DC
:1035C800D050C0F8D870C0F8CC20C0F8C83000205F
:1035D800DFE400BF2DE9F04FD0E9000589B00E689F
:1035E800D1F804E0D1F808A0D1F80C800692411077
:1035F8006A68E8682B68AC6807918EEA020E0139A0
:1036080088EA00020292002905F11002019183EA7A
:1036180006038AEA040A0592DFF8D89440F3658223
:10362800DDF8088005F1300BDDB25FFA88F44FEA67
:103638001A6009EB850509EB800009EB84045BF847
:10364800206CD5F83451D0F834CDD4F834415BF837
:10365800140C75404FEA1E665FFA8EF1444009EB80
:103668008606180E09EB800009EB8101D6F8346D47
:1036780004964FEA1867D0F8346DD1F834115BF826
:103688001C0C09EB87075FFA8AF284EA0C04CAF378
:10369800072CD7F8347D414009EB8C0CCEF307207A
:1036A80009EB820209EB8000D2F83421D0F8340506
:1036B80002907D4071405BF8187CDCF83465039615
:1036C800049E7A407240C8F3072C029ECEF3074E40
:1036D800CAF3074AC8F3074809EB8E0EC3F3072756
:1036E80009EB8A0A09EB8C0CC3F3074309EB88083A
:1036F800754009EB8707039EDEF83409D8F834894A
:10370800DAF834E9DCF834A5D7F8347509EB830323
:103718007140D3F8343981EA080182EA0A025A4032
:103728007C40C1F30727604085EA0E05C2F3074ACB
:1037380009EB87075FFA85FE030E5FFA81F84FEA07
:10374800156C09EB8A0AD7F834750297C0F3074657
:1037580009EB8E0E09EB830309EB880809EB8C0C47
:10376800DAF83479DEF834E1D3F8343D039709EB1D
:103778008606D8F83481DCF834CDD6F83469049656
:1037880088EA0C08D6B24FEA116C09EB8C0C09EBED
:1037980086065BF8107CDCF834ADD6F834618EEA26
:1037A80003037B40029F86EA0A06C5F3072C5FFAEB
:1037B80080FAC5F30745C0F30720C2F3072409EBD5
:1037C800800009EB85057B40120E5BF80C7C09EB49
:1037D800820209EB8A0A88EA070E09EB8404D0F80A
:1037E8003475D5F834095BF8085CD2F8348DDAF80A
:1037F8003421D4F8344586EA050AC1F307415BF859
:10380800045C049E09EB8C0C82EA080209EB810136
:103818008EEA040E82EA0508DCF83445019AD1F8EC
:1038280034198AEA070A039F88EA0408013A83EAF6
:1038380007038EEA060E8AEA000A88EA01080BF1F5
:10384800200B01927FF4F0AE079A0599CDF8088015
:1038580002F10062013A01EB4212059242464FEA38
:1038680013685FFA82FC4FEA1A6009EB880809EBD3
:103878008C0C09EB8000D8F834BDD0F8340DDCF896
:103888003481140ECAF3072209EB820288EA000881
:103898000298D2F834C5DEB209EB8606C0F30722D7
:1038A80009EB840409EB8202D6F8346101965FFAC9
:1038B8008AF54FEA1E67D4F8346DD2F83425059C92
:1038C80002925FFA8EF109EB850509EB870709EB90
:1038D8008101C3F30722D5F83451D7F8347D6468E1
:1038E800039409EB8202D1F83411C3F3074385EA44
:1038F800070409EB8303D2F83475039AD3F83459D3
:10390800059B81EA0B014A4001994E401946C0F3D4
:103918000740896809EB80004C40CEF30721CEF3BD
:10392800074ED0F834B9D8681B6809EB8E0E88EAC0
:103938000008DEF8340986EA030E029B059E09EBAF
:1039480081015C406C406A4BD1F8341588EA07085D
:10395800CAF3074A88EA000009EB8A0A82EA0C02DD
:10396800C4F3072CC0F307459C4482EA0B02DAF83B
:1039780034A9376901971D448EEA0101C4F3074E43
:10398800D6E90576C2F307289CF82CC4CDF810C0F8
:103998009E4481EA0A0195F82CC49EF82CE4CDF8DF
:1039A8000CE053FA82F598448B4653FA81FA95F85D
:1039B8002CE498F82C840199CDF8088003EB1B655A
:1039C8009AF82C84CDF804B08EEA070795F82CE411
:1039D80053FA84F503EB106988EA0108059995F80C
:1039E8002C5499F82C94D1F81CA0019953FA80FB17
:1039F80003EB14646E4003EB1265C2F307429BF8B5
:103A08002CB494F82C4495F82C541A4488EA096884
:103A1800C0F30720C1F307291844994492F82C24CD
:103A280090F82C0405928BEA0A0AC1F307418AEA46
:103A3800046A1944029C99F82C34059A91F82C14BC
:103A480086EA056686EA0026002503988AEA0323A3
:103A580088EA0428049C83EA024287EA0E672B4618
:103A680088EA004886EA014187EA0427160A2846B8
:103A780062F3070387EA0C4C4FEA18290F0A2C4611
:103A880061F3070068F3070566F30F23160C4FEA86
:103A98001C2E6CF3070469F30F2567F30F204FEA18
:103AA80018490F0C66F31743120E62F31F636EF387
:103AB8000F24069A4FEA1C4E69F317454FEA186817
:103AC80067F31740090E61F31F606EF317444FEA5E
:103AD8001C6C68F31F6515606CF31F649060002010
:103AE8005460D36009B0BDE8F08F029AB7E600BF12
:103AF800B8050020B01600202DE9F04FD0E9005499
:103B080089B0D1F800804E68A368D1F808C0D1F810
:103B18000C9020686768069269100791E268DFF8E0
:103B2800BCB401398CEA030C002904F1100301919B
:103B380088EA000886EA070A89EA0209059340F339
:103B4800168104F1300E5FFA88F05FFA8AF15FFAA5
:103B58008CF64FEA1A654FEA1C620BEB80000BEB00
:103B680086060BEB85050BEB82020BEB81015EF8F9
:103B7800204CD0F82C0AD6F82C7AD1F82C1A6E687A
:103B880055685EF81C2C60404FEA196451405FFA92
:103B980089F34FEA18620BEB84040BEB82020BEB00
:103BA80083036468D3F82C3A049454685EF8142CA0
:103BB8005A40C9F307230BEB83036240D3F82C3E2A
:103BC8000293CCF30724C9F30749CCF3074C5EF8FA
:103BD800183C0BEB89090BEB84040BEB8C0C704045
:103BE8005F40D9F82C66C8F3072381EA0509C8F3B2
:103BF8000748D4F82C5EDCF82C460394CAF3072C4B
:103C0800049C0BEB83030BEB88080BEB8C0CCAF3BF
:103C1800074AD3F82C1ED8F82C36DCF82C8E6740CF
:103C28000BEB8A0A029CDAF82CC6604087EA080780
:103C3800039C5F4089EA01016A4060404E4082EA85
:103C48000C0CC7F3074A5FFA80F84FEA1669CCF301
:103C58000721F3B20BEB8A0A0BEB83030BEB880803
:103C68000BEB89090BEB81013C0E0393DAF82C3638
:103C7800D9F80490D1F82C1ED8F82C8A0293CCF3EA
:103C88000742039B0BEB84040BEB8202D3F82C3A1C
:103C98006468D2F82C26039283EA040AFAB24FEA3F
:103CA8001C630BEB82020BEB83035EF8104C5B6822
:103CB800D2F82C2AC0F307255FFA8CFC88EA090899
:103CC8000BEB85050BEB8C094FEA106C5A400BEB9C
:103CD8008C0C5EF80C3CD5F82C5E88EA0408C7F317
:103CE8000727C6F30724C6F307460BEB87070BEB3A
:103CF80084040BEB860688EA01088AEA030ADCF8E2
:103D08000410D9F82C3A8AEA050AD7F82C5ED4F8B8
:103D18002C7ED6F82C465EF8046C4B4083EA0609E4
:103D2800C0F30740029B5EF8081C0BEB800088EA92
:103D38000308019BD0F82C0682EA010C039A8CEA4E
:103D4800070C89EA0509013B8AEA020A8CEA000C99
:103D580089EA04090EF1200E01937FF4F4AE079B63
:103D6800059A03F10063013B02EB431305935FFAE5
:103D78008CF14FEA19670BEB81010BEB87075FFAB0
:103D880088F54FEA1A60D1F82C1A7F680BEB850585
:103D98000BEB80005FFA8AF34FEA1C620BEB83039C
:103DA8000BEB8202D5F82C5A4068D3F82C3A5268AB
:103DB8004F404FEA18665FFA89F4C9F307210BEB05
:103DC80081010BEB86060BEB84046840059D039785
:103DD8007668D1F82C7ED4F82C4A2D680195CAF360
:103DE8000721CAF3074E5A40C8F307430BEB81017A
:103DF8000BEB8E0E0BEB8303744002970494D1F8FF
:103E08002C7EDEF82C460199D3F82CE6059B484019
:103E1800C8F30728996801910BEB88080399DB68B8
:103E2800C9F307490BEB8909CCF30726CCF30745FF
:103E3800D8F82CCED9F82CA68846019988EA010929
:103E480002990BEB86060BEB850548400499D6F8DA
:103E58002C6ED5F82C564B4005995E404968684051
:103E6800744089EA070787EA0E0EC0F30728C4F3EF
:103E780007474A40D8445F4482EA0C0C8CEA0A019E
:103E880097F82C7501905BFA80F5C4F3072698F82B
:103E98002C050290CEF3074303975BFA81F2059F46
:103EA800059892F82C25406995F82C555E445B449A
:103EB80096F82CA593F82C853B690BEB11665D40B1
:103EC800424096F82C35BE6938465BFA8EF70BEB04
:103ED800146997F82C750BEB1E6C5BFA84F49CF84C
:103EE8002CC594F82C45774099F82C65D0F81C908F
:103EF800019882EA0C62CEF3072E0BEB106CDE44BD
:103F080084EA0904C1F30729C1F30741D944594494
:103F180085EA0363C0F307409CF82C559EF82CE50E
:103F280099F82C9591F82C15584484EA056490F872
:103F38002C05029D84EA0E2E87EA06678EEA014167
:103F4800039C87EA09274FF0000E87EA004083EABE
:103F58000A23774682EA052282EA044283EA08486D
:103F680076463C464FEA18294FEA122C050A0B0AF6
:103F780068F3070E62F3070760F3070661F30704A7
:103F880069F30F2E6CF30F274FEA18494FEA124CCA
:103F980065F30F2663F30F24050C0B0C69F3174E1A
:103FA8004FEA18686CF31747120E65F31746000EB0
:103FB80063F31744090E069B60F31F6668F31F6ED0
:103FC80062F31F6761F31F640020C3F800E05F60BD
:103FD8009E60DC6009B0BDE8F08F00BFB805002026
:103FE80010B40129144621461A4603D05DF8044B43
:103FF800FFF782BD5DF8044BFFF7ECBA002103E040
:104008000B4B5B58435004310A480B4B42189A42F9
:10401800F6D30A4A02E0002313600432084B9A429E
:10402800F9D3AFF3008000F00FF8FCF7B9FDFEE715
:104038009C42000800000020640400206404002062
:1040480090290020FEE7000070B50D4E0D4D761B3F
:10405800B61006D00024013455F8043B9847A64210
:10406800F9D1094E094D761B00F0EAF8B61006D0D2
:104078000024013455F8043B9847A642F9D170BD95
:1040880090420008904200089842000890420008B8
:10409800F0B4860743D0541E002A3ED0CAB2034665
:1040A80002E014F1FF3438D303F8012B9D07F8D14F
:1040B800032C2BD9CDB245EA05250F2C45EA054539
:1040C80016D9A4F110073F0903F1200606EB0716DD
:1040D80003F1100242E9045542E902551032B24296
:1040E800F8D104F00F040137032C03EB07130DD9A3
:1040F8001E462246043A032A46F8045BFAD8221FD1
:1041080022F003020432134404F003042CB1C9B2B0
:104118001C4403F8011B9C42FBD1F0BC70471446B9
:104128000346C5E7024B13B1024800F005B87047D3
:10413800000000004D410008002301461A461846B9
:1041480000F01EB838B50A4C0A4D641BA4100AD0FA
:1041580004F18043013B05EB8305013C55F8043924
:104168009847002CF9D1BDE8384000F06FB800BF7F
:104178009C42000898420008704700BF704700BF83
:104188002DE9F8432B4D0646286898460F46914678
:10419800FFF7F2FF284B1C68D4F84831002B3DD0BC
:1041A8005A681F2A0DDC02F1010C16BB0232C3F853
:1041B80004C0286843F82270FFF7E0FF0020BDE83C
:1041C800F8831E4B7BB34FF4C870AFF300800346EF
:1041D80048B3D4F848210021C0E900214FF0010C70
:1041E800C4F848010A46C0F88811C0F88C11002E9E
:1041F800DCD003EB82010124C1F88890D3F8880150
:1042080094402043022EC3F88801C1F80881CDD11B
:10421800D3F88C110C43C3F88C41C7E704F5A67397
:10422800C4F84831BCE72868FFF7A8FF4FF0FF3013
:10423800C5E700BF600400208C42000800000000B1
:10424800F8B500BFF8BC08BC9E467047F8B500BF7B
:08425800F8BC08BC9E4670474B
:1042600000FF030000020000123456780000000036
:104270000000000001020304060708090104080207
:104280000000000001020304FBFCFD0038000020D8
:084290002D410008AD010008FA
:044298008901000890
:10429C0001112233445566778899AABBCCDDEEFF19
:1042AC00217E151628AED2A6ABF7158809CF4F3C48
:1042BC00000102030405060708090A0B0C0D0E0F7A
:1042CC0000127A000000000000000000240300200F
:1042DC008C030020F403002000000000000000000C
:1042EC0000000000000000000000000000000000C2
:1042FC0000000000000000000000000000000000B2
:10430C0000000000000000000000000000000000A1
:10431C000000000000000000000000000000000091
:10432C000000000000000000000000000000000081
:10433C000000000000000000000000000000000071
:10434C000000000000000000000000000000000061
:10435C000000000000000000000000000000000051
:10436C000000000000000000000000000000000041
:10437C0001000000000000000E33CDAB34126DE6DE
:10438C00ECDE05000B000000000000000000000047
:10439C000000000000000000000000000000000011
:1043AC000000000000000000000000000000000001
:1043BC0000000000000000000000000000000000F1
:1043CC0000000000000000000000000000000000E1
:0446FC006C29002005
:0400000508004005AA
:00000001FF
