:020000040800F2
:100000000030002085300008CD300008CD300008D9
:10001000CD300008CD300008CD30000800000000D1
:10002000000000000000000000000000CD300008CB
:10003000CD30000800000000CD300008CD300008B1
:1000400000000000000000000000000000000000B0
:1000500000000000000000000000000000000000A0
:100060000000000000000000000000000000000090
:100070000000000000000000000000000000000080
:100080000000000000000000000000000000000070
:100090000000000000000000000000000000000060
:1000A0000000000000000000000000000000000050
:1000B0000000000000000000000000000000000040
:1000C0000000000000000000000000000000000030
:1000D0000000000000000000000000000000000020
:1000E0000000000000000000000000000000000010
:1000F0000000000000000000000000000000000000
:1001000000000000000000000000000000000000EF
:1001100000000000000000000000000000000000DF
:1001200000000000000000000000000000000000CF
:1001300000000000000000000000000000000000BF
:1001400000000000000000000000000000000000AF
:10015000000000000000000000000000000000009F
:10016000000000000000000000000000000000008F
:10017000000000000000000000000000000000007F
:08018000000000000000000077
:1001880010B5054C237833B9044B13B10448AFF3C9
:1001980000800123237010BD6404002000000000CB
:1001A8002C33000808B5034B1BB103490348AFF3D0
:1001B800008008BD00000000680400202C330008FF
:1001C80008B500F0B3F800F0CBF801F093F800F0B0
:1001D80005F901F02FFDBDE8084001F01DB900BF89
:1001E80010B540F6FF7486B0082203A904A801F0F0
:1001F800E9F80028F8DB0828F6D103A9684600F0DA
:1002080017F80028F0D19DF809309DF8080040EA59
:100218000320A04228BF2046000180B201F062F905
:10022800E2E700BF08B5FFF7CBFFFFF7D9FF00BF34
:100238002DE9F0410E4688B056F8043BC3F30A078F
:10024800C3F3D12300224FEA134E4FEA132C04467E
:100258000D46390A01928DF802308DF800E08DF8CC
:1002680001C08DF804708DF80310E84698E8030083
:1002780067602746059247F80C3B8DF81410CDE9C6
:100288000222CDE90622049000F0CCF8254801F0BE
:10029800D7FC404601F0DCFCB74201D9A5422BD877
:1002A8006A68029B5340A3601F48059E4268D4F8C1
:1002B80008C00168C468049F83687240069E8CEA7F
:1002C8000404794073402030CDE904120693079462
:1002D80001F0B6FC04A801F0BBFC00F0ABF8DDE9C6
:1002E800033204A8534005F108010422049302F0E4
:1002F8000FFF08B0BDE8F0812B799DF808209DF824
:1003080009009DF80A10534023726B799DF80B2061
:1003180043406372AB794B40A372EB795340E3726D
:10032800C2E700BF100000200000002010B590B008
:10033800002403224FF4A02306A8CDE906230A943B
:100348000E9400F087F80F220123052101A8CDE9BA
:1003580003440594CDE9012300F04EFC10B010BD14
:1003680030B5032289B04FF4C06502200121CDE9E0
:100378000350CDE90512164C07230793636943F42C
:1003880000336361636903F40033019303A94FF0F9
:100398009040019B00F02AFD0E4B0F4A1A60A2699B
:1003A80042F48042A261A26902F4804202920C21C6
:1003B80000224FF416441846029D5C605961C3E957
:1003C80002221A619A6100F0F3FD09B030BD00BF46
:1003D80000100240E427002000380140104B70B59F
:1003E8005A6942F400325A615B6986B003F40033FB
:1003F80000934FF4805403230122002501A94FF0F4
:100408009040CDE90142CDE90353009E00F0EEFC97
:100418002A4621464FF0904000F0C4FD06B070BD5A
:100428000010024001224FF480514FF0904000F03C
:10043800B9BD00BF00224FF480514FF0904000F04A
:10044800B1BD00BF024B1868421C1A60704700BF5C
:10045800800400202DE9F0430368DA0783B04CD507
:100468009C494A6802F00C02042A00F09E814A68FE
:1004780002F00C02082A00F094814468B4F5803F29
:1004880000F0B782002C00F0C182924BB4F5A02F87
:100498001A6800F09B8322F480321A601A6822F4EA
:1004A80080221A608B4E8268F36A8B4923F00F030F
:1004B8001343F3620F687A1C0A6066374FF0000E28
:1004C8004FF400344FF0010C05E00132BA424FF00E
:1004D800010E00F0858394FAA4F3356894FAA4F326
:1004E800B3FA83F303F01F030CFA03F32B42ECD0A7
:1004F800BEF1000F40F07A8303689E075AD5754A0B
:10050800516811F00C0F00F0F481516801F00C01F2
:10051800082900F0EA8103690124002B00F0DB823E
:1005280094FAA4F2B2FA82F202F1845202F5841229
:100538009200694914600D682B190B60022393FA25
:10054800A3F2644E376893FAA3F2B2FA82F202F089
:100558001F0204FA02F23A421ED1EF1893FAA3F2EC
:10056800D6F800C093FAA3F2B2FA82F202F01F02A0
:1005780004FA02F212EA0C0F0DD1EF1C93FAA3F25F
:10058800326893FAA3F3B3FA83F303F01F0304FA70
:1005980003F313425BD00F604E4CF822216892FAA5
:1005A800A2F24369B2FA82F221F0F80193400B43B8
:1005B800236003681C074FD585690124002D40F08E
:1005C800AF8194FAA4F2454B4349B2FA82F213443C
:1005D8009A00022315600D682A190A6093FAA3F29B
:1005E80093FAA3F293FAA3F23A4E776A93FAA3F234
:1005F800B2FA82F202F01F0204FA02F23A4200F062
:10060800D681EF1893FAA3F293FAA3F293FAA3F21E
:10061800D6F824C093FAA3F2B2FA82F202F01F02CB
:1006280004FA02F212EA0C0F14D0EF1C93FAA3F2A8
:1006380093FAA3F293FAA3F2726A93FAA3F3B3FAC2
:1006480083F303F01F0304FA03F3134202D00435C3
:100658000D60A2E003680F6059074FD51D4BDA699A
:10066800D20040F1A9814FF000091D4E1A493468A3
:100678000D6814F4807405F1010217D1336843F44E
:100688008073336005F1660C0A60134605E0013398
:1006980063454FF0010400F0A1823768FF05F6D5E5
:1006A800002C40F09F82AB1C15461A46C668012EE6
:1006B80000F05082002E00F0DD81064B052E1C6AEA
:1006C80000F0768224F001041C621C6A24F0040401
:1006D8001C6244E200100240800400202081901037
:1006E80000700040BEF1000F00D00A60B9F1000FA1
:1006F80004D0C34AD36923F08053D361C369002B64
:1007080000F0EF80BE4C626802F00C02082A00F08C
:100718000381022B4FF080735ED093FAA3F3B3FAF0
:1007280083F303F1845303F584139B00B549002236
:100738001A600868431C0B604FF0007393FAA3F229
:10074800266893FAA3F2B2FA82F202F01F02012598
:1007580005FA02F2324200F0C480861C93FAA3F232
:10076800276893FAA3F2B2FA82F202F01F0205FA9E
:1007780002F23A4200F0B480C61C93FAA3F222684F
:1007880093FAA3F3B3FA83F303F01F0305FA03F311
:10079800134200F0A58004300860032003B0BDE8D0
:1007A800F0834A68D7037FF568AE4FF4003292FAB7
:1007B800A2F193490C6892FAA2F2B2FA82F202F01C
:1007C8001F02012101FA02F222423FF496AE42686A
:1007D800002A7FF492AE9FE093FAA3F3B3FA83F36F
:1007E80003F1845303F584139B00864900221A60A1
:1007F8000D686B1C0B604FF0007393FAA3F2276827
:1008080093FAA3F2B2FA82F202F01F02012606FA64
:1008180002F23A421FD0AF1C93FAA3F2D4F800C0F8
:1008280093FAA3F2B2FA82F202F01F0206FA02F277
:1008380012EA0C0F0ED0EF1C93FAA3F2226893FA77
:10084800A3F3B3FA83F303F01F0306FA03F3134287
:100858007FF4FDAE0F606A4C436A6268006A22F456
:1008680074120343134363604FF0807393FAA3F346
:10087800B3FA83F303F1845303F584139B00012037
:1008880018600D682B180B604FF0007393FAA3F2F1
:10089800266893FAA3F2B2FA82F202F01F0200FA73
:1008A80002F232421DD1AE1C93FAA3F2276893FAE2
:1008B800A3F2B2FA82F202F01F0200FA02F23A42FE
:1008C8000ED1EE1C93FAA3F2226893FAA3F3B3FABB
:1008D80083F303F01F0300FA03F313423FF4B7AEA8
:1008E8000E60002003B0BDE8F0835268D5033FF5E1
:1008F80012AE022292FAA2F141490C6892FAA2F2CF
:10090800B2FA82F202F01F02012101FA02F2224237
:100918005ED002698A425BD0012003B0BDE8F08353
:1009280094FAA4F2384B3749B2FA82F213449A0087
:10093800022314600D682A190A6093FAA3F293FA45
:10094800A3F293FAA3F22E4E776A93FAA3F2B2FABD
:1009580082F202F01F0204FA02F23A4227D1EF189B
:1009680093FAA3F293FAA3F293FAA3F2D6F824C067
:1009780093FAA3F2B2FA82F202F01F0204FA02F228
:1009880012EA0C0F12D1EF1C93FAA3F293FAA3F216
:1009980093FAA3F2726A93FAA3F3B3FA83F303F018
:1009A8001F0304FA03F313423FF451AE0F600368C8
:1009B80059077FF5A3AE51E6DA6942F08052DA6151
:1009C800DB6903F080530193019B4FF001094CE66A
:1009D8000B4DF8212C6891FAA1F14269B1FA81F125
:1009E80024F0F8048A4022431C072A607FF534AEBD
:1009F800E2E5034A136843F48033136052E500BF0D
:100A0800001002408004002020819010784F79491E
:100A18003A6822F480323A603A6822F480223A60D6
:100A2800FA6A856822F00F022A43FA620E68721C7D
:100A3800A4460A6066364FF400344FF0010E05E014
:100A48000132B2424FF0010C00F0CA8094FAA4F3CC
:100A58003D6894FAA4F3B3FA83F303F01F030EFA84
:100A680003F32B42ECD10368BCF1000F3FF445AD12
:100A78000A6042E55E4F3B6A23F001033B623B6A32
:100A880023F004033B62ED430A6002244FF0010E99
:100A980041F2883816E094FAA4F3D7F824C094FAFF
:100AA800A4F3B3FA83F303F01F030EFA03F313EA74
:100AB8000C0F00F085800132AB1843454FF001065A
:100AC80000F28E8094FAA4F394FAA4F3002BE2D0F7
:100AD800D7F820C0E3E794FAA4F2B2FA82F202F15E
:100AE800845202F584129200424913600D682B1952
:100AF8000B60022393FAA3F23D4E376893FAA3F2F0
:100B0800B2FA82F202F01F0204FA02F23A425BD011
:100B1800EF1893FAA3F2D6F800C093FAA3F2B2FA48
:100B280082F202F01F0204FA02F212EA0C0F0ED04F
:100B3800EF1C93FAA3F2326893FAA3F3B3FA83F3A0
:100B480003F01F0304FA03F313427FF480AD036834
:100B58000F602FE5264C236A43F0010323620A60E5
:100B6800ED434FF0000E0224DFF884C0012741F264
:100B7800883814E094FAA4F3DCF8246094FAA4F317
:100B8800B3FA83F303F01F0307FA03F333427FF446
:100B9800A9AD0132AB1843454FF0010E20D894FAA5
:100BA800A4F394FAA4F3002BE4D0DCF82060E5E782
:100BB80044F004041C621C6A44F001041C62CEE781
:100BC800002E3FF493AD90E50368F3E442F48022ED
:100BD8001A601A6842F480321A6063E40B60DCE53C
:100BE8000A60DAE50B605A1C1D465FE50A6083E47B
:100BF8000010024080040020774A136803F00703BE
:100C08008B420BD2136823F007030B43136013685E
:100C180003F007038B4201D0012070470368F0B44A
:100C28009D0706D56D4C8568626822F0F0022A435C
:100C38006260DC0732D54568012D00F09780022DEF
:100C480065D0022292FAA2F4644C276892FAA2F2C2
:100C5800B2FA82F202F01F02012606FA02F23A42C2
:100C68002CD062685E4E22F003022A436260376825
:100C78007A1C07F59C5732600A374FF0000C05E0E4
:100C8800013297424FF0010C00F0A080656815F022
:100C98000C0FF5D1BCF1000F00D032604E4C226829
:100CA80002F007028A420CD9226822F007020A439E
:100CB8002260226802F007028A4202D00120F0BCBA
:100CC80070475A0706D54549C4684A6822F4E06265
:100CD80022434A601B0707D5404A0169536823F439
:100CE800605343EAC10353603C4BF0225B6892FABD
:100CF800A2F2B2FA82F203F0F003D34039493A4A39
:100D0800C95C1368CB4000201360F0BC70474FF0FB
:100D1800007292FAA2F4314D2E6892FAA2F2B2FA57
:100D280082F202F01F02012404FA02F23242C5D014
:100D38006A682B4E22F0030242F002026A603768AA
:100D48007C1C07F59C5734600A374FF0000C04E010
:100D58000134A7424FF0010C38D06A6802F00C0247
:100D6800082AF5D1BCF1000F98D02DE04FF40032DD
:100D780092FAA2F4194F3C6892FAA2F2B2FA82F2FD
:100D880002F01F0205FA02F2224297D07A68144E46
:100D980022F0030242F001027A603268541C02F524
:100DA8009C5C3D4634600CF10A0C002704E00134D9
:100DB800A4454FF001070CD06A6802F00C02042A1F
:100DC800F5D1002F3FF46AAF346067E7376003203E
:100DD80075E7C6F800C0FAE700200240001002409C
:100DE800800400204433000830000020D1F800C0FF
:100DF800BCF1000F00F0C3802DE9F04FDFF8A0E14F
:100E080083B0884600254FF0010909FA05F212EA75
:100E18000C0670D0D8F8041021F0100ABAF1020FAD
:100E280070D06F000323D0F800B0BB40DB4301F063
:100E3800030403EA0B0BBC400AF1FF3A44EA0B0433
:100E4800BAF1010F04607ED9C468D8F8082023409D
:100E5800BA401A43CF00C2604DD54C4A936943F05B
:100E680001039361936925F0030202F1804203F0C4
:100E7800010302F58032019305F00303019C946895
:100E88009B000F279F40B0F1904F24EA070410D031
:100E98003F4FB8426FD03F4FB84267D03E4FB8423D
:100EA8006ED03E4FB8420CBF0427052707FA03F35C
:100EB8001C439460DEF80030F243CC0354BF134067
:100EC8003343CEF80030DEF804308F0354BF1340AC
:100ED8003343CEF80430DEF80830CC0254BF134058
:100EE8003343CEF80830DEF80C30890254BF134083
:100EF8003343CEF80C3001353CFA05F385D103B005
:100F0800BDE8F08FEF0800EB870705F007043B6AA0
:100F1800A4004FF00F0A0AFA04FB23EA0B0AD8F8D8
:100F28001030A34043EA0A033B626F000323D0F862
:100F380000A0BB40DB4301F0030403EA0A0ABC40FB
:100F480044EA0A040460846804EA030AD8F80C40F6
:100F5800BC4044EA0A048460D0F804A0C1F3001439
:100F68002AEA0202AC40144344606DE7022707FAFC
:100F780003F31C439DE709FA03F31C4399E7704701
:100F8800032707FA03F31C4393E700BF001002404E
:100F98000004004800080048000C00480010004801
:100FA800000401400AB9816270478161704700BF3F
:100FB800002800F0288190F86930F0B4024603F068
:100FC800FF01002B3BD01368D469242182F86910F3
:100FD80018689168D2E9046520F001001860186863
:100FE8003143294320F4164020F00C0021430143EB
:100FF80019605868D5689169166A20F440502843EA
:1010080058609868B24D20F4306031430143AB42D8
:10101800996017D0AF498B4236D0AF498B4200F068
:10102800B880AE498B424CD0AD498B4200F0068166
:10103800B4F5004F00F043810120F0BC704780F800
:101048006810C0E7A748A849006B00F003000144F6
:10105800B4F5004F097C00F002810829ECD801A002
:1010680050F821F087110008EB100008F91100086A
:1010780041100008871100084110000841100008BD
:1010880041100008BB11000801F5E631096B01F4B5
:101098004031B1F5803F00F0988040F29380B1F57F
:1010A800003F00F08280B1F5403FC1D1B4F5004F58
:1010B80040F09E805068410801F1F47101F59041BB
:1010C8008CE001F5E231096B01F44011B1F5801FA4
:1010D8007BD077D9B1F5001F67D0B1F5401FE5D0B7
:1010E800A6E750687A4C410801F5E101B1FBF0F13F
:1010F80089B2E16059687D4F21F49041596099683F
:101108003E6821F02A0199601968002541F0010123
:101118001960D5661968741C08073C6011D506F17A
:10112800007C0CF1010C204604E0013060454FF0D2
:1011380001056AD0D96911F40011F6D0002D40F0EC
:10114800C4801968490710D5F643002506E0013424
:101158003019B0F1007F4FF0010569D2D96911F457
:101168008001F4D0002D40F0AE802023002082F8CA
:10117800693082F8680082F86A30F0BC70475C49D0
:101188005068096801EB5001B1FBF0F189B2D960F0
:10119800B0E701F5E431096B01F44021B1F5802F86
:1011A80013D00FD9B1F5002F70D1B4F5004F00F06E
:1011B80081805068410801F50041B1FBF0F189B226
:1011C800D96097E700297FF433AFB4F5004FD6D143
:1011D800474950680C68410801EB4401B1FBF0F144
:1011E80021F00F0080B2C1F342010143D96081E7C9
:1011F8005068410801F5740101F51051B1FBF0F197
:1012080089B2D96076E7012070471C68386024F4F9
:10121800D0741C609868202420F00100986082F83F
:101228006940032082F86A4082F86810F0BC704771
:1012380018683C6020F4D0701860EBE701F5E031E5
:10124800096B01F44001B1F5800FBED0BAD9B1F5F0
:10125800000FAAD0B1F5400F3FF428AFE8E60829FF
:101268002DD801A050F821F0D91100089F120008CC
:10127800BD100008C7120008D9110008C7120008DD
:10128800C7120008C7120008BD120008B1F5402FA8
:101298003FF40CAFCCE650680D4C410801F56101F4
:1012A800B1FBF0F121F00F0080B2C1F3420101431C
:1012B800E1601FE75068410801F580318EE70022A0
:1012C800DA600120B9E63C604FE73860044638E749
:1012D800003801400044004000480040004C0040F5
:1012E80000500040001002404433000880040020F1
:1012F8003000002070B52E4B2E4C2F4A2260DA6940
:101308002E4842F00072DA61DA6992B002F0007297
:101318000192019A5A6942F480225A615B6903F486
:1013280080230293082500234FF480324FF4407144
:1013380065602261C4E902330322C4E90533C4E9C4
:101348000733C4E90933E3620593039109230225AE
:1013580003A9029E0495CDE90623FFF747FD204621
:1013680000F044FB08BB034601220E2508A92046CD
:10137800CDE90D33CDE90833CDE90A330C93CDE936
:101388000F22119500F0C0FA78B94FF492730C4D02
:101398002364042104F1400204F15C03C4E91151FF
:1013A800C4E90C23E06412B070BD4FF0FF30FAE7D7
:1013B8000010024088040020006400400004004837
:1013C800BA5A3412072A20DD70B5114C00220E4695
:1013D80005461146204600F099FB68B904F17003F0
:1013E80003CB28606960D4E91732616E042908BF0D
:1013F80013463360E06E70BD0138C0B2022896BF54
:10140800044B6FF00500185670BD6FF0010070476F
:1014180088040020603300082F4B70B59A692F4C60
:1014280042F400629A619A6988B002F400620192FB
:10143800019A5A6942F400325A615B694FF40061BB
:1014480003F4003302200025029303220B230391A7
:10145800049003A94FF09040029E079304F1D4062C
:10146800CDE90552FFF7C2FC1D49C4F8D41010227B
:101478004FF6FF7380206021C4F8DC20C4F8E03008
:1014880004220823C4F8EC00304684F8F030C4F88D
:101498001411C4F82421C4F8D850C4E93955C4F843
:1014A8001851C4F81C51C4F82051C4F82851C4F884
:1014B8002C5100F02DF804F58A710C22304600F00A
:1014C800DDF830460C2100F0ABF8401B18BF0120B6
:1014D800404208B070BD00BF0010024088040020E0
:1014E800002C014010B5084901F1D404C1F81801D5
:1014F8000C2201F58A71204600F0C0F820460C2124
:10150800BDE8104000F08CB888040020704700BF88
:1015180000286BD0F8B590F83D30044603F0FF0280
:1015280063B322683B4EA569E0686168022384F8CA
:101538003D30B24213685BD0B2F1804F3CD0A6F583
:101548009436B2421FD006F58066B2421BD006F52B
:101558009636B24217D006F54066B24257D006F525
:101568008066B24253D006F58066B2424FD023F06F
:1015780080032B431360D062916217E080F83C200F
:10158800FFF7C4FFCDE7A668234F23F0700333436A
:10159800266923F44073334323F080032B43BA4274
:1015A8001360D062916215D163691363012353619B
:1015B800002084F83D30F8BDA768266923F0700341
:1015C8003B4323F44073334323F080032B431360DE
:1015D800D0629162114B9A42E6D003F580639A4239
:1015E800E2D003F580639A42E0D1DDE7012070473D
:1015F800A768266923F070033B4323F44073334301
:1016080023F080032B431360D0629162CCE72669F4
:10161800F3E700BF002C01400034014000400140C6
:1016280003680122186A02FA01F120EA010010B4E5
:1016380018621A6A0F4C1143A34219620ED00E4A5F
:1016480093420BD002F54062934207D002F58062C4
:10165800934203D002F58062934203D15A6C42F45C
:1016680000425A641A685DF8044B42F001020020F7
:101678001A607047002C01400034014090F83C305B
:10168800012B00F02681F0B40223012480F83C40AD
:1016980080F83D300C2A50D8DFE812F00D004F00DA
:1016A8004F004F0098004F004F004F00DA004F00E6
:1016B8004F004F0058000368D1F808C01D6A0F6832
:1016C800904E25F001051D621A6A5D689C6924F434
:1016D800803422F0020224F07304B34242EA0C027E
:1016E80044EA07040CD006F50066B34208D006F5B4
:1016F8004066B34204D006F58066B34240F0FB80F2
:10170800CE6822F008023243D1E9056725F4407516
:101718003E4322F0040235434E685D609C615E637F
:101728001A629C690D6944F008049C61996921F06A
:10173800040199619A692A439A610023012280F879
:101748003D2080F83C30F0BC184670470368D1F85B
:1017580008C01D6A0F686B4E25F480551D621C6A0F
:101768005D68DA6922F0807224F4005422F4E642BB
:10177800B34244EA0C3442EA07220FD006F5006669
:10178800B3420BD006F54066B34207D006F5806633
:10179800B34203D006F58066B34204D14E6925F4FE
:1017A800804545EA86154E685D60DA611E641C62F4
:1017B800DC690D6944F40064DC61D96921F4806155
:1017C800D961DA6942EA0522DA61B6E70368D1F835
:1017D80008C01D6A0F684B4E25F010051D621C6A73
:1017E8005D689A6922F0807224F0200422F4E642AF
:1017F800B34244EA0C1442EA072274D006F50066A4
:10180800B34270D006F54066B34207D006F580664D
:10181800B34203D006F58066B34206D1D1E9056725
:1018280025F440653E4345EA86054E685D609A6149
:101838009E631C629C690D6944F400649C6199690B
:1018480021F4806199619A6942EA05229A6174E7F4
:101858000368D1F808C01D6A0F682A4E25F4807500
:101868001D621C6A5D68DA6922F4803224F400740F
:1018780022F07302B34244EA0C2442EA07022AD057
:1018880006F50066B34226D006F54066B34207D097
:1018980006F58066B34203D006F58066B34206D1EA
:1018A800D1E9056725F440553E4345EA06154E68DB
:1018B8005D60DA61DE631C62DC690D6944F008046E
:1018C800DC61D96921F00401D961DA692A43DA6156
:1018D80033E702207047CE6824F4006444EA062403
:1018E80024F48064DCE7CE6824F0800444EA06141B
:1018F80024F0400492E706F58066B3427FF40CAF0B
:10190800FEE600BF002C014003684869D3F80022B6
:1019180042F001022DE9F041CE69C3F8002201220C
:10192800D3F81C428240D5432C40C3F81C42002EF9
:1019380041D1D3F80C72CE68B1F804C00C8803EB1F
:10194800C00805EA07008F68C3F80C024CEA06468F
:1019580044EA0744C8F84062C8F84442886920BB92
:10196800D3F804022840C3F804020869A8B9D3F8D8
:1019780014022840C3F81402096A012904D1D3F8D3
:101988001C120A43C3F81C22D3F8002222F00102D9
:10199800C3F800220020BDE8F0810128ECD1D3F87B
:1019A80014021043C3F81402E6E7D3F80402104304
:1019B800C3F80402D9E7012ED0D1D3F80C620F681E
:1019C800B1F804E0B1F80CC003EBC00446EA020029
:1019D8008E68C3F80C024EEA07474CEA0646C4F87C
:1019E8004072C4F84462B9E7704700BF002800F0AD
:1019F8008A8090F8393070B503F0FF020546002B55
:101A080071D02B68022285F839201A6822F0020268
:101A18001A601A6842F001021A60FEF713FD0646C2
:101A280005E0FEF70FFD801BB0F57A7F65D82A68C0
:101A3800546814F00104F4D05368D90758D5AB6939
:101A4800012B13680CBF43F0800323F0800313605D
:101A5800EB69012B13680CBF43F0400323F04003EC
:101A680013602B6A012B13680CBF43F0200323F08B
:101A7800200313606B6A012B13680CBF43F010033B
:101A880023F010031360AB6A012B13680CBF43F0FB
:101A9800080323F008031360EB6A012B13680CBFDB
:101AA80043F0040323F004031360D5E90231D5E9B8
:101AB80004400B4369682343034301390B43D36153
:101AC800136823F001031360FEF7BCFC2A6853680F
:101AD800DB07FCD4506810F0010009D10123E8634A
:101AE80085F8393070BD80F83820FFF77DFF88E72A
:101AF800042385F83930012070BD032085F838406B
:101B080085F8390070BD0120704700BFF8B590F81E
:101B18003830012B00F08C8090F83930122B4FF0C0
:101B280001040CBF3223222380F8384080F8393072
:101B380016460D460446FEF785FC07462368002D29
:101B480052D0701C60D11A699107FCD003EB0511C3
:101B5800626BD1F8B00100F004009060002849D011
:101B6800D1F8B001C008506003EB0510D1F8B0C13E
:101B7800D1F8B471D1F8B461D0F8B8111175D0F8B2
:101B8800B811090A5175D0F8B811090C9175D0F837
:101B9800B811090ED175D0F8BC111176D0F8BC1166
:101BA800090A5176D0F8BC11090C9176D0F8BC110D
:101BB80007F00F070CF00200C6F30726090EC2E96A
:101BC8000307D661D176D5B9DA6842F02002DA6027
:101BD80094F83930322B0CBF12230123002084F8EB
:101BE800393084F83800F8BD701C1DD1DA689107C7
:101BF800FCD0ABE7D1F8B001400D1060B4E71A692A
:101C080042F020021A61E3E71A6992079ED126B1D1
:101C1800FEF718FCC01BB04290D90320002384F8BB
:101C2800390084F83830F8BDDA689207EFD08DE7CC
:101C38000220F8BD014800F013B800BF5428002066
:101C480001468022014800F011B800BF5428002046
:101C5800034602460121014801F002BA5428002037
:101C68004FF48C72002101F085BA00BF2DE9F04FC6
:101C7800E94E8DB034680990CDE90A21002C00F0B6
:101C8800CD810A9BC02B00F0E182B3F5807F00F084
:101C9800F382802B04D06FF01F000DB0BDE8F08FE9
:101CA800099B0A271F601D4603F108000A9B0B9930
:101CB80045F8040F4FEA531C4FF0000E8B7891F84B
:101CC80001800C78CA781B0443EA082323430EF1E9
:101CD800010E43EA0263E64545F8043F01F10401B9
:101CE800ECD30C2F00F038830E2F00F0C9820A2F96
:101CF80040F08E81099AD6F8044453691169D2E9F3
:101D08000250C3F30722324406EB136792F82C24DF
:101D180097F82C746C40624056FA83F5C3F3074475
:101D2800344495F82C5494F82C4482EA074282EA09
:101D3800056282EA042282EA000585EA0104099F15
:101D480083EA040EC7E90625C7E9084ECEF3072043
:101D58003044D6F8084490F82C043B46624006EB21
:101D68001E6756FA8EF45040CEF3074297F82C744B
:101D780094F82C44324480EA074092F82C2480EAF4
:101D8800046080EA0220414080EA0502C3E90A02B1
:101D980081EA0E04C4F30727374419635C63D6F855
:101DA8000C5497F82C7406EB146C684056FA84F5BA
:101DB800C4F30744784034449CF82C7495F82C54A8
:101DC80080EA074794F82C0487EA056787EA002722
:101DD8007A408EEA020ECEF3072082EA01043044EC
:101DE800C3E90E72C3F844E01C64D6F8105490F8A6
:101DF8002C04D6F814447D40684006EB1E6756FA5A
:101E08008EF597F82CC495F82C74CEF30745354415
:101E180080EA0C4095F82C5480EA076080EA052097
:101E280081EA000888EA0E054240C3E91328C5F391
:101E38000727374498645D6597F82C7406EB156C92
:101E4800604087EA000456FA85F7C5F30740304436
:101E58009CF82C5497F82CC490F82C7484EA054507
:101E680085EA0C6080EA072080EA02058EEA050E02
:101E7800C3E91605CEF3072285EA08073244C3F8FA
:101E880064E01F66D6F8184492F82C2406EB1E6707
:101E98006040424056FA8EF4CEF3074097F82C740F
:101EA80094F82C44304482EA074290F82C0482EAE1
:101EB800046282EA002288EA020181EA0E0782EAC5
:101EC8000504C3E91B41C7F3072030449A665F67DE
:101ED800D6F81C5490F82C046A4006EB176556FA9D
:101EE80087FC5040C7F3074295F82C549CF82C7493
:101EF800324480EA054092F82C5480EA076282EA6C
:101F080005225440099D84EA0E0EC5E91E24284680
:101F1800CEF3072384EA01073344C5F884E0C0F808
:101F28008070D6F8205493F82C346A4006EB1E676C
:101F380056FA8EF55340CEF3074297F82C7495F86D
:101F48002C54324483EA074392F82C2483EA05632D
:101F580083EA022381EA030888EA0E0783EA040277
:101F6800C0E92328C7F307253544C0F88830C0F8EE
:101F78009470D6F8244495F82C54634006EB176403
:101F880056FA87FC5D40C7F3074394F82C449CF845
:101F98002CC4334485EA044593F82C74D6F82844B5
:101FA80085EA0C6383EA072382EA030501468EEA81
:101FB8000500C1E92635C0F3072288EA050732443F
:101FC800C1F8A400C1F8A07092F82C2406EB1067A1
:101FD8006340534056FA80F4C0F3074297F82C74D4
:101FE80094F82C44164483EA074396F82C2483EA91
:101FF800046383EA022388EA0301099A48405D40A2
:10200800C2F8B400C2F8B010C2F8AC50C2F8A83098
:1020180000200DB0BDE8F08FB80500200222012392
:102028001046B460C6F82C3606F22C6521462246C6
:1020380009E006EB830012F0800245F8043F416096
:1020480018BF1B225800434001315A40B1F5807F28
:10205800D3B2EED102230422C6F808340823C6F806
:102068000C24C6F8103410222023B64FC6F81424C6
:10207800C6F8183440228023C6F81C24C6F8203439
:102088001B223623012507F58560C6F82424C6F8E7
:102098002834632200238446C6F8045486F82C2486
:1020A80086F88F3557F8043FC3F1FF0306EB830327
:1020B800D3F82C36DA1142EA4302D2B2D41144EAF8
:1020C8004204E4B2E11141EA4401C9B283F0630376
:1020D8005340CA11634042EA4102D2B24B405340D6
:1020E800F2180CF8013F82F82C550135B5F5807FC0
:1020F800D8D1F36B0593B36A0693B36BDFF850C27C
:102108000793336B089300F1FF0304930CF5806386
:10211800019306F6282306F22B47039306F22B5366
:102128000CF5006A0CF5406906F6286B06F5C568DB
:10213800B64602930097009B019C13F8012F009369
:10214800510010064FEA024348BF81F01B01C9B293
:1021580043EA02234B404A40029943EA026311F8DA
:10216800012F02914FEA336144F8041F4CF8043FF1
:102178004FEA33414FEA332306EB820001944AF8D1
:10218800041F49F8043F002A64D04368079A6E493F
:10219800981881FB0024069A9D182218C417C4EBCE
:1021A800E21481FB0571C4EB04242944001B059A41
:1021B800089FEC17C4EBE111634C1A44C1EB0121F1
:1021C8003B4484FB02741444691AD517C5EBE41523
:1021D8005D4CC5EB052584FB03741C44521BDD17BD
:1021E80006EB8000C5EBE414C4EB042406EB810184
:1021F800D0F82C06D1F82C161B1B06EB820206EB36
:102208008303D2F82C26D3F82C36039C000480EAEA
:102218000121514081EA03614FEA31424FEA3123FB
:1022280048F8042F4EF8043F009A049B44F8041F12
:102238004FEA3160934203944BF8040F7FF47BAF6D
:10224800012333600A9BC02B7FF41FAD099B0C2729
:102258001F6028E5039B4BF8042F43F8042F48F828
:10226800042F03934EF8042F049B009A93427FF4A3
:1022780062AF01233360E5E7099B0E271F6012E573
:10228800099BDFF8D0905C6AD3E9037CD3E907E8BF
:10229800D3E905519B68CDF800C0BC467746C4F326
:1022A800072EB64459F804BF9EF82CE4009A06EBB2
:1022B800146A83EA0B038EEA030356FA84FBC4F319
:1022C800074E9AF82CA49BF82CB4B64483EA0A4328
:1022D8009EF82CE483EA0B6383EA0E238CEA030C52
:1022E80082EA0C025540C0E90A25C0E9083C56FAC2
:1022F80085FB06EB156A9BF82CB49AF82CA400927F
:10230800C5F3072E8BEA0101B644C5F3074BB34466
:102318009EF82CE49BF82CB40C4A81EA0A6181EA05
:102328000E2181EA0B414F4088EA070884EA080435
:102338009145C0E90E84C0E90C1700F12000AED128
:10234800002066E6BC05002081808080D40900203A
:10235800E0170020B8090020099FD6F80444F9695D
:10236800BB68FA68C1F3072C06EB116EB444C1F3DD
:1023780007499CF82C849EF82CC456FA81FE6340C9
:1023880006EB09049EF82CE494F82C4483EA08032D
:1023980083EA0C43D7E9045083EA0E6383EA0423F3
:1023A8005A40BF6985EA020E80EA0E0487EA040CE7
:1023B80081EA0C0B0999C1E90832C1E90CCBCBF3CE
:1023C8000720C1F828E0304406EB1B6CCC62D6F835
:1023D800081490F82CE49CF82C04CBF3074856FA20
:1023E8008BFCB0444B408EEA03039CF82CE498F82D
:1023F8002CC4099983EA004383EA0E6383EA0C2319
:102408005D4087EA050C8BEA0C0082EA030EC0F3F4
:102418000728C1E90FE5C1E912C006EB080284EA02
:102428000508C1F8448006EB10688B6392F82C9479
:1024380098F82C84D6F80C2456FA80FA5340C0F346
:10244800074232449AF82C0492F82C2489EA0309AA
:1024580089EA084989EA006080EA02208EEA0002D7
:1024680054408BEA040E8CEA040CC1E9174CC1E90C
:10247800140285EA0203CEF307288B65B044D6F828
:102488001034C1F864E006EB1E6C98F82C849CF8B4
:102498002CC44340CEF3074956FA8EF0B14488EA7B
:1024A800030390F82C8499F82C0483EA0C4383EAFC
:1024B800086383EA002387EA030A8EEA0A0C5A4073
:1024C800C1E91A325D40CCF3072084EA050E304496
:1024D800C1F87CC00D67C1F874E0C1F878A090F825
:1024E8002C84D6F8140406EB1C6E56FA8CF9CCF33F
:1024F800074C9EF82CE44340B44488EA030399F857
:102508002C849CF82CC483EA0E4383EA086383EA8C
:102518000C235A400F468BEA02015440C7E9203287
:10252800C1F3072C85EA0200B4448AEA040806EBE2
:10253800116EC7F88C40C7F89410C7F88800C7F820
:1025480090809CF82C84D6F818049EF82CC4C1F30B
:10255800074956FA81FE434006EB090088EA03035F
:102568009EF82C8490F82CE483EA0C4383EA0863F1
:1025780083EA0E235D408AEA050081EA000E5A408C
:10258800C7E92725C7E92A0ECEF3072884EA0509F3
:10259800B044C7F89830C7F8A490D6F81C7498F8D7
:1025A8002C8406EB1E697B4088EA030356FA8EF8F2
:1025B800CEF3074E99F82C9498F82C84099FB644CA
:1025C80083EA09439EF82CE483EA086383EA0E232E
:1025D8005A405440614080EA040CC7E92C32C7E9EC
:1025E80030C1C1F3072E85EA020006EB1168B64434
:1025F800C7F8BC40C7F8B800D6F820749EF82CC4B9
:1026080098F82CE4C1F3074956FA81F87B404E4408
:102618008CEA030398F82CC496F82C0483EA0E433A
:1026280083EA0C6383EA00235D4009988AEA03077A
:102638006C4079405A40C0F8D440C0F8DC10C0F86B
:10264800D050C0F8D870C0F8CC20C0F8C8300020EE
:10265800DFE400BF2DE9F04FD0E9000589B00E682E
:10266800D1F804E0D1F808A0D1F80C800692411006
:102678006A68E8682B68AC6807918EEA020E01392F
:1026880088EA00020292002905F11002019183EA0A
:1026980006038AEA040A0592DFF8D89440F36582B3
:1026A800DDF8088005F1300BDDB25FFA88F44FEAF7
:1026B8001A6009EB850509EB800009EB84045BF8D7
:1026C800206CD5F83451D0F834CDD4F834415BF8C7
:1026D800140C75404FEA1E665FFA8EF1444009EB10
:1026E8008606180E09EB800009EB8101D6F8346DD7
:1026F80004964FEA1867D0F8346DD1F834115BF8B6
:102708001C0C09EB87075FFA8AF284EA0C04CAF307
:10271800072CD7F8347D414009EB8C0CCEF3072009
:1027280009EB820209EB8000D2F83421D0F8340595
:1027380002907D4071405BF8187CDCF834650396A4
:10274800049E7A407240C8F3072C029ECEF3074ECF
:10275800CAF3074AC8F3074809EB8E0EC3F30727E5
:1027680009EB8A0A09EB8C0CC3F3074309EB8808C9
:10277800754009EB8707039EDEF83409D8F83489D9
:10278800DAF834E9DCF834A5D7F8347509EB8303B3
:102798007140D3F8343981EA080182EA0A025A40C2
:1027A8007C40C1F30727604085EA0E05C2F3074A5B
:1027B80009EB87075FFA85FE030E5FFA81F84FEA97
:1027C800156C09EB8A0AD7F834750297C0F30746E7
:1027D80009EB8E0E09EB830309EB880809EB8C0CD7
:1027E800DAF83479DEF834E1D3F8343D039709EBAD
:1027F8008606D8F83481DCF834CDD6F834690496E6
:1028080088EA0C08D6B24FEA116C09EB8C0C09EB7C
:1028180086065BF8107CDCF834ADD6F834618EEAB5
:1028280003037B40029F86EA0A06C5F3072C5FFA7A
:1028380080FAC5F30745C0F30720C2F3072409EB64
:10284800800009EB85057B40120E5BF80C7C09EBD8
:10285800820209EB8A0A88EA070E09EB8404D0F899
:102868003475D5F834095BF8085CD2F8348DDAF899
:102878003421D4F8344586EA050AC1F307415BF8E8
:10288800045C049E09EB8C0C82EA080209EB8101C6
:102898008EEA040E82EA0508DCF83445019AD1F87C
:1028A80034198AEA070A039F88EA0408013A83EA86
:1028B80007038EEA060E8AEA000A88EA01080BF185
:1028C800200B01927FF4F0AE079A0599CDF80880A5
:1028D80002F10062013A01EB4212059242464FEAC8
:1028E80013685FFA82FC4FEA1A6009EB880809EB63
:1028F8008C0C09EB8000D8F834BDD0F8340DDCF826
:102908003481140ECAF3072209EB820288EA000810
:102918000298D2F834C5DEB209EB8606C0F3072266
:1029280009EB840409EB8202D6F8346101965FFA58
:102938008AF54FEA1E67D4F8346DD2F83425059C21
:1029480002925FFA8EF109EB850509EB870709EB1F
:102958008101C3F30722D5F83451D7F8347D646870
:10296800039409EB8202D1F83411C3F3074385EAD3
:10297800070409EB8303D2F83475039AD3F8345962
:10298800059B81EA0B014A4001994E401946C0F364
:102998000740896809EB80004C40CEF30721CEF34D
:1029A800074ED0F834B9D8681B6809EB8E0E88EA50
:1029B8000008DEF8340986EA030E029B059E09EB3F
:1029C80081015C406C406A4BD1F8341588EA0708ED
:1029D800CAF3074A88EA000009EB8A0A82EA0C026D
:1029E800C4F3072CC0F307459C4482EA0B02DAF8CB
:1029F80034A9376901971D448EEA0101C4F3074ED3
:102A0800D6E90576C2F307289CF82CC4CDF810C087
:102A18009E4481EA0A0195F82CC49EF82CE4CDF86E
:102A28000CE053FA82F598448B4653FA81FA95F8EC
:102A38002CE498F82C840199CDF8088003EB1B65E9
:102A48009AF82C84CDF804B08EEA070795F82CE4A0
:102A580053FA84F503EB106988EA0108059995F89B
:102A68002C5499F82C94D1F81CA0019953FA80FBA6
:102A780003EB14646E4003EB1265C2F307429BF844
:102A88002CB494F82C4495F82C541A4488EA096814
:102A9800C0F30720C1F307291844994492F82C245D
:102AA80090F82C0405928BEA0A0AC1F307418AEAD6
:102AB800046A1944029C99F82C34059A91F82C144C
:102AC80086EA056686EA0026002503988AEA032333
:102AD80088EA0428049C83EA024287EA0E672B46A8
:102AE80088EA004886EA014187EA0427160A284648
:102AF80062F3070387EA0C4C4FEA18290F0A2C46A1
:102B080061F3070068F3070566F30F23160C4FEA15
:102B18001C2E6CF3070469F30F2567F30F204FEAA7
:102B280018490F0C66F31743120E62F31F636EF316
:102B38000F24069A4FEA1C4E69F317454FEA1868A6
:102B480067F31740090E61F31F606EF317444FEAED
:102B58001C6C68F31F6515606CF31F64906000209F
:102B68005460D36009B0BDE8F08F029AB7E600BFA1
:102B7800B8050020B01600202DE9F04FD0E9005428
:102B880089B0D1F800804E68A368D1F808C0D1F8A0
:102B98000C9020686768069269100791E268DFF870
:102BA800BCB401398CEA030C002904F1100301912B
:102BB80088EA000886EA070A89EA0209059340F3C9
:102BC800168104F1300E5FFA88F05FFA8AF15FFA35
:102BD8008CF64FEA1A654FEA1C620BEB80000BEB90
:102BE80086060BEB85050BEB82020BEB81015EF889
:102BF800204CD0F82C0AD6F82C7AD1F82C1A6E680A
:102C080055685EF81C2C60404FEA196451405FFA21
:102C180089F34FEA18620BEB84040BEB82020BEB8F
:102C280083036468D3F82C3A049454685EF8142C2F
:102C38005A40C9F307230BEB83036240D3F82C3EB9
:102C48000293CCF30724C9F30749CCF3074C5EF889
:102C5800183C0BEB89090BEB84040BEB8C0C7040D4
:102C68005F40D9F82C66C8F3072381EA0509C8F341
:102C78000748D4F82C5EDCF82C460394CAF3072CDA
:102C8800049C0BEB83030BEB88080BEB8C0CCAF34F
:102C9800074AD3F82C1ED8F82C36DCF82C8E67405F
:102CA8000BEB8A0A029CDAF82CC6604087EA080710
:102CB800039C5F4089EA01016A4060404E4082EA15
:102CC8000C0CC7F3074A5FFA80F84FEA1669CCF391
:102CD8000721F3B20BEB8A0A0BEB83030BEB880893
:102CE8000BEB89090BEB81013C0E0393DAF82C36C8
:102CF800D9F80490D1F82C1ED8F82C8A0293CCF37A
:102D08000742039B0BEB84040BEB8202D3F82C3AAB
:102D18006468D2F82C26039283EA040AFAB24FEACE
:102D28001C630BEB82020BEB83035EF8104C5B68B1
:102D3800D2F82C2AC0F307255FFA8CFC88EA090828
:102D48000BEB85050BEB8C094FEA106C5A400BEB2B
:102D58008C0C5EF80C3CD5F82C5E88EA0408C7F3A6
:102D68000727C6F30724C6F307460BEB87070BEBC9
:102D780084040BEB860688EA01088AEA030ADCF871
:102D88000410D9F82C3A8AEA050AD7F82C5ED4F848
:102D98002C7ED6F82C465EF8046C4B4083EA060974
:102DA800C0F30740029B5EF8081C0BEB800088EA22
:102DB8000308019BD0F82C0682EA010C039A8CEADE
:102DC800070C89EA0509013B8AEA020A8CEA000C29
:102DD80089EA04090EF1200E01937FF4F4AE079BF3
:102DE800059A03F10063013B02EB431305935FFA75
:102DF8008CF14FEA19670BEB81010BEB87075FFA40
:102E080088F54FEA1A60D1F82C1A7F680BEB850514
:102E18000BEB80005FFA8AF34FEA1C620BEB83032B
:102E28000BEB8202D5F82C5A4068D3F82C3A52683A
:102E38004F404FEA18665FFA89F4C9F307210BEB94
:102E480081010BEB86060BEB84046840059D039714
:102E58007668D1F82C7ED4F82C4A2D680195CAF3EF
:102E68000721CAF3074E5A40C8F307430BEB810109
:102E78000BEB8E0E0BEB8303744002970494D1F88E
:102E88002C7EDEF82C460199D3F82CE6059B4840A9
:102E9800C8F30728996801910BEB88080399DB6848
:102EA800C9F307490BEB8909CCF30726CCF307458F
:102EB800D8F82CCED9F82CA68846019988EA0109B9
:102EC80002990BEB86060BEB850548400499D6F86A
:102ED8002C6ED5F82C564B4005995E4049686840E1
:102EE800744089EA070787EA0E0EC0F30728C4F37F
:102EF80007474A40D8445F4482EA0C0C8CEA0A012E
:102F080097F82C7501905BFA80F5C4F3072698F8BA
:102F18002C050290CEF3074303975BFA81F2059FD5
:102F2800059892F82C25406995F82C555E445B4429
:102F380096F82CA593F82C853B690BEB11665D4040
:102F4800424096F82C35BE6938465BFA8EF70BEB93
:102F5800146997F82C750BEB1E6C5BFA84F49CF8DB
:102F68002CC594F82C45774099F82C65D0F81C901E
:102F7800019882EA0C62CEF3072E0BEB106CDE444C
:102F880084EA0904C1F30729C1F30741D944594424
:102F980085EA0363C0F307409CF82C559EF82CE59E
:102FA80099F82C9591F82C15584484EA056490F802
:102FB8002C05029D84EA0E2E87EA06678EEA0141F7
:102FC800039C87EA09274FF0000E87EA004083EA4E
:102FD8000A23774682EA052282EA044283EA0848FD
:102FE80076463C464FEA18294FEA122C050A0B0A86
:102FF80068F3070E62F3070760F3070661F3070437
:1030080069F30F2E6CF30F274FEA18494FEA124C59
:1030180065F30F2663F30F24050C0B0C69F3174EA9
:103028004FEA18686CF31747120E65F31746000E3F
:1030380063F31744090E069B60F31F6668F31F6E5F
:1030480062F31F6761F31F640020C3F800E05F604C
:103058009E60DC6009B0BDE8F08F00BFB8050020B5
:1030680010B40129144621461A4603D05DF8044BD2
:10307800FFF782BD5DF8044BFFF7ECBA002103E0CF
:103088000B4B5B58435004310A480B4B42189A4289
:10309800F6D30A4A02E0002313600432084B9A422E
:1030A800F9D3AFF3008000F00FF8FDF7BBF8FEE7A7
:1030B8007433000800000020640400206404002029
:1030C80090290020FEE7000070B50D4E0D4D761BCF
:1030D800B61006D00024013455F8043B9847A642A0
:1030E800F9D1094E094D761B00F01CF9B61006D02F
:1030F8000024013455F8043B9847A642F9D170BD25
:103108006833000868330008703300086833000823
:10311800032A70B414D940EA0105AD0704460B46EA
:1031280022D11D682668AE421946204603F10403E1
:1031380004F1040418D1043A032A20461946F0D8A9
:10314800541E72B102780B789A4208BF641806D0F0
:103158000CE010F8012F11F8013F9A4206D1A14264
:10316800F7D1002070BC7047541EEBE7D01A70BC32
:10317800704700BFF0B4860743D0541E002A3ED0E3
:10318800CAB2034602E014F1FF3438D303F8012B26
:103198009D07F8D1032C2BD9CDB245EA05250F2C74
:1031A80045EA054516D9A4F110073F0903F12006A1
:1031B80006EB071603F1100242E9045542E90255ED
:1031C8001032B242F8D104F00F040137032C03EB9C
:1031D80007130DD91E462246043A032A46F8045B13
:1031E800FAD8221F22F003020432134404F0030425
:1031F8002CB1C9B21C4403F8011B9C42FBD1F0BCA2
:10320800704714460346C5E7024B13B1024800F065
:1032180005B870470000000031320008002301465D
:103228001A46184600F01EB838B50A4C0A4D641BF9
:10323800A4100AD004F18043013B05EB8305013C4F
:1032480055F804399847002CF9D1BDE8384000F00A
:103258006FB800BF7433000870330008704700BFB0
:10326800704700BF2DE9F8432B4D0646286898465D
:103278000F469146FFF7F2FF284B1C68D4F84831F7
:10328800002B3DD05A681F2A0DDC02F1010C16BB39
:103298000232C3F804C0286843F82270FFF7E0FF41
:1032A8000020BDE8F8831E4B7BB34FF4C870AFF322
:1032B8000080034648B3D4F848210021C0E9002122
:1032C8004FF0010CC4F848010A46C0F88811C0F84C
:1032D8008C11002EDCD003EB82010124C1F8889008
:1032E800D3F8880194402043022EC3F88801C1F81E
:1032F8000881CDD1D3F88C110C43C3F88C41C7E7B2
:1033080004F5A673C4F84831BCE72868FFF7A8FF9E
:103318004FF0FF30C5E700BF6004002064330008A9
:1033280000000000F8B500BFF8BC08BC9E46704716
:0C333800F8B500BFF8BC08BC9E4670470A
:103344000000000000000000010203040607080951
:10335400010408020000000001020304FBFCFD005C
:04336400380000200D
:0833680011320008AD0100085C
:0433700089010008C7
:1033740001112233445566778899AABBCCDDEEFF50
:10338400217E151628AED2A6ABF7158809CF4F3C7F
:10339400000102030405060708090A0B0C0D0E0FB1
:1033A40000127A0000000000000000002403002046
:1033B4008C030020F4030020000000000000000043
:1033C40000000000000000000000000000000000F9
:1033D40000000000000000000000000000000000E9
:1033E40000000000000000000000000000000000D9
:1033F40000000000000000000000000000000000C9
:1034040000000000000000000000000000000000B8
:1034140000000000000000000000000000000000A8
:103424000000000000000000000000000000000098
:103434000000000000000000000000000000000088
:103444000000000000000000000000000000000078
:1034540001000000000000000E33CDAB34126DE615
:10346400ECDE05000B00000000000000000000007E
:103474000000000000000000000000000000000048
:103484000000000000000000000000000000000038
:103494000000000000000000000000000000000028
:1034A4000000000000000000000000000000000018
:0437D4006C2900203C
:04000005080030853A
:00000001FF
